:1000000000000020F50400008B480000914800002B
:10001000974800009D480000A34800000000000031
:100020000000000000000000000000006505000066
:10003000A9480000000000000B0600006B0600004D
:1000400019470000274700003547000043470000DC
:10005000514700005F4700006D4700007B470000EC
:100060008947000097470000A5470000B3470000FC
:10007000C1470000CF470000DD470000EB4700000C
:10008000F9470000AF480000B5480000BB48000039
:10009000C1480000C7480000CD480000D348000018
:1000A000D9480000DF480000E5480000EB480000A8
:1000B000F1480000F7480000FD4800000748000034
:1000C00003490000154800000949000023480000CA
:1000D0000F49000031480000154900001B4900008D
:1000E00021490000274900002D4900003349000044
:1000F000394900003F490000454900004B490000D4
:1001000005050000050500000505000005050000C7
:1001100051490000574900005D4900006349000053
:10012000694900006F490000754900007B490000E3
:1001300081490000874900008D4900009349000073
:10014000994900009F4900003F480000A549000070
:100150004D480000AB490000B1490000B74900001C
:10016000BD490000C3490000C9490000CF49000053
:10017000D5490000DB490000E1490000E7490000E3
:10018000ED4900000505000005050000050500001B
:100190000505000005050000050500000505000037
:1001A0000505000005050000050500000505000027
:1001B0000505000005050000050500000505000017
:1001C0000505000005050000050500000505000007
:1003F000050500000505000005050000FFFFFFFFE3
:10040000FFFFFFFFFFFFFFFFFFFFFFFFFEFFFFFFFD
:1004400010B5054C237833B9044B13B10448AFF30E
:1004500000800123237010BD9810002000000000D0
:1004600030E9000008B5034B1BB103490348AFF363
:10047000008008BD000000009C10002030E9000052
:10048000154B002B08BF134B9D46A3F5803A002166
:100490008B460F461348144A121A0AF0DBFE0F4B24
:1004A000002B00D098470E4B002B00D0984700201F
:1004B000002104000D000D48002802D00C480AF06D
:1004C000A7FB0AF0EFFB2000290004F001F90AF075
:1004D000ABFB00BF0000080000000020000000008F
:1004E00001440000981000200848002011AC0000D2
:1004F00049AC000072B604F017FD04F0AFFC62B620
:10050000FFF7BEFFFFF7FEBF80F309887047EFF3E8
:1005100009807047684680F309885A480078C00708
:1005200014BF0220032080F314887047DFF858C1FD
:10053000EFF305831B0618BF6047EFF31483DB0757
:1005400008BF604700DF7047DFF840C1EFF3058365
:100550001B0618BF6047EFF31483DB0708BF604733
:1005600000DF7047EFF30980816911F8021CE1BBDD
:1005700090E80F1010B5E047BDE81040EFF3098C8C
:100580008CE80700424B93E80600914208BF704791
:1005900041B91EF0100F16D13E49086820F0010045
:1005A000086010E01EF0100F06BF2CED108A01202D
:1005B000002081F825002CE9F00FC1F828C00CB408
:1005C00007F0F6FB0CBC1A60D2F828C0BCE8F00FAC
:1005D00092F8250000280EBF6FF0020E6FF0120E89
:1005E000BCEC108A8CF30988704710B52A4A12684F
:1005F000914209D8294C54F8214090E80F10A047A7
:10060000EFF3098C8CE80F0010BD10B507F054FB18
:10061000BDE810401E4B93E80600914208BF7047AA
:10062000EFF3098C1EF0100F06BF2CED108A01208D
:10063000002081F825002CE9F00FC1F828C00CB487
:1006400007F0B6FB0CBC1A60D2F828C0BCE8F00F6B
:1006500092F8250000280EBF6FF0020E6FF0120E08
:10066000BCEC108A8CF30988704710B507F082FB48
:10067000FFF7CEBF10B507F07BFB07F07BFBFFF762
:10068000C7BF000060D800003D760000597600002A
:10069000A447002034EF00E000000000FCFFFFFF53
:1006A00081F0004102E000BF83F0004330B54FEA23
:1006B00041044FEA430594EA050F08BF90EA020F90
:1006C0001FBF54EA000C55EA020C7FEA645C7FEA23
:1006D000655C00F0E2804FEA5454D4EB5555B8BF46
:1006E0006D420CDD2C4480EA020281EA030382EAB7
:1006F000000083EA010180EA020281EA0303362D49
:1007000088BF30BD11F0004F4FEA01314FF4801C1B
:100710004CEA113102D0404261EB410113F0004F2D
:100720004FEA03334CEA133302D0524263EB4303E4
:1007300094EA050F00F0A780A4F10104D5F1200E82
:100740000DDB02FA0EFC22FA05F2801841F10001DD
:1007500003FA0EF2801843FA05F359410EE0A5F1B1
:1007600020050EF1200E012A03FA0EFC28BF4CF0E2
:10077000020C43FA05F3C01851EBE37101F0004598
:1007800007D54FF0000EDCF1000C7EEB00006EEBA5
:100790000101B1F5801F1BD3B1F5001F0CD349082F
:1007A0005FEA30004FEA3C0C04F101044FEA445286
:1007B00012F5800F80F09A80BCF1004F08BF5FEA0D
:1007C000500C50F1000041EB045141EA050130BDED
:1007D0005FEA4C0C404141EB010111F4801FA4F190
:1007E0000104E9D191F0000F04BF01460020B1FAE5
:1007F00081F308BF2033A3F10B03B3F120020CDA1D
:100800000C3208DD02F1140CC2F10C0201FA0CF0FA
:1008100021FA02F10CE002F11402D8BFC2F1200C5F
:1008200001FA02F120FA0CFCDCBF41EA0C01904015
:10083000E41AA2BF01EB0451294330BD6FEA04045E
:100840001F3C1CDA0C340EDC04F11404C4F1200249
:1008500020FA04F001FA02F340EA030021FA04F35B
:1008600045EA030130BDC4F10C04C4F1200220FAB2
:1008700002F001FA04F340EA0300294630BD21FAF0
:1008800004F0294630BD94F0000F83F4801306BFB6
:1008900081F480110134013D4EE77FEA645C18BFAA
:1008A0007FEA655C29D094EA050F08BF90EA020F41
:1008B00005D054EA000C04BF1946104630BD91EA39
:1008C000030F1EBF0021002030BD5FEA545C05D13C
:1008D0004000494128BF41F0004130BD14F580047B
:1008E0003CBF01F5801130BD01F0004545F0FE41EF
:1008F00041F470014FF0000030BD7FEA645C1ABF24
:10090000194610467FEA655C1CBF0B46024650EA5A
:10091000013406BF52EA033591EA030F41F4002186
:1009200030BD00BF90F0000F04BF0021704730B50C
:100930004FF4806404F132044FF000054FF00001E1
:1009400050E700BF90F0000F04BF0021704730B5A2
:100950004FF4806404F1320410F0004548BF404277
:100960004FF000013EE700BF42004FEAE2014FEACC
:1009700031014FEA02701FBF12F07F4393F07F4FA7
:1009800081F06051704732F07F4208BF704793F0AA
:100990007F4F04BF41F40021704730B54FF46074BD
:1009A00001F0004521F000411CE700BF50EA0102C0
:1009B00008BF704730B54FF000050AE050EA010269
:1009C00008BF704730B511F0004502D5404261EBD9
:1009D00041014FF4806404F132045FEA915C3FF41A
:1009E000D8AE4FF003025FEADC0C18BF03325FEAB7
:1009F000DC0C18BF033202EBDC02C2F1200300FA68
:100A000003FC20FA02F001FA03FE40EA0E0021FA8C
:100A100002F11444BDE600BF70B54FF0FF0C4CF47A
:100A2000E06C1CEA11541DBF1CEA135594EA0C0F2C
:100A300095EA0C0F00F0DEF82C4481EA030621EA67
:100A40004C5123EA4C5350EA013518BF52EA0335A2
:100A500041F4801143F4801338D0A0FB02CE4FF054
:100A60000005E1FB02E506F00042E0FB03E54FF084
:100A70000006E1FB03569CF0000F18BF4EF0010E7C
:100A8000A4F1FF04B6F5007F64F5407404D25FEA78
:100A90004E0E6D4146EB060642EAC62141EA55512B
:100AA0004FEAC52040EA5E504FEACE2EB4F1FD0C6D
:100AB00088BFBCF5E06F1ED8BEF1004F08BF5FEAEB
:100AC000500E50F1000041EB045170BD06F000469D
:100AD00046EA010140EA020081EA0301B4EB5C044A
:100AE000C2BFD4EB0C0541EA045170BD41F4801142
:100AF0004FF0000E013C00F3AB8014F1360FDEBF67
:100B0000002001F0004170BDC4F10004203C35DA42
:100B10000C341BDC04F11404C4F1200500FA05F3C5
:100B200020FA04F001FA05F240EA020001F0004266
:100B300021F0004110EBD37021FA04F642EB0601DC
:100B40005EEA430E08BF20EAD37070BDC4F10C0406
:100B5000C4F1200500FA04F320FA05F001FA04F2CA
:100B600040EA020001F0004110EBD37041F10001B6
:100B70005EEA430E08BF20EAD37070BDC4F12005C1
:100B800000FA05F24EEA020E20FA04F301FA05F229
:100B900043EA020321FA04F001F0004121FA04F2D1
:100BA00020EA020000EBD3705EEA430E08BF20EAA1
:100BB000D37070BD94F0000F0FD101F000464000DB
:100BC00041EB010111F4801F08BF013CF7D041EA5D
:100BD000060195F0000F18BF704703F00046520061
:100BE00043EB030313F4801F08BF013DF7D043EA32
:100BF0000603704794EA0C0F0CEA135518BF95EAE8
:100C00000C0F0CD050EA410618BF52EA4306D1D16E
:100C100081EA030101F000414FF0000070BD50EA8D
:100C2000410606BF1046194652EA430619D094EA17
:100C30000C0F02D150EA013613D195EA0C0F05D101
:100C400052EA03361CBF104619460AD181EA030155
:100C500001F0004141F0FE4141F470014FF000000D
:100C600070BD41F0FE4141F4780170BD70B54FF0A8
:100C7000FF0C4CF4E06C1CEA11541DBF1CEA135528
:100C800094EA0C0F95EA0C0F00F0A7F8A4EB05040A
:100C900081EA030E52EA03354FEA013100F0888001
:100CA0004FEA03334FF0805545EA131343EA1263CA
:100CB0004FEA022245EA111545EA10654FEA00267F
:100CC0000EF000419D4208BF964244F1FD0404F538
:100CD000407402D25B084FEA3202B61A65EB030594
:100CE0005B084FEA32024FF480104FF4002CB6EB51
:100CF000020E75EB030E22BFB61A754640EA0C00D1
:100D00005B084FEA3202B6EB020E75EB030E22BF10
:100D1000B61A754640EA5C005B084FEA3202B6EB51
:100D2000020E75EB030E22BFB61A754640EA9C0010
:100D30005B084FEA3202B6EB020E75EB030E22BFE0
:100D4000B61A754640EADC0055EA060E18D04FEA9E
:100D5000051545EA16754FEA06164FEAC30343EA3E
:100D600052734FEAC2025FEA1C1CC0D111F4801F0B
:100D70000BD141EA00014FF000004FF0004CB6E704
:100D800011F4801F04BF01430020B4F1FD0C88BFA3
:100D9000BCF5E06F3FF6AFAEB5EB030C04BFB6EBAE
:100DA000020C5FEA500C50F1000041EB045170BDA1
:100DB0000EF0004E4EEA113114EB5C04C2BFD4EBCE
:100DC0000C0541EA045170BD41F480114FF0000E52
:100DD000013C90E645EA060E8DE60CEA135594EACE
:100DE0000C0F08BF95EA0C0F3FF43BAF94EA0C0FD1
:100DF0000AD150EA01347FF434AF95EA0C0F7FF446
:100E000025AF104619462CE795EA0C0F06D152EA99
:100E100003353FF4FDAE1046194622E750EA41067D
:100E200018BF52EA43067FF4C5AE50EA41047FF48E
:100E30000DAF52EA43057FF4EBAE12E74FF0FF3CF3
:100E400006E000BF4FF0010C02E000BF4FF0010CC4
:100E50004DF804CD4FEA410C7FEA6C5C4FEA430C3D
:100E600018BF7FEA6C5C1BD001B050EA410C0CBF8C
:100E700052EA430C91EA030F02BF90EA020F0020EE
:100E8000704710F1000F91EA030F58BF994208BF55
:100E900090422CBFD8176FEAE37040F00100704712
:100EA0004FEA410C7FEA6C5C02D150EA013C07D169
:100EB0004FEA430C7FEA6C5CD6D152EA033CD3D0B4
:100EC0005DF8040B704700BF8446104662468C46AE
:100ED0001946634600E000BF01B5FFF7B7FF0028E1
:100EE00048BF10F1000F01BD4DF808EDFFF7F4FF0A
:100EF0000CBF012000205DF808FB00BF4DF808ED95
:100F0000FFF7EAFF34BF012000205DF808FB00BFB7
:100F10004DF808EDFFF7E0FF94BF012000205DF8D9
:100F200008FB00BF4DF808EDFFF7CEFF94BF01208E
:100F300000205DF808FB00BF4DF808EDFFF7C4FF87
:100F400034BF012000205DF808FB00BF4FEA410CD0
:100F50007FEA6C5C02D150EA013C0AD14FEA430CB3
:100F60007FEA6C5C02D152EA033C02D14FF00000F0
:100F700070474FF0010070474FEA410212F500122E
:100F800015D211D56FF47873B3EB625212D94FEAD0
:100F9000C12343F0004343EA505311F0004F23FABA
:100FA00002F018BF404270474FF00000704750EA0F
:100FB000013005D111F0004008BF6FF000407047CC
:100FC0004FF00000704700BF4A0011D212F5001226
:100FD00011D20DD56FF47873B3EB62520ED44FEA91
:100FE000C12343F0004343EA505323FA02F0704711
:100FF0004FF00000704750EA013002D14FF0FF304F
:1010000070474FF0000070474FEA4102B2F1E043F1
:1010100024BFB3F5001CDCF1FE5C0DD901F0004CDF
:101020004FEAC0024CEA5070B2F1004F40EB83002F
:1010300008BF20F00100704711F0804F21D113F15B
:101040003872BCBF01F00040704741F480114FEA94
:101050005252C2F11802C2F1200C10FA0CF320FA1D
:1010600002F018BF40F001004FEAC1234FEAD3233A
:1010700003FA0CFC40EA0C0023FA02F34FEA4303A4
:10108000CCE77FEA625307D150EA01331EBF4FF02D
:10109000FE4040F44000704701F0004040F0FE4048
:1010A00040F40000704700BF53B94AB9002908BF97
:1010B00000281CBF4FF0FF314FF0FF3001F0F8B8AF
:1010C000ADF1080C6DE904CE00F006F8DDF804E09F
:1010D000DDE9022304B070472DE9F047089E04467D
:1010E0008846002B4BD18A42154667D9B2FA82F264
:1010F0004AB1C2F1200701FA02F320FA07F795403E
:1011000047EA030894404FEA154E230CB8FBFEF75C
:101110001FFA85FC0EFB178843EA084307FB0CF116
:10112000994209D9EB1807F1FF3080F01B819942F1
:1011300040F21881023F2B445B1AA4B2B3FBFEF0CD
:101140000EFB103344EA034400FB0CFCA44509D910
:101150002C1900F1FF3380F00781A44540F204818F
:1011600002382C4440EA0740A4EB0C0400271EB1CF
:10117000D4400023C6E900433946BDE8F0878B42DE
:1011800009D9002E00F0EB800027C6E9000138469F
:101190003946BDE8F087B3FA83F7002F47D18B4279
:1011A00002D3824200F2FA80841A61EB0303012029
:1011B0009846002EE0D0C6E90048DDE702B9FFDE20
:1011C000B2FA82F2002A40F08F80491B4FEA154E96
:1011D0001FFA85F80127B1FBFEFC230C0EFB1C1146
:1011E00043EA014308FB0CF1994207D9EB180CF1D3
:1011F000FF3002D2994200F2CD808446591AA3B240
:10120000B1FBFEF00EFB101443EA044408FB00F8A7
:10121000A04507D92C1900F1FF3302D2A04500F2F6
:10122000B6801846A4EB080440EA0C409FE7C7F1DB
:10123000200CBB4022FA0CFE4EEA030E01FA07F422
:1012400020FA0CF521FA0CF34FEA1E482543B3FBB4
:10125000F8F92C0C08FB19331FFA8EFA44EA034301
:1012600009FB0AF49C4202FA07F200FA07F10BD9D3
:101270001EEB030309F1FF3080F087809C4240F2AF
:101280008480A9F1020973441B1BADB2B3FBF8F0D3
:1012900008FB103345EA034400FB0AFAA24508D9CB
:1012A0001EEB040400F1FF336BD2A24569D902386A
:1012B000744440EA0940A0FB0289A4EB0A044C45AF
:1012C000C2464B4654D351D0002E69D0B1EB0A052B
:1012D00064EB030404FA0CFCFD40FC404CEA0505F9
:1012E000C6E90054002747E7C2F1200320FA03F7BC
:1012F000954001FA02F021FA03F34FEA154E384304
:10130000010CB3FBFEF71FFA85F80EFB173341EA19
:10131000034107FB08F38B4204FA02F407D969186A
:1013200007F1FF3C2FD28B422DD9023F2944CB1A23
:1013300081B2B3FBFEF00EFB103341EA034100FB28
:1013400008F38B4207D9691800F1FF3C17D28B4292
:1013500015D902382944C91A40EA07473BE73746FE
:10136000304609E70746E7E61846FBE64145ABD2BB
:10137000B8EB020A69EB0E0201381346A4E7604697
:10138000E9E7184695E76746D1E781467CE70238EA
:101390002C4447E7ACF1020C2B442FE7384608E712
:1013A0003746E9E603685A004CBF43F0004323F098
:1013B00000431844704700BF61B32DE9F84F01F1B5
:1013C000FF3A90460646D146002707EB090404EB96
:1013D000D4746410E50071190846FFF7E3FFA245D5
:1013E000834605F10800304409D0FFF7DBFFC34511
:1013F00000F1FF3005D8404509D2671CE5E7C34539
:1014000005D9A74202D004F1FF39DEE700210846E2
:10141000BDE8F88F08467047012807D0022807D09A
:10142000044B00280CBF1846002070470248704744
:1014300002487047051B0000091B00000D1B00003F
:1014400030B5254B83B004468D1E4BB301A9284609
:10145000AFF30080F0B101992A46FFF7ADFF0146D6
:10146000C0B1FFF79FFF4B68A064012B2ED0002B6B
:1014700001F1040026DBFFF795FF0023C4E9130305
:101480000368002B12DBFFF78DFF00232061184655
:1014900003B030BD002323610923184603B030BDDB
:1014A0000E490F48091AC9100191D5E7C3F303602B
:1014B000FFF7B2FF002814BF00230923206118465C
:1014C00003B030BD0123C4E91303D9E7002323612E
:1014D0000523184603B030BD0000000050F00000A6
:1014E000A8EC00000368DA0710B5044606D49B0791
:1014F00000F1480009D500F05FFC2368590709D5C1
:101500001A070ED5DB0613D510BD00F04DFC23687D
:101510005907F5D404F1D00000F056FC23681A07EF
:10152000F0D404F5A87000F057FC2368DB06EBD478
:1015300004F5E870BDE8104000F092BC036803B108
:1015400003441846704700BF09207047704700BF2A
:1015500070B504460D4608E02B6C63612A4623698A
:10156000214601209847082808D1296C2046FFF71A
:1015700067FF06460028EFD009F024FB0728FBD1BF
:101580003046296CFFF7E2FF281D00F001FC00BF88
:101590002DE9F0470C1D054617460FCCADF5727DC1
:1015A00003AE0FC60FCC0FC60FCC0FC694E80F00CA
:1015B00002ACD5F80C80D5F8189086E80F0000230F
:1015C000236021E0236C6B614FF4F07221467AA80E
:1015D00000F070FE2B697AAA294630469847889B0E
:1015E000CDE900498246636431462B462A460120F4
:1015F000C0470746F8B94FF4F0727AA9204600F0C8
:1016000059FEBAF1080F1CD1216C2846FFF718FFCC
:10161000002F08BF0926074618BF0A260028D1D088
:10162000A36B46F01001CDE900492A46636401200E
:101630002B46C04700B1092738460DF5727DBDE83D
:10164000F087BAF1070FF6D13846216CFFF77EFF1D
:1016500003A800F09DFB00BF406C7047F0B5CB6B5A
:101660000B640D1D0F4606460FCDF9B001AC0FC43B
:101670000FCD0FC40FCD0FC495E80F004FF0FF350D
:1016800084E80F00009506E033696A4631469847C2
:101690000828044608D110993046FFF7D1FE0028EB
:1016A000F2D0092079B0F0BD6846FFF71BFF062C89
:1016B000F7D139463046FFF74BFF00BF30B4DD6B42
:1016C000C160826119461D64002230BC60E700BF22
:1016D00070B5C66843690B64BEB903690A4604461F
:1016E0000D46014602209847072807D0082803D155
:1016F00029462046FFF72CFF09F064FA3046296C92
:10170000FFF724FF281D00F043FB0122FFF740FFF5
:1017100009F058FAC2681AB1CA6B0A64002237E7A6
:101720009CE700BF704700BF836813B101460120EA
:1017300018477047042907D8DFE801F003080608B6
:1017400008000BB90F2A03D9022070470120704707
:1017500000EB820218465368009A1360704700BF7E
:1017600010B584B0002303AC0A4600941946FFF775
:10177000E1FF039804B010BD042907D8DFE801F0A9
:101780000308060808000BB90F2A03D90220704786
:101790000120704700EB8200009A126842601846F0
:1017A000704700BF10B584B004AC002344F8042D8A
:1017B0000A4600941946FFF7DFFF04B010BD00BFD2
:1017C000F0B5D36B1364151D07460E460FCDADF56E
:1017D0000F7D17AC0FC40FCD0FC40FCD0FC495E80C
:1017E0000F004FF0FF3584E80F00169510E016A8A3
:1017F000FFF7D8FF314616A8B84716AA694678B948
:10180000049B08209847052804460AD0092807D0D9
:1018100026996846FFF714FE6A460C210028E6D098
:10182000092416A8FFF75EFE20460DF50F7DF0BDDA
:101830002DE9F04F0D46C96C89B00C1D164600F01D
:10184000030B0A6806941F46002B68D0130CD9B20C
:1018500012048DF81D30022304EB810405928DF8EB
:101860001C302B6DBBF1020F08BFAC6B13F00103F2
:1018700046D1019300F008030093D4F80090B9F129
:10188000000F00F0F380022F45D0B4F80090B4F8B8
:1018900002800434AB6C28F0010A0F2130469A44D0
:1018A000FFF75EFF824534D829F001035344834299
:1018B00094BF002001204FEA480808F0020809F010
:1018C000010948EA0908B8F1010F3AD031D3B8F15B
:1018D000020F1AD1236823F0004ABBF1000F66D132
:1018E00030B1009A002A6CD0BAF1000F00F090805D
:1018F000002B00DA04340AF1010304EB8304BCE793
:10190000304605A900F046FB78B1092009B0BDE8D2
:10191000F08F0020CFE7D4F804800834BAE7120231
:1019200003230592ADF81C309BE7082009B0BDE801
:10193000F08FBBF1000F02D0002840F0B4800434D7
:101940009BE7BBF1000F18D1A8B1D4E90023991C83
:101950004FEAD272D9D005F158010133049100F059
:10196000B580201DFFF7EAFD04AB01462846AFF322
:101970000080002867D108347FE70D213046D5F874
:101980002080FFF7EDFE8045F5D1AB6A9C42F2D195
:101990002046FFF707FD0F2102463046FFF702FF02
:1019A00030462A460021FFF7FDFE0720AEE70D2155
:1019B0003046D5F82080FFF7D3FE804532D023682B
:1019C00096E7BAF1000F23D005F1580304F104089B
:1019D000CDF808B0DDF800900397A3461C4602E05E
:1019E0005745B94640D040460494FFF7A7FD04ABE5
:1019F000014600222846AFF3008009F1010708F1F3
:101A000004080028ECD0D1455C46DDE902B7D6D108
:101A100030460D21FFF7A4FE049B2862C5E9093476
:101A2000062073E7AB6A9C42C9D104224FF000083C
:101A3000A318C5E90AA8C5E90C23236843454DDB73
:101A40000123019357E780460D213046FFF788FEBA
:101A5000B8F1020F28623ED12B46049A43F82C2F8E
:101A60006B62AC62062051E75C46D1E705A93046BF
:101A700000F090FA00287FF448AF019B002B3FF460
:101A800054AF0F213046FFF76BFE0E210246304661
:101A9000FFF788FE30461A4A0F21FFF783FE072022
:101AA00009B0BDE8F08F2046FFF77CFC0434074600
:101AB000AC632846AFF3008000283FF426AF3046E1
:101AC0003A460F21FFF76EFE07201FE730460D2133
:101AD000FFF746FE2862049B6B62C2E70AF1010031
:101AE00004EB8000FFF75EFC0F2102463046FFF753
:101AF00059FE30462A464146FFF754FE072005E7C7
:101B000000000000002393E6012391E602238FE604
:101B10002DE9F0410546C4B0042906D8DFE801F0FC
:101B20004D2B05030900032B5FD0022044B0BDE814
:101B3000F081002BF9D1102AF7D82B68DC0600F1D0
:101B4000F48022AC2046019200F094F9A86B019A2F
:101B50000023012606FA03F1114203D0016844F87C
:101B6000231004300133042BF4D1A863204600F085
:101B700077F90020DAE7012B4FEA124697B252D0EC
:101B8000052BD2D106EB0708B8F1200FCDD80F2EC8
:101B900040F29980B846002F40F0DB80AA6BAA6320
:101BA0000F2E40F2BE80B8F1000F02D002A800F064
:101BB0000BF9002044B0BDE8F081002BB5D1AC6B2F
:101BC00097B2281D012606FA03F1394203F10103F9
:101BD00002D0216801600434102B00F10400F2D11E
:101BE00012F40050E5D1AC63A0E7160C97B2F319DC
:101BF000102B9AD82B681A075DD422AC204600F02F
:101C00000DF904EBC601AB6B3FB103EBC7021868DB
:101C100041F8040B04339342F9D12046AB6300F042
:101C2000DBF8002082E7F219102A3FF67EAF0F2E74
:101C30003FF67BAF2A68D10708D5284622F0030279
:101C400040F8482B019300F0B3F8019B019322ACBC
:101C5000204600F0ADF8A96B019B002F00F09580A5
:101C60007F0004EBC6044FF00008043C01EB870240
:101C700051F8040B44F8040F9142F9D1B8F1000F68
:101C80000FD002AC102E314638BF102104EBC10139
:101C9000843902EBC80452F8040B41F8040F944253
:101CA000F9D1012B7FF47BAF22AC0432AA6320462A
:101CB00000F07AF87DE723F008032B6005F5A870A3
:101CC00000F0ACF899E7B8F1100F2A6843D9D007B3
:101CD000A8F110080BD5284622F0010242F00202BA
:101CE00040F8482B019300F06BF82A68019B5107DC
:101CF00025D40F2E04D822A8019300F061F8019B8F
:101D0000019302AC204600F063F8C6F110010029EF
:101D1000AA6B019BB6DD22AC4F0004EBC604114652
:101D2000A3E722A800F048F83DE723F010032B605A
:101D300005F5E870019200F09DF8019A01E7284648
:101D400022F0040240F8D02B019300F041F8019BEF
:101D5000CFE72A68CBE7D0070AD5284622F0010250
:101D600042F0020240F8482B019300F029F8019B51
:101D7000019322AC204600F023F8B846A96B019BE2
:101D8000002F7FF46DAF0A4609E70A468DE700BFD2
:101D900000F1340191E838009C46A6464CF8045DF9
:101DA00090E8FF0FE54600BD90EC210B704700BFA7
:101DB00080EC210B704700BF90EC200B704700BFF8
:101DC00080EC200B704700BFD0EC200B704700BFA9
:101DD000C0EC200B704700BFF0EC0201F0EC0211E8
:101DE000F0EC0221F0EC0231F0EC0241F0EC025197
:101DF000F0EC0261F0EC0271F0EC0281F0EC029187
:101E0000F0EC02A1F0EC02B1F0EC02C1F0EC02D176
:101E1000F0EC02E1F0EC02F1704700BFE0EC0201EF
:101E2000E0EC0211E0EC0221E0EC0231E0EC0241D6
:101E3000E0EC0251E0EC0261E0EC0271E0EC0281C6
:101E4000E0EC0291E0EC02A1E0EC02B1E0EC02C1B6
:101E5000E0EC02D1E0EC02E1E0EC02F1704700BFFF
:101E6000B0FC0181B0FC0191B0FC01A1B0FC01B15A
:101E7000704700BFA0FC0181A0FC0191A0FC01A162
:101E8000A0FC01B1704700BFEC4600B52DE9005041
:101E90002DE9FF1F4FF000032DE90C0001A9FFF70A
:101EA000DDFBDDF840E012B0704700BFEC4600B546
:101EB0002DE900502DE9FF1F4FF000032DE90C0024
:101EC00001A9FFF705FCDDF840E012B0704700BF44
:101ED000EC4600B52DE900502DE9FF1F4FF000033F
:101EE0002DE90C0001A9FFF715FCDDF840E012B068
:101EF000704700BFEC4600B52DE900502DE9FF1FEB
:101F00004FF000032DE90C0001ABFFF7D7FBDDF824
:101F100040E012B0704700BFEC4600B52DE900501C
:101F20002DE9FF1F4FF000032DE90C0001AAFFF778
:101F300047FCDDF840E012B0704700BF027A82B97A
:101F4000437AABB14268013B10B44372136803217A
:101F5000141D01721A02446002605DF8044B180EF1
:101F600070470368013A02721A020260180E704745
:101F7000B020704700B585B003AA0023009219462F
:101F80000C22FFF7D7FB039805B05DF804FB00BFF8
:101F9000F0E700BF2DE9F043054685B00E464FF04F
:101FA00000083046FFF7CAFFB028044600F0B180B1
:101FB000070620D500F0F003802B65D0902B36D09B
:101FC000A02B78D0B02B47D0C02B00F08A8000F037
:101FD000F803D02B0BD100F00702013242F40022AB
:101FE000052301212846FFF793FD0028D9D00920B9
:101FF00005B0BDE8F0830DF10C09002319468700F8
:10200000CDF800900D222846FFF794FBFFB2039B0A
:10201000CDF80090043760064CBFDF1BFF1800238B
:1020200019460D2228460397FFF7A6FBB9E700F0F3
:102030000D030D2BDBD003AF002300F00F02194678
:1020400000972846FFF776FB0023009719460D22DC
:102050002846FFF791FBA4E7B1285FD0B22800F033
:10206000CC80B3287ED000F0FC03B42BBFD000F0AE
:1020700007020132012342F4002219462846FFF7E5
:1020800047FD00288DD0B2E73046FFF757FF240206
:102090000443B4F5004FAAD024010023A2B219468C
:1020A0002846FFF735FD0028A1D114F4004F18BFD2
:1020B0004FF0010875E7C24302F007034FF47F6257
:1020C0001A41010702F47F624FF0000348BF42F457
:1020D000804219462846FFF71BFD00283FF461AFF8
:1020E00085E7C62851D0C7285AD000F0F803C02B86
:1020F00069D0C82875D0C9287FF479AF3046FFF77A
:102100001DFF020300F00F0002F4702201300243B1
:1021100066E7B8F1000F14D0002069E73046FFF7FA
:102120000DFF00283FF463AF10F0F0037FF45FAFC2
:10213000024619462846FFF7EBFC00283FF431AF72
:1021400055E703AC43460E22414600942846FFF76C
:10215000F1FA0094284643460F224146FFF70CFB54
:10216000404645E73046FFF7E9FE010300F00F0067
:1021700001F47021421C01230A4328461946FFF747
:10218000C7FC00283FF40DAF31E73046FFF7D6FE1D
:10219000010300F00F0001F47021421C0323EBE760
:1021A0003046FFF7CBFE024600283FF420AF10F088
:1021B000F0037FF41CAF04212846FFF7A9FC002898
:1021C0003FF4EFAE13E700F00F020132032342F4B5
:1021D000202219462846FFF79BFC00283FF4E1AE79
:1021E00005E73046FFF7AAFE00F0F00200F00F030B
:1021F0001032013343EA0232F2E600230DF10C09FA
:102200000D221946CDF800902846FFF793FA304684
:10221000FFF794FE02064FF002070CD5039B00F077
:102220007F00B840034430460393FFF787FE030660
:1022300007F10707F2D4039BCDF8009000F07F046C
:1022400003F50172BC400023144419460D222846B0
:102250000394FFF791FAA4E610B5C36C84B05A68F2
:1022600003208DF80C00DC798DF80D401202083344
:10227000084601A901920293FFF78CFE04B010BD3D
:1022800008B5FFF785FE806C08BD00BF08B5FFF7F5
:102290007FFEC06CC37900EB8300083008BD00BF2F
:1022A00008B508F08FFC00BF08B5FFF7F9FF00BFC5
:1022B000704700BF844641EA000313F003036DD169
:1022C000403A41D351F8043B40F8043B51F8043BF9
:1022D00040F8043B51F8043B40F8043B51F8043B00
:1022E00040F8043B51F8043B40F8043B51F8043BF0
:1022F00040F8043B51F8043B40F8043B51F8043BE0
:1023000040F8043B51F8043B40F8043B51F8043BCF
:1023100040F8043B51F8043B40F8043B51F8043BBF
:1023200040F8043B51F8043B40F8043B51F8043BAF
:1023300040F8043B51F8043B40F8043B51F8043B9F
:1023400040F8043B403ABDD2303211D351F8043B3F
:1023500040F8043B51F8043B40F8043B51F8043B7F
:1023600040F8043B51F8043B40F8043B103AEDD2EE
:102370000C3205D351F8043B40F8043B043AF9D23F
:10238000043208D0D2071CBF11F8013B00F8013B12
:1023900001D30B8803806046704700BF082A13D31F
:1023A0008B078DD010F003038AD0C3F10403D21A37
:1023B000DB071CBF11F8013B00F8013B80D331F86B
:1023C000023B20F8023B7BE7043AD9D3013A11F8EB
:1023D000013B00F8013BF9D20B7803704B78437056
:1023E0008B7883706046704700000000000000009A
:1023F00001F0FF01102A2BDB10F0070F08D010F8B6
:10240000013B013A8B422DD010F0070F42B3F6D1B9
:10241000F0B441EA012141EA014122F007047FF0D2
:1024200000070023F0E80256083C85EA010586EA29
:10243000010685FA47F5A3FA87F586FA47F6A5FA65
:1024400087F68EB9EED1F0BC01F0FF0102F0070271
:1024500032B110F8013B013A83EA010313B1F8D11C
:102460000020704701387047002D06BF35460338FD
:10247000073815F0010F07D1013015F4807F02BF36
:10248000013015F4C03F0130F0BC0138704700BF87
:10249000000000000000000000000000000000003C
:1024A000000000000000000000000000000000002C
:1024B000000000000000000000000000000000001C
:1024C00090F800F06DE9024520F007016FF0000C74
:1024D00010F0070491F820F040F049804FF000041C
:1024E0006FF00700D1E9002391F840F000F10800F7
:1024F00082FA4CF2A4FA8CF283FA4CF3A2FA8CF32F
:102500004BBBD1E9022382FA4CF200F10800A4FA95
:102510008CF283FA4CF3A2FA8CF3E3B9D1E90423E9
:1025200082FA4CF200F10800A4FA8CF283FA4CF320
:10253000A2FA8CF37BB9D1E9062301F1200182FADA
:102540004CF200F10800A4FA8CF283FA4CF3A2FAE0
:102550008CF3002BC6D0002A04BF04301A4612BAEE
:10256000B2FA82F2FDE8024500EBD2007047D1E9F1
:10257000002304F00305C4F100004FEAC50514F080
:10258000040F91F840F00CFA05F562EA05021CBF51
:1025900063EA050362464FF00004A9E780B582B004
:1025A00000AF78607B685B68012B08D17B681B7A81
:1025B000002B04D07B681B69184601F001FD00BFA9
:1025C0000837BD4680BD80B582B000AF78607868BE
:1025D000FFF7E4FF00BF0837BD4680BD80B582B07D
:1025E00000AF78607B681B78002B05D17B680122E7
:1025F0001A707868FFF7E7FF00BF0837BD4680BD57
:1026000080B582B000AF78607B685B68012B0DD12C
:102610007B681B7A002B09D07B681B69184601F088
:10262000E5F87B681B69184601F0EAF800BF083737
:10263000BD4680BD80B582B000AF78607868FFF796
:10264000DFFF00BF0837BD4680BD80B582B000AF58
:1026500078607B681B78002B05D17B6801221A709B
:102660007868FFF7E7FF00BF0837BD4680BD80B53B
:1026700082B000AF78607B685B68012B08D17B6813
:102680001B7A002B04D07B681B69184601F098FC6C
:1026900000BF0837BD4680BD80B582B000AF78600E
:1026A0007868FFF7E4FF00BF0837BD4680BD80B5FE
:1026B00082B000AF78607B681B78002B05D17B6807
:1026C00001221A707868FFF7E7FF00BF0837BD46A0
:1026D00080BD80B582B000AF78607B685B68012BFD
:1026E00008D17B681B7A002B04D07B681B691846D5
:1026F00001F04DFE00BF0837BD4680BD80B582B0F9
:1027000000AF78607868FFF7E4FF00BF0837BD4688
:1027100080BD80B582B000AF78607B681B78002BED
:1027200005D17B6801221A707868FFF7E7FF00BFC8
:102730000837BD4680BD000080B584B000AF78602A
:102740007B6800221A727B6801225A60144B4FF09A
:10275000FF321A620023BB60114B1B6A07F10800AD
:102760000A22002101F0A4F802467B681A617B6806
:102770001B694FF4E131184601F070FB0123FB7334
:102780000023BB737B681869FB7BBA7B082101F0CF
:1027900071FB7B6801221A7200BF1037BD4680BDF5
:1027A000B810002080B584B000AF78607B6800224C
:1027B0001A727B6801225A60144B4FF0FF32DA61C3
:1027C0000023BB60114BDA6907F108000A230021DE
:1027D00001F06EF802467B681A617B681B694FF452
:1027E000E131184601F03AFB0123FB730023BB7370
:1027F0007B681869FB7BBA7B082101F03BFB7B6897
:1028000001221A7200BF1037BD4680BDB8100020EB
:102810002DE9F0439DB00EAF324BD3E90601324BA8
:10282000D3E900341A462346FEF75EFB0346002B2D
:1028300005D12D4BD3E900342A4AC2E90634294B8D
:102840001B6907F10C011B22184601F027FB034608
:1028500087F8373007F10C031B2219462348FFF78E
:1028600029FD204B93F8AE30002B15D11D4B0122D2
:1028700083F8AE201B4B022283F8AF20194A4FF099
:1028800000034FF08044C2E92234164A4FF000039F
:10289000174CC2E924345DE2124B93F8AF30022B9F
:1028A00009D0032B0CD0012B40F04E820D4B03229C
:1028B00083F8AF204EE20B4B032283F8AF2049E2AE
:1028C00097F83730002B40F04482084B1B780A2BD6
:1028D00040F03482054B5B78142B0BD01E2B00F09C
:1028E0001D8225E21011002000000020B8100020F9
:1028F0000000F03FB04B042283F8AF20AF4B9A7832
:10290000AE4B83F84020AC4BD3E924014FF00002DA
:10291000AB4BFDF7CBFE03460C4618462146FEF7AF
:102920002BFB0346013BA54AD25CA44B83F8412014
:10293000A14BD3E924014FF00002A14BFDF7B6FEF5
:1029400003460C46184621469B4BD3E924341A46CD
:102950002346FDF7ABFE03460C46C7E90A34D7E928
:102960000A3418462146FEF707FB0346013B934A0B
:10297000D25C924B83F842208F4BD3E92401D7E9F4
:102980000A341A462346FDF791FE03460C46C7E972
:102990000A34D7E90A3418462146FEF7EDFA034611
:1029A000013B864AD25C854B83F84320824BD3E9B6
:1029B0002401D7E90A341A462346FDF777FE034679
:1029C0000C46C7E90A34D7E90A3418462146FEF70F
:1029D000D3FA0346013B794AD25C784B83F8442012
:1029E000754BD3E92401D7E90A341A462346FDF78B
:1029F0005DFE03460C46C7E90A34D7E90A34184697
:102A00002146FEF7B9FA0346013B6C4AD25C6B4B98
:102A100083F84520684BD3E92401D7E90A341A46E4
:102A20002346FDF743FE03460C46C7E90A34D7E9BF
:102A30000A3418462146FEF79FFA0346013B5F4AD7
:102A4000D25C5E4B83F846205B4BD3E92401D7E987
:102A50000A341A462346FDF729FE03460C46C7E909
:102A60000A34D7E90A3418462146FEF785FA0346A8
:102A7000013B524AD25C514B83F847204E4BD3E97D
:102A80002401D7E90A341A462346FDF70FFE034610
:102A90000C46C7E90A34D7E90A3418462146FEF73E
:102AA0006BFA0346013B454AD25C444B83F848200D
:102AB000414BD3E92401D7E90A341A462346FDF7EE
:102AC000F5FD03460C46C7E90A34D7E90A3418462F
:102AD0002146FEF751FA0346013B384AD25C374B98
:102AE00083F84920344BD3E92401D7E90A341A4644
:102AF0002346FDF7DBFD03460C46C7E90A34D7E958
:102B00000A3418462146FEF737FA0346013B2B4AA2
:102B10001344022219462B48FFF7CCFB264BD3E97E
:102B20002201D7E90A341A462346FDF7BFFD0346C2
:102B30000C46C7E90A34D7E90A3418462146FEF79D
:102B40001BFA0346013B1D4A1344022219461E4844
:102B5000FFF7B0FB184BD3E92201D7E90A341A4634
:102B60002346FDF7A3FD03460C46C7E90A34D7E91F
:102B70000A3418462146FEF7FFF90346013B0F4A87
:102B80001344022219461148FFF794FB0A4BD3E97C
:102B90002201D7E90A341A462346FDF787FD03468A
:102BA0000C46C7E90A34D7E90A3418462146FEF72D
:102BB000E3F90346013B0BE010110020B8100020A0
:102BC00000000840E0100020E2100020E410002087
:102BD000AF4A134402221946AE48FFF76BFBAE4BD7
:102BE000D3E92201D7E90A341A462346FDF75EFDF0
:102BF00003460C46C7E90A34D7E90A341846214689
:102C0000FEF7BAF90346013BA14A134402221946D2
:102C1000A248FFF74FFBA04BD3E92201D7E90A34C2
:102C20001A462346FDF742FD03460C46C7E90A341F
:102C3000D7E90A3418462146FEF79EF90346013BC0
:102C4000934AD25C924B83F84B20934BD3E92401F7
:102C5000D7E90A341A462346FDF728FD03460C46F9
:102C6000C7E90A34D7E90A3418462146FEF784F941
:102C70000346013B864AD25C854B83F84C20864B49
:102C8000D3E92401D7E90A341A462346FDF70EFD9D
:102C900003460C46C7E90A34D7E90A3418462146E8
:102CA000FEF76AF90346013B794AD25C784B83F818
:102CB0004D20794BD3E92401D7E90A341A4623463B
:102CC000FDF7F4FC03460C46C7E90A34D7E90A3499
:102CD00018462146FEF750F90346013B6C4AD25C88
:102CE0006B4B83F84E206C4BD3E92401D7E90A34AF
:102CF0001A462346FDF7DAFC03460C46C7E90A34B8
:102D0000D7E90A3418462146FEF736F90346013B57
:102D10005F4AD25C5E4B83F84F2014E05E4B012289
:102D200083F8AF205A4B9A78594B83F84A200AE02F
:102D3000594B032283F8AF2000BF04E0564B032217
:102D400083F8AF2005E004E0534B032283F8AF2063
:102D500000E000BF022252495248FFF7ABFA0222BC
:102D600051495248FFF7A6FA022251495148FFF74C
:102D7000A1FA022247495048FFF79CFA022247492C
:102D80004E48FFF797FA444BD3E90E014C4BD3E979
:102D900004341A462346FEF7A7F80346002B05D154
:102DA000474BD3E904343C4AC2E90E343A4B1B6B1F
:102DB000184600F011FD384B1B6B07F12801072264
:102DC000184600F0ADFC3E4BD3E90601D7E90A34C2
:102DD0001A462346FDF720FE03460C4644EC173BFB
:102DE000B0EE470AF0EE670A07F0D6FCB0EE407A84
:102DF000F0EE607A87ED0A7B97ED0A7BB0EE470A2A
:102E0000F0EE670A03F008FD0346002B0AD197EDA8
:102E10000A7BB0EE470AF0EE670A03F0D5FC0346E2
:102E2000002B06D04FF000034FF00004C7E90A342E
:102E30000FE097ED0A7B9FED141BB0EE470AF0EE12
:102E4000670A07F031FDB0EE407AF0EE607A87ED68
:102E50000A7BD7E90A014FF000024FF00003FEF7AA
:102E60004DF80346002B2DD0D7E90A34984684F05C
:102E7000004940464946FEF7A7F803469BB25B422D
:102E80009BB227E0AFF30080000000000000F0409C
:102E9000B8100020E610002010110020E8100020DB
:102EA000E0100020EA100020E2100020EC100020CA
:102EB000E4100020EE100020F0100020F21000209E
:102EC00000000020D7E90A3418462146FEF77CF8B6
:102ED00003469BB2C04A93840222C049C048FFF710
:102EE000E9F9C04BD3E91601BF4BD3E902341A46C6
:102EF0002346FDF7F9FF0346002B05D1BA4BD3E972
:102F00000234B84AC2E91634B64B1B6D184600F0BD
:102F100063FCB44B1B6D07F128010722184600F033
:102F2000FFFBB14BD3E90801D7E90A341A4623461F
:102F3000FDF772FD03460C4644EC173BB0EE470A22
:102F4000F0EE670A07F028FCB0EE407AF0EE607A07
:102F500087ED0A7B97ED0A7BB0EE470AF0EE670A31
:102F600003F05AFC0346002B0AD197ED0A7BB0EE22
:102F7000470AF0EE670A03F027FC0346002B06D051
:102F80004FF000034FF00004C7E90A340FE097ED5B
:102F90000A7B9FED8F1BB0EE470AF0EE670A07F041
:102FA00083FCB0EE407AF0EE607A87ED0A7BD7E9D9
:102FB0000A014FF000024FF00003FDF79FFF0346A8
:102FC000002B0DD0D7E90A341D4684F00046284670
:102FD0003146FDF7F9FF03469BB25B429BB207E027
:102FE000D7E90A3418462146FDF7EEFF03469BB2A7
:102FF000794AD38402227D497D48FFF75BF9764BFD
:1030000093F84A30013B142B00F2FD8001A252F8E4
:1030100023F000BF693000007B3000008D300000DD
:103020009F300000B1300000C3300000D5300000F8
:10303000E7300000F93000000B3100001D310000C6
:103040002F31000041310000533100006531000094
:1030500077310000893100009B310000AD31000064
:10306000BF310000F53100005B4B93F840307B71BD
:10307000594B93F84030BB71CEE0574B93F8413039
:103080007B71554B93F84130BB71C5E0524B93F8BF
:1030900042307B71504B93F84230BB71BCE04E4BD9
:1030A00093F843307B714C4B93F84330BB71B3E0E2
:1030B000494B93F844307B71474B93F84430BB71D4
:1030C000AAE0454B93F845307B71434B93F845306C
:1030D000BB71A1E0404B93F846307B713E4B93F8B7
:1030E0004630BB7198E03C4B93F847307B713A4BCC
:1030F00093F84730BB718FE0374B93F848307B71C2
:10310000354B93F84830BB7186E0334B93F8493028
:103110007B71314B93F84930BB717DE02E4B93F8B6
:1031200032307B712C4B93F83330BB7174E02A4BF7
:1031300093F834307B71284B93F83530BB716BE0DA
:10314000254B93F836307B71234B93F83730BB71A6
:1031500062E0214B93F838307B711F4B93F8393084
:10316000BB7159E01C4B93F83A307B711A4B93F8C2
:103170003B30BB7150E0184B93F84B307B71164BD2
:1031800093F84B30BB7147E0134B93F84C307B7195
:10319000114B93F84C30BB713EE00F4B93F84D3020
:1031A0007B710D4B93F84D30BB7135E00A4B93F8B2
:1031B0004E307B71084B93F84E30BB712CE0064BC0
:1031C00093F84F307B71044B93F84F30BB7123E081
:1031D000000000000000F040B8100020DC100020CB
:1031E000F41000201011002000000020DE1000204C
:1031F000F6100020614B93F83C307B715F4B93F8E5
:103200003D30BB7108E05D4B93F83E307B715B4B0A
:1032100093F83F30BB7100BF584B93F84A303B7175
:10322000012387F8373012E0391D07F10803032224
:103230001846FFF73FF8524BD3F8843007F10801E6
:103240000322184600F07CFE034687F8373097F8D3
:103250003730002BE8D14B4B0D934B4B0C934B4B22
:103260000B934B4B0A934B4B09934B4B08934B4B94
:1032700007934B4B06934B4B05934B4B04934B4B94
:1032800003934B4B02934B4B01934B4B00934B4B94
:103290004B4A4C494C4802F017FE384B93F84430E7
:1032A0009AB2374BA3F8A220344B93F847309AB226
:1032B000334BA3F8A420314B93F85030002B4CD162
:1032C000424B1B78002B48D02C4B93F840202C4BC2
:1032D00083F8A620294B93F84120294B83F8A72097
:1032E000264B93F84220264B83F8A820234B93F8D3
:1032F0004320234B83F8A920204B93F84520204BF3
:1033000083F8AA201D4B93F846201D4B83F8AB2071
:103310001A4B93F848201A4B83F8AC20174B93F8BC
:103320004920174B83F8AD20144B1A8D144BA3F88A
:103330009820124B5A8D124BA3F89A200F4B9A8D5E
:103340000F4BA3F89C200D4BDA8D0D4BA3F89E205C
:103350000A4B1A8E0A4BA3F8A020084B93F8502072
:103360001A4B1A70064B1B6F0021184600F0D0FF55
:1033700000BF3C37BD46BDE8F08300BFB810002059
:1033800010110020D0110020C011002008110020D1
:10339000B0110020AE110020AC110020AA110020B5
:1033A000A8110020BD110020BC110020B411002084
:1033B000BB110020BA110020B2110020B911002069
:1033C000B8110020B7110020B611002028130020EA
:1033D00090B583B000AF082003F0B2F9814B824969
:1033E000184603F040F8814B93F83B20804B83F85C
:1033F000A6207E4B93F83C207D4B83F8A7207B4B87
:103400001A8D7B4BA3F89820784B5A8D784BA3F8F4
:103410009A20764B9A8D764BA3F89C20734BDA8DCD
:10342000734BA3F89E20714B1A8E714BA3F8A0200A
:103430006E4B93F83D206E4B83F8A8206B4B93F8AE
:103440003E206B4B83F8A920684B5A8E684BA3F83B
:10345000A220664B93F83F20654B83F8AA20634B6C
:1034600093F84020624B83F8AB20604B9A8E604B00
:10347000A3F8A4205D4B93F841205D4B83F8AC206A
:103480005A4B93F842205A4B83F8AD20594B0022F7
:103490001A70594802F0B8FA554B00225A60544B42
:1034A00000221A70514BD3E90034514AC2E9063464
:1034B0004F48FFF741F94E4B012283F820204C4B37
:1034C00000225A624A4A4FF000034C4CC2E90E34C3
:1034D000474B002283F82020444BD3E90434444A6C
:1034E000C2E90E34464B7B60414B002283F8282012
:1034F0003F4B01225A62102000F0AEF802467B6872
:103500001A61404B0022DA76394B186B3D4BDB7E5B
:103510000022194600F0F4F8354B012283F82820E8
:10352000334B012283F84020314B00225A64304A49
:103530004FF00003314CC2E916342D4B002283F8C2
:1035400040202A4BD3E90234294AC2E916342E4BD3
:103550007B60274B002283F84820254B01225A64C8
:10356000112000F079F802467B681A61254B002291
:10357000DA761F4B186D234BDB7E0022194600F0D4
:10358000BFF81B4B012283F84820194B00229A6791
:10359000174B002283F874201C48FFF703F9144BE3
:1035A000012283F86020124B00225A66104B002241
:1035B00083F86020164B3B600D4B002283F8682097
:1035C0000B4B01225A6601212C2000F0F9FD024626
:1035D0003B681A61064B012283F8682000BF0C3754
:1035E000BD4690BD2C1300202013002000000020B9
:1035F0001011002028130020D01100200000F0BF7F
:1036000030110020B810002050110020841100203B
:103610007011002080B500AF0948FEF7DFFF0948B0
:10362000FFF713F80848FFF710F80848FFF73FF8CE
:10363000074802F0C9FE0748FFF76BF800BF80BDDE
:1036400010110020301100205011002084110020A2
:10365000D01100207011002080B586B000AF7860D6
:1036600026497A6813465B0013449B000B440933D8
:103670001B78002B27D107F10803184605F0AAF99B
:103680000323FB721D497A6813465B0013449B00B9
:103690000B441B6807F108021146184605F0ACF907
:1036A00016497A6813465B0013449B000B440933A8
:1036B00003221A707A6813465B0013449B000F4A7A
:1036C00013447B6115E00D497A6813465B0013448F
:1036D0009B000B4409331B78032B08D17A681346EF
:1036E0005B0013449B00054A13447B6101E0002307
:1036F0007B617B6918461837BD4680BD8804002071
:1037000080B485B000AFF8600B467A60FB7200BFF2
:103710001437BD465DF8047B7047000000000000D0
:1037200090B58BB000AFF860B9601346FB71FB68D1
:10373000FB61FB69002B3AD0FB691B7A3B750023C8
:10374000BB7500237B75FB691B680121184605F0DA
:103750009BF9FB691868FB695B6807F1140219465D
:1037600005F0B2F9FB691A68FB695B6819461046F7
:1037700005F0C6F9FB691A68FB695B6819461046D3
:1037800005F0E2F903467B837B8B07EE903AF8EE77
:10379000677A17EE900AFDF7E7F80DA3D3E9002347
:1037A000FDF73AF903460C46C7E9083405E04FF047
:1037B00000034FF00004C7E90834BA68D7E90834B9
:1037C000C2E9003400BF2C37BD4690BDAFF3008086
:1037D000100010001000F03E80B483B000AF78609D
:1037E00000BF0C37BD465DF8047B704780B483B0E2
:1037F00000AF786000BF0C37BD465DF8047B7047B2
:1038000080B483B000AF786000BF0C37BD465DF870
:10381000047B704780B584B000AFF860B9607A600F
:10382000BB680F2B06D90A4B0A4A40F2E2210A482C
:1038300007F0D0F9FA68BB685B01134403F58053C5
:1038400010337A681A6000BF1037BD4680BD00BFD4
:1038500010D60000FCD700003CD6000080B584B034
:1038600000AFF860B9601346FB71BB680F2B06D937
:103870000C4B0D4A4FF460710C4807F0ABF9BB6874
:103880005B0103F580531833FA681344043303F1E2
:1038900004735B010433FA7992B21A8000BF1037C7
:1038A000BD4680BD10D6000018D800003CD60000F0
:1038B00090B587B000AFF8607A603B600B46FB7252
:1038C00000237B61FB681B68022B00F04D81032BFA
:1038D00000F0DF81012B00F09580954B00221A60EB
:1038E000934B1B68934A52F82330002B41D1904BE5
:1038F0001B68914ADB00134400229A718C4B1B68B1
:103900008D4ADB00134400221A71894B1B688A4AD6
:10391000DB00134400225A71854B1B68864A4FF422
:10392000E13142F83310824B1B68184601F09EF9D2
:103930007F4B1B689B01814A13448149184605F05F
:10394000EDFA7B4B18687A4B1A6813461B019B1AD9
:103950009B007C4A9918764B1B68DB00764A13441F
:103960001A4606F013FB724B1B68724A012142F89B
:1039700023107B68B3F1FF3F20D06D4B1A6872496A
:1039800013469B0013449B000B441B221A60684B98
:103990001A686D4913469B0013449B000B4408337F
:1039A0006A4A1A60624B1A68674913469B001344BF
:1039B0009B000B440C33664A1A6015E05C4B1A6896
:1039C000614913469B0013449B000B4404330322BC
:1039D0001A60574B1A685C4913469B0013449B00BE
:1039E0000B4410335B4A1A60514B1B68504A1268F3
:1039F000594941F823204E4B1B689B00564A1344FB
:103A00007B61DBE14A4B01221A60494B1B68494A42
:103A100052F82330002B41D1454B1B68464ADB004E
:103A2000134400229A71424B1B68434ADB00134443
:103A300000221A713E4B1B683F4ADB0013440022F0
:103A40005A713B4B1B683C4A4FF4E13142F833104A
:103A5000374B1B68184601F009F9354B1B689B0171
:103A6000364A13443649184605F058FA304B186860
:103A70002F4B1A6813461B019B1A9B00314A991859
:103A80002B4B1B68DB002C4A13441A4606F07EFAC7
:103A9000274B1B68274A012142F823107B68B3F1AA
:103AA000FF3F20D0224B1A68274913469B0013443E
:103AB0009B000B4400221A601D4B1A6822491346D2
:103AC0009B0013449B000B440833244A1A60184B94
:103AD0001A681D4913469B0013449B000B440C338A
:103AE0001F4A1A6015E0124B1A68174913469B00CB
:103AF00013449B000B44043300221A600C4B1A68D9
:103B0000114913469B0013449B000B441033154A84
:103B10001A60074B1B68064A12680F4941F82320B8
:103B2000034B1B689B000C4A13447B6146E100BFBA
:103B30003417002038170020541600206C13002082
:103B400048000020EC1400208C16002030130020C8
:103B50004C130020681300201C170020681300205D
:103B6000681300206C130020AD4B02221A60AC4B8E
:103B70001B68AC4A52F82330002B41D1A84B1B687C
:103B8000A94ADB00134400229A71A54B1B68A64A80
:103B9000DB00134400221A71A14B1B68A24ADB0010
:103BA000134400225A719E4B1B689F4A4FF4E13127
:103BB00042F833109A4B1B68184601F057F8984B9F
:103BC0001B689B01994A13449949184605F0A6F9C8
:103BD000934B1868924B1A6813461B019B1A9B0063
:103BE000944A99188E4B1B68DB008F4A13441A467F
:103BF00006F0CCF98A4B1B688A4A012142F823104F
:103C00007B68B3F1FF3F20D0854B1A688A49134681
:103C10009B0013449B000B4400221A60804B1A68DF
:103C2000854913469B0013449B000B440833834A89
:103C30001A607B4B1A68804913469B0013449B0013
:103C40000B440C337E4A1A6015E0754B1A687A49AA
:103C500013469B0013449B000B44043300221A605C
:103C60006F4B1A68744913469B0013449B000B4426
:103C70001033744A1A606A4B1B68694A12687249A9
:103C800041F82320664B1B689B006F4A13447B61FD
:103C900094E0634B03221A60614B1B68614A52F83F
:103CA0002330002B41D15E4B1B685F4ADB0013447D
:103CB00000229A715A4B1B685B4ADB0013440022B6
:103CC0001A71574B1B68584ADB00134400225A7183
:103CD000534B1B68544A4FF4E13142F83310504BB8
:103CE0001B68184600F0C2FF4D4B1B689B014F4AF2
:103CF00013444F49184605F011F9494B1868484BD1
:103D00001A6813461B019B1A9B004A4A9918444B98
:103D10001B68DB00444A13441A4606F037F9404B4F
:103D20001B68404A012142F823107B68B3F1FF3F32
:103D300020D03B4B1A68404913469B0013449B001C
:103D40000B4400221A60364B1A683B4913469B000D
:103D500013449B000B4408333C4A1A60304B1A68EA
:103D6000354913469B0013449B000B440C33384ADF
:103D70001A6015E02A4B1A682F4913469B0013441A
:103D80009B000B44043300221A60254B1A682A4911
:103D900013469B0013449B000B4410332D4A1A60BA
:103DA0001F4B1B681E4A1268274941F823201C4BF1
:103DB0001B689B00244A13447B6100BF7B68B3F1FE
:103DC000FF3F28D0164B1A6813461B019B1A9B0015
:103DD0002833184A1344181D114B1B681A461E49F4
:103DE00005F0DAF80E4B18680D4B1A6812491346A5
:103DF0009B0013449B000B4408331C68084B1A6853
:103E00000D4913469B0013449B000B441B681A4644
:103E1000214600F0DFF87B6918461C37BD4690BD8F
:103E20003417002038170020541600206C1300208F
:103E300048000020EC1400208C160020681300209D
:103E4000681300206C1300201C170020681300204A
:103E5000681300206C1300208140000080B483B000
:103E600000AF78603960002318460C37BD465DF816
:103E7000047B704780B483B000AF78600846114679
:103E80001A460346FB700B46BB7013467B7000233B
:103E900018460C37BD465DF8047B704780B586B088
:103EA00000AFF860B9607A60FB683B613B69002B4A
:103EB00033D03B691B681F4AD35C012B2DD13B6972
:103EC0001B681D4A52F82330012B0FD13B691A6839
:103ED0001A4913469B0013449B000B4408331B688C
:103EE0007A681946B868FEF7E5F90EE03B691A688A
:103EF000124913469B0013449B000B440C331B6870
:103F00007A681946B868FEF7D5F93B691B68094A13
:103F10000021D1540023FB7506E07A680021B868BF
:103F200007F098F92023FB75FB7D18461837BD462E
:103F300080BD00BF84160020041700208C160020CE
:103F400080B586B000AFF860B9607A60FB683B610D
:103F50003B69002B2AD03B691B680021184606F0FC
:103F600057F90346082B21D03B691A6813491346B9
:103F70009B0013449B000B4410331B687A68B9689C
:103F80001846FEF797F93B6918683B691A680B49B0
:103F900013469B0013449B000B4410331B687A6844
:103FA000194606F011F90346FB7501E02023FB7565
:103FB000FB7D18461837BD4680BD00BF8C1600201B
:103FC00080B483B000AF786000BF0C37BD465DF8A9
:103FD000047B704780B588B000AFF860B9607A6044
:103FE000FB68052B06D9214B214A40F28911214853
:103FF00006F0F0FD204AFB6852F82330FB61FB69B4
:1040000093F82C301B09DBB21A461C4B53F82230B4
:10401000BB61FB6993F82C3003F00F037B61FB69F4
:104020005B78DBB2002B01D009231AE0FB69012287
:104030005A70BB681A467969B869FFF7EBFB7A6872
:104040007969B86904F0B2FE01227969B869FFF7AD
:1040500005FC7B69DBB201221946B86904F0A1FDB9
:10406000002318462037BD4680BD00BF74D600002F
:10407000D8D7000094D60000144700203CDF000091
:1040800080B582B000AF78600B46FB707B68184645
:1040900000F004F800BF0837BD4680BD80B586B08B
:1040A00000AF78607B68052B06D93D4B3D4A40F256
:1040B000AD113D4806F08EFD3C4A7B6852F8233036
:1040C0007B617B6993F82C301B09DBB21A46384BB5
:1040D00053F822303B617B6993F82C3003F00F03D7
:1040E000FB600022F9683869FFF7B8FBFB68DBB2B8
:1040F00000221946386904F054FD7B69DB78DBB295
:10410000002B04D07B691033184604F0BDF97B699D
:1041100000225A70274A7B68134401221A70264AEB
:104120007B6852F82330002B1BD124497A68134650
:104130009B0013449B000B440C3318681F497A689A
:1041400013469B0013449B000B441B681A46014610
:104150007868FFF73FFF184A7B68012142F8231077
:104160001AE016497A6813469B0013449B000B44DF
:104170000833186811497A6813469B0013449B0062
:104180000B441B681A4601467868FFF723FF0A4A6A
:104190007B68002142F8231000BF1837BD4680BD60
:1041A00074D6000030D8000094D6000014470020D8
:1041B0003CDF000084160020041700208C1600202D
:1041C00080B590B000AF78600B46FB70FB78002B99
:1041D00027D107F1240300221A605A609A60DA603E
:1041E0001A615A612D4A7B6852F833307B62012391
:1041F00087F82830012387F829304FF0FF333B63DD
:1042000007F12403184605F04BF9244A7B68DB00CC
:10421000134401221A717B68DB00204A1344FB63BC
:1042200036E0FB78012B31D107F10C0300221A6034
:104230005A609A60DA601A615A61184A7B6852F8CB
:104240003330FB6001233B754FF0FF33BB6107F157
:104250000C03184605F094F9104A7B68DB00134400
:1042600002221A717B68292B0AD97B682C2B07D86C
:104270000A4A7B6852F833300121184605F0B8F934
:104280007B68DB00054A1344FB6301E00023FB630A
:10429000FB6B18464037BD4680BD00BF4C00002078
:1042A00080B586B000AF78607B683B613B69002BCE
:1042B0000BD03B691B79012B07D13B691B68184662
:1042C00005F0A4F90346FB7501E00023FB753B698B
:1042D0001B681B0ADBB2FB603B691B68DBB2BB607F
:1042E000FB68022B02D1BB68062B05D0FB68002BB4
:1042F00009D1BB68042B06D1FB7D002B0CBF012329
:104300000023DBB2FB75FB7D18461837BD4680BD28
:1043100080B586B000AF78600B46FB707B687B6130
:104320007B69002B2FD07B691B79022B2BD17B69FA
:104330001B681B0ADBB23B617B691B68DBB2FB605D
:104340003B69012B05D1FB68162B08D0FB68152BA8
:1043500005D03B69042B0FD1FB681A2B0CD17B696C
:104360001A68FB78012B14BF01230023DBB2194626
:10437000104605F03DF906E07B691B68FA781146A6
:10438000184605F035F900BF1837BD4680BD80B42A
:1043900085B000AF78607B68FB60FB68002B0ED0B7
:1043A000FB681B79022B03D1FB6800221A7106E01F
:1043B000FB681B79012B02D1FB6800221A7100BF38
:1043C0001437BD465DF8047B704780B400AFFEE74C
:1043D00080B483B000AF78607B68013B032B0BD8BF
:1043E00001A252F823F000BFF9430000F943000096
:1043F000F9430000F943000000BFFEE77047704733
:104400000020002104460D46084806F001FC06F095
:1044100049FC2046294602F0C9FB0548002102F06C
:10442000F9FC02F053FC06F0FFFB000049AC000071
:1044300094D8000080B584B000AFF860B96013462E
:10444000FB71BB681F2B05D90D4B0E4AFF210E488F
:1044500006F0C0FBFB68BA6853F8223023F0807383
:1044600023F4E063FA79120202F4E06243EA020103
:10447000FB68BA6843F8221000BF1037BD4680BD04
:10448000FCD60000BCD8000008D7000080B483B080
:1044900000AF78600B46FB707B68FA781A7000BF3B
:1044A0000C37BD465DF8047B7047000080B584B0D2
:1044B00000AF3B4600221A605A609A60DA60064BF1
:1044C0003B6002237B723B461946002004F0D8F87B
:1044D00000BF1037BD4680BD80F0FA0280B584B0C1
:1044E00000AF074A3B1D07CA83E807003B1D19467A
:1044F000002004F013F900BF1037BD4680BD00BF97
:1045000040D7000080B500AF2A210848FFF7BEFF62
:10451000002212210648FFF78DFFFFF7C7FFFFF7C4
:10452000DDFF044804F04EF900BF80BD00E0074005
:1045300000900440A4D8000080B582B000AF78603D
:10454000034800F0A0FA00BF0837BD4680BD00BF99
:104550004846002098B500AF094B0A4A1A600A4B3A
:104560000A4A1C1D13460FCB84E80F0000F0E1FA45
:104570000246054B1A60064B034A1A6000BF98BDFD
:1045800048460020504600202846002094D80000CD
:104590004046002080B586B002AF87ED010A386042
:1045A0000223FB60FFF7D6FF164800F05CFA0346D3
:1045B000BB60154800F057FA0346BB600023009328
:1045C0000023FA681149124800F08AFA0346BB60DA
:1045D0000023104A0121104800F0C3FA0346BB60D3
:1045E000D7ED017A9FED0D7A67EE877AFCEEE77AD8
:1045F00017EE901A084800F0DBFA00BF1037BD46EE
:1046000080BD00BF484600204046002021460000F3
:1046100050460020394500000446002000007A443E
:1046200080B586B000AF7861184B1B681B68002B03
:104630000CBF01230023DBB21A46154B1A7011E0A0
:104640003B461449184600F031FAFEF7E1F80F4BEB
:104650001B681B68002B14BF01230023DBB21A4622
:104660000D4B1A700A4B1B78DBB2002BE8D1084BBC
:1046700000221A70786900F011F8002000F060FA4A
:10468000002318461837BD4680BD00BFD4D70000B0
:104690004A000020484600203C46002080B582B0F9
:1046A00000AF7860074B01221A60074B00221A7096
:1046B000FEF7B0FF054800F0E6F90023184608377A
:1046C000BD4680BD644600204A00002040460020D0
:1046D00080B586B000AF7861396100F013FD00F05D
:1046E000BCF80A4B1B6800221A60FEF771FE00201E
:1046F0009FED070AFFF74EFF3B460649184600F0BC
:10470000D5F9002318461837BD4680BDD4D7000020
:104710006F12833A4046002080B500AF002004F0BD
:1047200077FC00BF80BD80B500AF012004F070FCB5
:1047300000BF80BD80B500AF022004F069FC00BF5F
:1047400080BD80B500AF032004F062FC00BF80BDD7
:1047500080B500AF042004F05BFC00BF80BD80B5D5
:1047600000AF052004F054FC00BF80BD80B500AF51
:10477000062004F04DFC00BF80BD80B500AF0720CF
:1047800004F046FC00BF80BD80B500AF082004F0F7
:104790003FFC00BF80BD80B500AF092004F038FCAD
:1047A00000BF80BD80B500AF0A2004F031FC00BF1F
:1047B00080BD80B500AF0B2004F02AFC00BF80BD97
:1047C00080B500AF0C2004F023FC00BF80BD80B595
:1047D00000AF0D2004F01CFC00BF80BD80B500AF11
:1047E0000E2004F015FC00BF80BD80B500AF0F2087
:1047F00004F00EFC00BF80BD80B500AF002004F0C7
:104800001FFC00BF80BD80B500AF002005F0A8FAF6
:1048100000BF80BD80B500AF012005F0A1FA00BF48
:1048200080BD80B500AF022005F09AFA00BF80BDC0
:1048300080B500AF032005F093FA00BF80BD80B5BE
:1048400000AF042005F08CFA00BF80BD80B500AF3A
:10485000052005F085FA00BF80BD80B582B000AFAD
:1048600003F04CFE0023FB7106E0FB79184604F0D0
:1048700031F8FB790133FB71FB79042BF5D9FFF794
:1048800041FE00BF0837BD4680BD80B400AFFEE7E3
:1048900080B400AFFEE780B400AFFEE780B400AFA5
:1048A000FEE780B400AFFEE780B400AFFEE780B45F
:1048B00000AFFEE780B400AFFEE780B400AFFEE7D4
:1048C00080B400AFFEE780B400AFFEE780B400AF75
:1048D000FEE780B400AFFEE780B400AFFEE780B42F
:1048E00000AFFEE780B400AFFEE780B400AFFEE7A4
:1048F00080B400AFFEE780B400AFFEE780B400AF45
:10490000FEE780B400AFFEE780B400AFFEE780B4FE
:1049100000AFFEE780B400AFFEE780B400AFFEE773
:1049200080B400AFFEE780B400AFFEE780B400AF14
:10493000FEE780B400AFFEE780B400AFFEE780B4CE
:1049400000AFFEE780B400AFFEE780B400AFFEE743
:1049500080B400AFFEE780B400AFFEE780B400AFE4
:10496000FEE780B400AFFEE780B400AFFEE780B49E
:1049700000AFFEE780B400AFFEE780B400AFFEE713
:1049800080B400AFFEE780B400AFFEE780B400AFB4
:10499000FEE780B400AFFEE780B400AFFEE780B46E
:1049A00000AFFEE780B400AFFEE780B400AFFEE7E3
:1049B00080B400AFFEE780B400AFFEE780B400AF84
:1049C000FEE780B400AFFEE780B400AFFEE780B43E
:1049D00000AFFEE780B400AFFEE780B400AFFEE7B3
:1049E00080B400AFFEE780B400AFFEE780B400AF54
:1049F000FEE784B080B582B000AF07F1100C8CE800
:104A00000F003B69796A184602F056FC03467B604A
:104A10007B6818460837BD46BDE8804004B0704743
:104A200084B080B500AF07F1080C8CE80F00BB68BC
:104A3000F969184602F060FC03461846BD46BDE819
:104A4000804004B0704780B582B000AF78603960B4
:104A50007B684FF0FF323968184602F05BFC7868DB
:104A60000837BD4680BD80B485B000AF78607B68F4
:104A700001225A600123FB60FB6818461437BD46CB
:104A80005DF8047B704780B584B002AF78607B68C6
:104A90001B687A68526801921A6900920FCBFFF77F
:104AA000A8FF034618460837BD4680BD80B584B0D0
:104AB00002AF786039603B681B683A6852680192BF
:104AC0001A6900920FCBFFF7ABFF3B685A687B680F
:104AD00011461846FFF7B7FF78680837BD4680BD16
:104AE00080B586B000AFF860B9607A603B60FB6863
:104AF000BA685A60FB687A689A60FB680122DA60DB
:104B00003A68FB681A61FB680433396A184602F098
:104B100081F90246FB681A60FB681B68002B14BF12
:104B200001230023DBB27B617B6918461837BD4641
:104B300080BD80B500AF02F0BBF90346184680BDCA
:104B400080B584B000AF786002F0B2F90346FB6034
:104B5000F86802F0B9F90346BB6000BF1037BD46E4
:104B600080BD80B586B000AFF8607A603B600B46D0
:104B7000FB72FB6803F10C02FB689A60FB687A68C1
:104B80005A60FB680433F97A3A68184602F090FAE2
:104B90000246FB681A60FB681B68002B14BF0123E8
:104BA0000023DBB27B617B6918461837BD4680BDA8
:104BB00080B584B000AF786039607B681B68396865
:104BC000184602F0A7FA0346FB60FB681846103748
:104BD000BD4680BD80B584B000AFF860B9601346B3
:104BE000FB71BB681F2B05D90D4B0E4AFF210E48E8
:104BF00005F0F0FFFB68BA6853F8223023F08073A9
:104C000023F4E063FA79120202F4E06243EA02015B
:104C1000FB68BA6843F8221000BF1037BD4680BD5C
:104C20004CD70000D0D8000058D7000080B483B023
:104C300000AF78600B46FB707B6803F58153083347
:104C4000FA785209D2B29200134403F10473DA00E5
:104C5000FB7803F01F0313449B001A4601231360E3
:104C600000BF0C37BD465DF8047B704780B584B04B
:104C700000AF786089215D48FFF7D8FF8A215B4843
:104C8000FFF7D4FF8B215948FFF7D0FF8C215748FD
:104C9000FFF7CCFF8D215548FFF7C8FF7B68032B3A
:104CA00000F2968001A252F823F000BFBD4C000034
:104CB0002F4D0000594D0000834D00000023FB6084
:104CC0000023BB60FB68002B05D10322112148485B
:104CD000FFF780FF10E0FB68012B05D103220221C2
:104CE0004448FFF777FF07E0FB68022B04D103225B
:104CF00007214148FFF76EFFBB68002B05D1032257
:104D000010213B48FFF766FF64E0BB68012B05D12B
:104D1000032201213748FFF75DFF5BE0BB68022BF0
:104D200058D1032206213448FFF754FF52E00023F4
:104D3000FB600023BB60FB68002B04D1032204212D
:104D40002E48FFF747FFBB68002B45D10322032104
:104D50002A48FFF73FFF3FE00023FB600023BB60D2
:104D6000FB68002B04D1032203212348FFF732FF05
:104D7000BB68002B32D1032202211F48FFF72AFF14
:104D80002CE00023FB600023BB60FB68002B05D1F7
:104D9000032211211948FFF71DFF07E0FB68012BD3
:104DA00004D103220B211248FFF714FFBB68002B2C
:104DB00005D1032210211148FFF70CFF10E0BB685A
:104DC000012B0DD103220A210948FFF703FF07E059
:104DD00000BF06E000BF04E000BF02E000BF00E04B
:104DE00000BF00BF1037BD4680BD00BF007004404B
:104DF00000A004400090044000C0044000B0044003
:104E000080B584B000AF7860114B1B68002B02D1D5
:104E10000F4B104A1A600E4B1B68FB600C4B1A6854
:104E20007B6813440C4A934207D905F0F7FE02460B
:104E30000C2313604FF0FF3306E0054B1A687B68C4
:104E40001344034A1360FB6818461037BD4680BD03
:104E5000684600200000FF1F0000002080B489B0D9
:104E600000AF284BFB60284A284B9A4216D00023FB
:104E7000FB610AE0254AFB6952F823202249FB69BD
:104E800041F82320FB690133FB61FB689B08FA6949
:104E90009A42EFD31E4B1C4A9A6002E01C4B1B4AFD
:104EA0009A601C4BBB611C4B7B611C4BBB60BA689E
:104EB0007B69D31AFB6107E07A69531C7B61BB698C
:104EC000591CB96112781A70FB695A1EFA61002BDD
:104ED000F2D1134B3B61134B7B607A683B69D31A69
:104EE000FB6104E03B695A1C3A6100221A70FB69BD
:104EF0005A1EFA61002BF5D100BF2437BD465DF87C
:104F0000047B70470000000000000000000000006B
:104F100000ED00E0000000205CF00000F400010063
:104F2000981000200848002080B400AF6B4BD3F8E5
:104F300088306A4A43F47003C2F88830684B4CF2F8
:104F40002052DA81664B4DF62812DA81644B4FF419
:104F5000E9721A80634B1B78DBB203F00103002B6C
:104F60000FD0614B9B78DBB203F00803002B2ED0EF
:104F70005D4B9B78DBB25C4A43F00803DBB2937075
:104F800025E05A4B03F581531C331B68574943F006
:104F9000005201F581531C331A60554B1B6903F411
:104FA0008073002B13D1524B1B6923F47C53504A5E
:104FB00043F4407313614E4B1B694D4A43F48073B5
:104FC00013614B4B1B694A4A23F400731361494B2D
:104FD0002A221A70454B03F5825304334FF08A722C
:104FE0001A60424B1B6823F44023404A43F40023D9
:104FF00013603E4B03F5805304331B6823F44033A6
:105000003A4943F4803201F5805304331A60374B38
:1050100003F5815318331B68344943F4007201F5DA
:10502000815318331A60344B9B6C334A23F08073DE
:1050300023F4E0639364314B00221A722F4B5B78A8
:10504000DBB223F06003DBB22C4A43F02003DBB277
:1050500053702B4B80221A70284B00221A73274B57
:10506000BA221A7000BF254B9B79DBB203F0100304
:10507000002BF8D1214BDB78DBB2204A03F01F0371
:10508000DBB2D3701D4B13221A711C4B18225A71BC
:105090001A4B5B79DBB2194A43F04003DBB2537120
:1050A00000BF164B9B79DBB203F04003002BF8D016
:1050B000124B1B78DBB2114A03F03F03DBB21370D3
:1050C00000BF0E4B9B79DBB203F00C030C2BF8D125
:1050D00000BFBD465DF8047B704700BF00ED00E0F7
:1050E0000020054000F0074000D007400070044059
:1050F00000D0034000E0074000900440004006401C
:105100000050064080B483B000AF964B1B78DBB2F2
:1051100003F0C003002B40F0D280924B5B79DBB2EE
:1051200003F04003002B40F0AD808E4B1B78DBB2C8
:1051300003F00403002B4ED18A4B1B7BDBB203F040
:105140000303002B02D0012B03D006E0864B7B60CB
:1051500006E04FF400437B6002E0844B7B6000BFBD
:10516000804B5B78DBB203F03003002B23D07D4B08
:105170001B7BDBB203F00303012B1CD0794B1B78A4
:10518000DBB203F03803302B05D0382B07D14FF4B6
:10519000C0637B800EE04FF4A0637B800AE0714B1C
:1051A0001B78DBB2DB0803F00703202202FA03F3CB
:1051B0007B8000BF09E06B4B1B78DBB2DB0803F0A0
:1051C0000703012202FA03F37B807B887A68B2FB33
:1051D000F3F37B6002E04FF400437B60614BDB78CC
:1051E000DBB203F0E003602B29D0602B06D8202B24
:1051F00017D0402B1CD0002B0CD09DE0A02B2CD026
:10520000A02B02D8802B21D096E0C02B2CD0E02BF5
:1052100031D091E07A6813469B001344DB017B6038
:105220008AE07A6813469B0013441B027B6083E08C
:105230007A6813461B019B1ADB017B607CE07A686D
:1052400013469B0013445B027B6075E07B684FF460
:10525000377202FB03F37B606EE07B684FF4B7624A
:1052600002FB03F37B6067E07B6840F6950202FB7C
:1052700003F37B6060E07B6840F6713202FB03F36E
:105280007B6059E0374B1B79DBB29BB203F01F0305
:105290009BB201337B807B88334AB2FBF3F37B60A4
:1052A000304B5B79DBB29BB203F01F039BB2183328
:1052B0007B807A887B6802FB03F37B603CE0294BB0
:1052C0001B78DBB203F0C003402B1AD1254B5B786F
:1052D000DBB203F00103002B03D14FF400437B60EA
:1052E0002AE0204B1B7ADBB25B0803F007030122A4
:1052F00002FA03F37B807B881D4AB2FBF3F37B60E9
:105300001AE0184B1B78DBB203F0C003802B22D1CC
:10531000144B1B7BDBB203F00303002B02D0012BE9
:1053200003D006E0104B7B6006E04FF400437B6047
:1053300002E00E4B7B6000BF0E4B03F5825304333B
:105340001B681B0F03F00F0301337A68B2FBF3F302
:10535000094A136000E000BF0C37BD465DF8047BCE
:10536000704700BF0040064080F0FA02006CDC028B
:1053700000093D0000700440C806002080B487B0DA
:1053800000AFF860B9607A603B60BB6D93F83B3169
:10539000013B0D2B00F2578201A252F823F000BF0F
:1053A000D953000061540000BB540000ED540000CC
:1053B0001955000083550000B75500006B560000DA
:1053C00089560000D15600000957000035570000EB
:1053D000BD57000015580000BB6D072283F83B2124
:1053E000BB6D93F84A217B6DDA70BB6D93F84A214F
:1053F0007B6D1A71BB6D93F84B217B6D5A71BB6D40
:1054000093F84B217B6D1A72BB6D93F84B217B6D2A
:105410005A72BB6D93F84B217B6D9A713B6C1A8865
:10542000BB6DA3F83421FB6B1A78BB6D93F84A313E
:105430009A4240F03782BB6DB3F834311A46FB6CA8
:105440001B8813447B617B69B3F5803F02D34FF621
:10545000FF737B617B699AB2BB6DA3F8342121E2B3
:105460003B681B78002B11D1BB6DD3F83031BA6D7E
:10547000B2F83421934209D3BB6D082283F83B2153
:10548000BB6D93F84A217B6DDA720DE23B681B78A5
:10549000012B40F00982BB6D052283F83B21BB6DD7
:1054A0000022C3F83021BB6D93F84A217B6DDA727C
:1054B000BB6B1A787B6D5A70F6E1BB6D092283F8DD
:1054C0003B21BB6D93F84B217B6DDA71BB6D93F87B
:1054D0004B217B6D1A72BB6D93F84B217B6D5A7219
:1054E000BB6D93F84B217B6D9A72EAE1BB6DD3F8EB
:1054F00030317A6B12889342C0F0D881BB6D0022A4
:1055000083F83B21BB6D012283F83921BB6D93F8F1
:105510004B213B6D1A70C9E1BB6DD3F83031BA6DC8
:10552000B2F83421934209D3BB6D082283F83B21A2
:10553000BB6D93F84A217B6DDA72B9E13B6A1B7847
:10554000022B40F0B581BB6DD3F83031BA6C1288B4
:105550009342C0F0AD81BB681A78BB6D93F84A31B5
:105560009A4240F0A581BB6D002283F83B21BB6DC0
:10557000012283F83921BB6D93F84B213B6D1A70E2
:1055800096E17B681B78012B0BD0022B00D098E1B1
:10559000BB6D0C2283F83B217B6A1A787B6D1A70F5
:1055A00008E0BB6D012283F83B213B6B1A787B6DD1
:1055B0001A7000BF85E17B681B78012B02D0022B9B
:1055C00029D07EE1BB6D022283F83B21BB6D002216
:1055D000C3F83021BB6D93F84A217B6DDA71BB6D46
:1055E00093F84B217B6D9A72BB6DB3F834311A4638
:1055F0007B6B1B88D31A7B61BB6DB3F834311A46C1
:105600007B69934201D900237B617B699AB2BB6DB0
:10561000A3F8342128E0BB6D0D2283F83B21BB6D3C
:105620000022C3F83021BB6D93F84B217B6DDA71FA
:10563000BB6D93F84A217B6D9A72BB6DB3F8343120
:105640001A46BB6A1B88D31A7B61BB6DB3F8343131
:105650001A467B69934201D900237B617B699AB228
:10566000BB6DA3F8342100BF2BE1BB6D0A2283F888
:105670003B21BB6D93F84B217B6DDA70BB6D93F8CA
:105680004A217B6D1A711CE17B681B78012B10D0BD
:10569000022B00D015E1BB6D0B2283F83B21BB6DC3
:1056A0000022C3F83021BB6D93F84A217B6D5A71FB
:1056B0000DE0BB6D042283F83B21BB6D0022C3F8D3
:1056C0003021BB6D93F84A217B6D9A7100BFF8E0E1
:1056D0007B681B78012B0CD0022B00D0F1E0BB6D56
:1056E0000E2283F83B21BB6D93F84B217B6D9A71A1
:1056F00009E0BB6D032283F83B21BB6D93F84B217E
:105700007B6D5A7100BFDCE0BB6DD3F83031BA6AF3
:1057100012889342C0F0CE80BB6D002283F83B21FB
:10572000BB6D012283F83921BB6D93F84B213B6D92
:105730001A70BFE0BB6D072283F83B21BB6D93F865
:105740004A217B6DDA70BB6D93F84A217B6D1A712B
:10575000BB6D93F84B217B6D5A71BB6D93F84B2158
:105760007B6D1A72BB6D93F84B217B6D5A72BB6DCA
:1057700093F84B217B6D9A713B6C1A88BB6DA3F833
:105780003421FB6B1A78BB6D93F84A319A4240F092
:105790009380BB6DB3F834311A46FB6C1B881344FD
:1057A0007B617B69B3F5803F02D34FF6FF737B616A
:1057B0007B699AB2BB6DA3F834217DE03B681B780E
:1057C000022B11D1BB6D0F2283F83B21BB6D002250
:1057D000C3F83021BB6D93F84A217B6DDA72FB6A06
:1057E0001A787B6D9A7069E03B681B78002B65D155
:1057F000BB6DD3F83031BA6DB2F8342193425DD32A
:10580000BB6D082283F83B21BB6D93F84A217B6D69
:10581000DA7253E0BB6D092283F83B21BB6D93F82C
:105820004B217B6DDA71BB6D93F84B217B6D1A7246
:10583000BB6D93F84B217B6D5A72BB6D93F84B2176
:105840007B6D9A723DE0BB6DD3F83031BA6DB2F822
:105850003421934209D3BB6D082283F83B21BB6DF1
:1058600093F84A217B6DDA722AE03B6A1B78022B9F
:1058700026D1FB681B78002B22D0BB6DD3F83031CA
:105880007A6C128893421BD3BB6D002283F83B21B4
:10589000BB6D012283F83921BB6D93F84B213B6D21
:1058A0001A700DE000BF0CE000BF0AE000BF08E086
:1058B00000BF06E000BF04E000BF02E000BF00E060
:1058C00000BF00BF1C37BD465DF8047B704700BFBA
:1058D00080B582B000AF78607B685B68012B08D12F
:1058E0007B681B7A002B04D07B681B691846FEF787
:1058F0004EFD00BF0837BD4680BD80B582B000AF09
:1059000078607868FFF7E4FF00BF0837BD4680BDC8
:1059100080B582B000AF78607B681B78002B05D122
:105920007B6801221A707868FFF7E7FF00BF08372D
:10593000BD4680BD80B582B000AF78607B685B6893
:10594000012B08D17B681B7A002B04D07B681B6974
:105950001846FEF71CFD00BF0837BD4680BD80B568
:1059600082B000AF78607868FFF7E4FF00BF0837C7
:10597000BD4680BD80B582B000AF78607B681B7883
:10598000002B05D17B6801221A707868FFF7E7FFCA
:1059900000BF0837BD4680BD80B582B000AF7860DB
:1059A0007B685B68012B0DD17B681B7A002B09D0CB
:1059B0007B681B69184600F0A3FE7B681B691846CC
:1059C00000F0B4FE00BF0837BD4680BD80B582B090
:1059D00000AF78607868FFF7DFFF00BF0837BD468B
:1059E00080BD80B582B000AF78607B681B78002BEB
:1059F00005D17B6801221A707868FFF7E7FF00BFC6
:105A00000837BD4680BD000090B587B000AF786014
:105A10007B68012283F84A217B6801221A707B6827
:105A200000225A607A684FF00003BD4CC2E9063488
:105A30007B6800221A707B68012283F83C21B94BF5
:105A4000D3E902347A68C2E906347B687B617B68FB
:105A500000221A727B6801225A6000210020FEF7A2
:105A6000AFFB02467B691A617B6801221A727B6870
:105A7000012283F820207B6800225A627A684FF066
:105A80000003A74CC2E90E347B68002283F8202073
:105A90007B68012283F83D21A24BD3E900347A6868
:105AA000C2E90E347B6820337B617B68002283F877
:105AB00028207B6801225A6200210120FEF780FB2A
:105AC00002467B691A617B68012283F828207B6883
:105AD000012283F840207B6800225A647B68002200
:105AE00083F840207B68012283F83E217B684033A5
:105AF0003B617B68002283F848207B6801225A645E
:105B000001210220FEF75CFB02463B691A617B68BB
:105B1000012283F848207B68012283F854207B68A7
:105B200000229A657B68002283F854207B6801225A
:105B300083F83F217B6854333B617B68002283F804
:105B40005C207B6801229A6501210A20FEF738FB60
:105B500002463B691A617B68012283F85C207B68FE
:105B6000012283F8F4207B680022C3F8F8207B68C8
:105B7000002283F8F4207B68012283F840217B68AF
:105B8000F433FB607B68002283F8FC207B680122F1
:105B9000C3F8F8209FED5E1B9FED5F0B052000F022
:105BA000B5FC0246FB681A617B68D3F804311846DD
:105BB00000F05EFD7B68012283F8FC207B680122F7
:105BC00083F868207B680022DA667B68002283F80D
:105BD00068207B68012283F841217B6868333B6140
:105BE0007B68002283F870207B680122DA6601213D
:105BF0000920FEF7E5FA02463B691A617B6801223B
:105C000083F870207B68012283F87C207B68002267
:105C1000C3F880207B68002283F87C207B68012207
:105C200083F842217B687C333B617B68002283F8E8
:105C300084207B680122C3F8802001210820FEF720
:105C4000BFFA02463B691A617B68012283F884200F
:105C50007B68012283F890207B680022C3F894209F
:105C60007B68002283F890207B68012283F843211F
:105C70007B6890333B617B68002283F898207B68C7
:105C80000122C3F8942001210B20FEF799FA024665
:105C90003B691A617B68012283F898207B680122A6
:105CA00083F8A4207B680022C3F8A8207B68002228
:105CB00083F8A4207B68012283F844217B68A43305
:105CC0003B617B68002283F8AC207B680122C3F82B
:105CD000A82001210420FEF773FA02463B691A61ED
:105CE0007B68012283F8AC207B68012283F8B8200E
:105CF0007B680022C3F8BC207B68002283F8B820B0
:105D00007B68012283F845210EE000BFAFF30080DD
:105D100000000000000000000000000000409F4064
:105D20000000F0BFD00600207B68B8333B617B6881
