:1000000000000020F5040000275B00002D5B0000CD
:10001000335B0000395B00003F5B00000000000024
:100020000000000000000000000000006505000066
:10003000455B0000000000000B0600006B0600009E
:10004000B5590000C3590000D1590000DF59000024
:10005000ED590000FB590000095A0000175A000032
:10006000255A0000335A0000415A00004F5A000040
:100070005D5A00006B5A0000795A0000875A000050
:10008000955A00004B5B0000515B0000575B00007D
:100090005D5B0000635B0000695B00006F5B00005C
:1000A000755B00007B5B0000815B0000875B0000EC
:1000B0008D5B0000935B0000995B0000A35A000079
:1000C0009F5B0000B15A0000A55B0000BF5A000012
:1000D000AB5B0000CD5A0000B15B0000B75B0000D5
:1000E000BD5B0000C35B0000C95B0000CF5B00008C
:1000F000D55B0000DB5B0000E15B0000E75B00001C
:1001000005050000050500000505000005050000C7
:10011000ED5B0000F35B0000F95B0000FF5B00009B
:10012000055C00000B5C0000115C0000175C000027
:100130001D5C0000235C0000295C00002F5C0000B7
:10014000355C00003B5C0000DB5A0000415C0000B5
:10015000E95A0000475C00004D5C0000535C000061
:10016000595C00005F5C0000655C00006B5C000097
:10017000715C0000775C00007D5C0000835C000027
:10018000895C00000505000005050000050500006C
:100190000505000005050000050500000505000037
:1001A0000505000005050000050500000505000027
:1001B0000505000005050000050500000505000017
:1001C0000505000005050000050500000505000007
:1003F000050500000505000005050000FFFFFFFFE3
:10040000FFFFFFFFFFFFFFFFFFFFFFFFFEFFFFFFFD
:1004400010B5054C237833B9044B13B10448AFF30E
:1004500000800123237010BD9810002000000000D0
:1004600008E8000008B5034B1BB103490348AFF38C
:10047000008008BD000000009C10002008E800007B
:10048000154B002B08BF134B9D46A3F5803A002166
:100490008B460F461348144A121A0AF047FE0F4BB8
:1004A000002B00D098470E4B002B00D0984700201F
:1004B000002104000D000D48002802D00C480AF06D
:1004C00013FB0AF05BFB2000290005F04FFA0AF04D
:1004D00017FB00BF00000800000000200000000023
:1004E0009D56000098100020CC470020E9AA00008B
:1004F00021AB000072B605F0E9FF05F081FF62B69E
:10050000FFF7BEFFFFF7FEBF80F309887047EFF3E8
:1005100009807047684680F309885A480078C00708
:1005200014BF0220032080F314887047DFF858C1FD
:10053000EFF305831B0618BF6047EFF31483DB0757
:1005400008BF604700DF7047DFF840C1EFF3058365
:100550001B0618BF6047EFF31483DB0708BF604733
:1005600000DF7047EFF30980816911F8021CE1BBDD
:1005700090E80F1010B5E047BDE81040EFF3098C8C
:100580008CE80700424B93E80600914208BF704791
:1005900041B91EF0100F16D13E49086820F0010045
:1005A000086010E01EF0100F06BF2CED108A01202D
:1005B000002081F825002CE9F00FC1F828C00CB408
:1005C00007F062FB0CBC1A60D2F828C0BCE8F00F40
:1005D00092F8250000280EBF6FF0020E6FF0120E89
:1005E000BCEC108A8CF30988704710B52A4A12684F
:1005F000914209D8294C54F8214090E80F10A047A7
:10060000EFF3098C8CE80F0010BD10B507F0C0FAAD
:10061000BDE810401E4B93E80600914208BF7047AA
:10062000EFF3098C1EF0100F06BF2CED108A01208D
:10063000002081F825002CE9F00FC1F828C00CB487
:1006400007F022FB0CBC1A60D2F828C0BCE8F00FFF
:1006500092F8250000280EBF6FF0020E6FF0120E08
:10066000BCEC108A8CF30988704710B507F0EEFADD
:10067000FFF7CEBF10B507F0E7FA07F0E7FAFFF78C
:10068000C7BF00004CD70000157500003175000091
:100690006847002034EF00E000000000FCFFFFFF8F
:1006A00081F0004102E000BF83F0004330B54FEA23
:1006B00041044FEA430594EA050F08BF90EA020F90
:1006C0001FBF54EA000C55EA020C7FEA645C7FEA23
:1006D000655C00F0E2804FEA5454D4EB5555B8BF46
:1006E0006D420CDD2C4480EA020281EA030382EAB7
:1006F000000083EA010180EA020281EA0303362D49
:1007000088BF30BD11F0004F4FEA01314FF4801C1B
:100710004CEA113102D0404261EB410113F0004F2D
:100720004FEA03334CEA133302D0524263EB4303E4
:1007300094EA050F00F0A780A4F10104D5F1200E82
:100740000DDB02FA0EFC22FA05F2801841F10001DD
:1007500003FA0EF2801843FA05F359410EE0A5F1B1
:1007600020050EF1200E012A03FA0EFC28BF4CF0E2
:10077000020C43FA05F3C01851EBE37101F0004598
:1007800007D54FF0000EDCF1000C7EEB00006EEBA5
:100790000101B1F5801F1BD3B1F5001F0CD349082F
:1007A0005FEA30004FEA3C0C04F101044FEA445286
:1007B00012F5800F80F09A80BCF1004F08BF5FEA0D
:1007C000500C50F1000041EB045141EA050130BDED
:1007D0005FEA4C0C404141EB010111F4801FA4F190
:1007E0000104E9D191F0000F04BF01460020B1FAE5
:1007F00081F308BF2033A3F10B03B3F120020CDA1D
:100800000C3208DD02F1140CC2F10C0201FA0CF0FA
:1008100021FA02F10CE002F11402D8BFC2F1200C5F
:1008200001FA02F120FA0CFCDCBF41EA0C01904015
:10083000E41AA2BF01EB0451294330BD6FEA04045E
:100840001F3C1CDA0C340EDC04F11404C4F1200249
:1008500020FA04F001FA02F340EA030021FA04F35B
:1008600045EA030130BDC4F10C04C4F1200220FAB2
:1008700002F001FA04F340EA0300294630BD21FAF0
:1008800004F0294630BD94F0000F83F4801306BFB6
:1008900081F480110134013D4EE77FEA645C18BFAA
:1008A0007FEA655C29D094EA050F08BF90EA020F41
:1008B00005D054EA000C04BF1946104630BD91EA39
:1008C000030F1EBF0021002030BD5FEA545C05D13C
:1008D0004000494128BF41F0004130BD14F580047B
:1008E0003CBF01F5801130BD01F0004545F0FE41EF
:1008F00041F470014FF0000030BD7FEA645C1ABF24
:10090000194610467FEA655C1CBF0B46024650EA5A
:10091000013406BF52EA033591EA030F41F4002186
:1009200030BD00BF90F0000F04BF0021704730B50C
:100930004FF4806404F132044FF000054FF00001E1
:1009400050E700BF90F0000F04BF0021704730B5A2
:100950004FF4806404F1320410F0004548BF404277
:100960004FF000013EE700BF42004FEAE2014FEACC
:1009700031014FEA02701FBF12F07F4393F07F4FA7
:1009800081F06051704732F07F4208BF704793F0AA
:100990007F4F04BF41F40021704730B54FF46074BD
:1009A00001F0004521F000411CE700BF50EA0102C0
:1009B00008BF704730B54FF000050AE050EA010269
:1009C00008BF704730B511F0004502D5404261EBD9
:1009D00041014FF4806404F132045FEA915C3FF41A
:1009E000D8AE4FF003025FEADC0C18BF03325FEAB7
:1009F000DC0C18BF033202EBDC02C2F1200300FA68
:100A000003FC20FA02F001FA03FE40EA0E0021FA8C
:100A100002F11444BDE600BF70B54FF0FF0C4CF47A
:100A2000E06C1CEA11541DBF1CEA135594EA0C0F2C
:100A300095EA0C0F00F0DEF82C4481EA030621EA67
:100A40004C5123EA4C5350EA013518BF52EA0335A2
:100A500041F4801143F4801338D0A0FB02CE4FF054
:100A60000005E1FB02E506F00042E0FB03E54FF084
:100A70000006E1FB03569CF0000F18BF4EF0010E7C
:100A8000A4F1FF04B6F5007F64F5407404D25FEA78
:100A90004E0E6D4146EB060642EAC62141EA55512B
:100AA0004FEAC52040EA5E504FEACE2EB4F1FD0C6D
:100AB00088BFBCF5E06F1ED8BEF1004F08BF5FEAEB
:100AC000500E50F1000041EB045170BD06F000469D
:100AD00046EA010140EA020081EA0301B4EB5C044A
:100AE000C2BFD4EB0C0541EA045170BD41F4801142
:100AF0004FF0000E013C00F3AB8014F1360FDEBF67
:100B0000002001F0004170BDC4F10004203C35DA42
:100B10000C341BDC04F11404C4F1200500FA05F3C5
:100B200020FA04F001FA05F240EA020001F0004266
:100B300021F0004110EBD37021FA04F642EB0601DC
:100B40005EEA430E08BF20EAD37070BDC4F10C0406
:100B5000C4F1200500FA04F320FA05F001FA04F2CA
:100B600040EA020001F0004110EBD37041F10001B6
:100B70005EEA430E08BF20EAD37070BDC4F12005C1
:100B800000FA05F24EEA020E20FA04F301FA05F229
:100B900043EA020321FA04F001F0004121FA04F2D1
:100BA00020EA020000EBD3705EEA430E08BF20EAA1
:100BB000D37070BD94F0000F0FD101F000464000DB
:100BC00041EB010111F4801F08BF013CF7D041EA5D
:100BD000060195F0000F18BF704703F00046520061
:100BE00043EB030313F4801F08BF013DF7D043EA32
:100BF0000603704794EA0C0F0CEA135518BF95EAE8
:100C00000C0F0CD050EA410618BF52EA4306D1D16E
:100C100081EA030101F000414FF0000070BD50EA8D
:100C2000410606BF1046194652EA430619D094EA17
:100C30000C0F02D150EA013613D195EA0C0F05D101
:100C400052EA03361CBF104619460AD181EA030155
:100C500001F0004141F0FE4141F470014FF000000D
:100C600070BD41F0FE4141F4780170BD70B54FF0A8
:100C7000FF0C4CF4E06C1CEA11541DBF1CEA135528
:100C800094EA0C0F95EA0C0F00F0A7F8A4EB05040A
:100C900081EA030E52EA03354FEA013100F0888001
:100CA0004FEA03334FF0805545EA131343EA1263CA
:100CB0004FEA022245EA111545EA10654FEA00267F
:100CC0000EF000419D4208BF964244F1FD0404F538
:100CD000407402D25B084FEA3202B61A65EB030594
:100CE0005B084FEA32024FF480104FF4002CB6EB51
:100CF000020E75EB030E22BFB61A754640EA0C00D1
:100D00005B084FEA3202B6EB020E75EB030E22BF10
:100D1000B61A754640EA5C005B084FEA3202B6EB51
:100D2000020E75EB030E22BFB61A754640EA9C0010
:100D30005B084FEA3202B6EB020E75EB030E22BFE0
:100D4000B61A754640EADC0055EA060E18D04FEA9E
:100D5000051545EA16754FEA06164FEAC30343EA3E
:100D600052734FEAC2025FEA1C1CC0D111F4801F0B
:100D70000BD141EA00014FF000004FF0004CB6E704
:100D800011F4801F04BF01430020B4F1FD0C88BFA3
:100D9000BCF5E06F3FF6AFAEB5EB030C04BFB6EBAE
:100DA000020C5FEA500C50F1000041EB045170BDA1
:100DB0000EF0004E4EEA113114EB5C04C2BFD4EBCE
:100DC0000C0541EA045170BD41F480114FF0000E52
:100DD000013C90E645EA060E8DE60CEA135594EACE
:100DE0000C0F08BF95EA0C0F3FF43BAF94EA0C0FD1
:100DF0000AD150EA01347FF434AF95EA0C0F7FF446
:100E000025AF104619462CE795EA0C0F06D152EA99
:100E100003353FF4FDAE1046194622E750EA41067D
:100E200018BF52EA43067FF4C5AE50EA41047FF48E
:100E30000DAF52EA43057FF4EBAE12E74FF0FF3CF3
:100E400006E000BF4FF0010C02E000BF4FF0010CC4
:100E50004DF804CD4FEA410C7FEA6C5C4FEA430C3D
:100E600018BF7FEA6C5C1BD001B050EA410C0CBF8C
:100E700052EA430C91EA030F02BF90EA020F0020EE
:100E8000704710F1000F91EA030F58BF994208BF55
:100E900090422CBFD8176FEAE37040F00100704712
:100EA0004FEA410C7FEA6C5C02D150EA013C07D169
:100EB0004FEA430C7FEA6C5CD6D152EA033CD3D0B4
:100EC0005DF8040B704700BF8446104662468C46AE
:100ED0001946634600E000BF01B5FFF7B7FF0028E1
:100EE00048BF10F1000F01BD4DF808EDFFF7F4FF0A
:100EF0000CBF012000205DF808FB00BF4DF808ED95
:100F0000FFF7EAFF34BF012000205DF808FB00BFB7
:100F10004DF808EDFFF7E0FF94BF012000205DF8D9
:100F200008FB00BF4DF808EDFFF7CEFF94BF01208E
:100F300000205DF808FB00BF4DF808EDFFF7C4FF87
:100F400034BF012000205DF808FB00BF4FEA410CD0
:100F50007FEA6C5C02D150EA013C0AD14FEA430CB3
:100F60007FEA6C5C02D152EA033C02D14FF00000F0
:100F700070474FF0010070474FEA410212F500122E
:100F800015D211D56FF47873B3EB625212D94FEAD0
:100F9000C12343F0004343EA505311F0004F23FABA
:100FA00002F018BF404270474FF00000704750EA0F
:100FB000013005D111F0004008BF6FF000407047CC
:100FC0004FF00000704700BF4A0011D212F5001226
:100FD00011D20DD56FF47873B3EB62520ED44FEA91
:100FE000C12343F0004343EA505323FA02F0704711
:100FF0004FF00000704750EA013002D14FF0FF304F
:1010000070474FF0000070474FEA4102B2F1E043F1
:1010100024BFB3F5001CDCF1FE5C0DD901F0004CDF
:101020004FEAC0024CEA5070B2F1004F40EB83002F
:1010300008BF20F00100704711F0804F21D113F15B
:101040003872BCBF01F00040704741F480114FEA94
:101050005252C2F11802C2F1200C10FA0CF320FA1D
:1010600002F018BF40F001004FEAC1234FEAD3233A
:1010700003FA0CFC40EA0C0023FA02F34FEA4303A4
:10108000CCE77FEA625307D150EA01331EBF4FF02D
:10109000FE4040F44000704701F0004040F0FE4048
:1010A00040F40000704700BF53B94AB9002908BF97
:1010B00000281CBF4FF0FF314FF0FF3001F0F8B8AF
:1010C000ADF1080C6DE904CE00F006F8DDF804E09F
:1010D000DDE9022304B070472DE9F047089E04467D
:1010E0008846002B4BD18A42154667D9B2FA82F264
:1010F0004AB1C2F1200701FA02F320FA07F795403E
:1011000047EA030894404FEA154E230CB8FBFEF75C
:101110001FFA85FC0EFB178843EA084307FB0CF116
:10112000994209D9EB1807F1FF3080F01B819942F1
:1011300040F21881023F2B445B1AA4B2B3FBFEF0CD
:101140000EFB103344EA034400FB0CFCA44509D910
:101150002C1900F1FF3380F00781A44540F204818F
:1011600002382C4440EA0740A4EB0C0400271EB1CF
:10117000D4400023C6E900433946BDE8F0878B42DE
:1011800009D9002E00F0EB800027C6E9000138469F
:101190003946BDE8F087B3FA83F7002F47D18B4279
:1011A00002D3824200F2FA80841A61EB0303012029
:1011B0009846002EE0D0C6E90048DDE702B9FFDE20
:1011C000B2FA82F2002A40F08F80491B4FEA154E96
:1011D0001FFA85F80127B1FBFEFC230C0EFB1C1146
:1011E00043EA014308FB0CF1994207D9EB180CF1D3
:1011F000FF3002D2994200F2CD808446591AA3B240
:10120000B1FBFEF00EFB101443EA044408FB00F8A7
:10121000A04507D92C1900F1FF3302D2A04500F2F6
:10122000B6801846A4EB080440EA0C409FE7C7F1DB
:10123000200CBB4022FA0CFE4EEA030E01FA07F422
:1012400020FA0CF521FA0CF34FEA1E482543B3FBB4
:10125000F8F92C0C08FB19331FFA8EFA44EA034301
:1012600009FB0AF49C4202FA07F200FA07F10BD9D3
:101270001EEB030309F1FF3080F087809C4240F2AF
:101280008480A9F1020973441B1BADB2B3FBF8F0D3
:1012900008FB103345EA034400FB0AFAA24508D9CB
:1012A0001EEB040400F1FF336BD2A24569D902386A
:1012B000744440EA0940A0FB0289A4EB0A044C45AF
:1012C000C2464B4654D351D0002E69D0B1EB0A052B
:1012D00064EB030404FA0CFCFD40FC404CEA0505F9
:1012E000C6E90054002747E7C2F1200320FA03F7BC
:1012F000954001FA02F021FA03F34FEA154E384304
:10130000010CB3FBFEF71FFA85F80EFB173341EA19
:10131000034107FB08F38B4204FA02F407D969186A
:1013200007F1FF3C2FD28B422DD9023F2944CB1A23
:1013300081B2B3FBFEF00EFB103341EA034100FB28
:1013400008F38B4207D9691800F1FF3C17D28B4292
:1013500015D902382944C91A40EA07473BE73746FE
:10136000304609E70746E7E61846FBE64145ABD2BB
:10137000B8EB020A69EB0E0201381346A4E7604697
:10138000E9E7184695E76746D1E781467CE70238EA
:101390002C4447E7ACF1020C2B442FE7384608E712
:1013A0003746E9E603685A004CBF43F0004323F098
:1013B00000431844704700BF61B32DE9F84F01F1B5
:1013C000FF3A90460646D146002707EB090404EB96
:1013D000D4746410E50071190846FFF7E3FFA245D5
:1013E000834605F10800304409D0FFF7DBFFC34511
:1013F00000F1FF3005D8404509D2671CE5E7C34539
:1014000005D9A74202D004F1FF39DEE700210846E2
:10141000BDE8F88F08467047012807D0022807D09A
:10142000044B00280CBF1846002070470248704744
:1014300002487047051B0000091B00000D1B00003F
:1014400030B5254B83B004468D1E4BB301A9284609
:10145000AFF30080F0B101992A46FFF7ADFF0146D6
:10146000C0B1FFF79FFF4B68A064012B2ED0002B6B
:1014700001F1040026DBFFF795FF0023C4E9130305
:101480000368002B12DBFFF78DFF00232061184655
:1014900003B030BD002323610923184603B030BDDB
:1014A0000E490F48091AC9100191D5E7C3F303602B
:1014B000FFF7B2FF002814BF00230923206118465C
:1014C00003B030BD0123C4E91303D9E7002323612E
:1014D0000523184603B030BD00000000A8EE000050
:1014E00038EB00000368DA0710B5044606D49B0702
:1014F00000F1480009D500F05FFC2368590709D5C1
:101500001A070ED5DB0613D510BD00F04DFC23687D
:101510005907F5D404F1D00000F056FC23681A07EF
:10152000F0D404F5A87000F057FC2368DB06EBD478
:1015300004F5E870BDE8104000F092BC036803B108
:1015400003441846704700BF09207047704700BF2A
:1015500070B504460D4608E02B6C63612A4623698A
:10156000214601209847082808D1296C2046FFF71A
:1015700067FF06460028EFD009F090FA0728FBD154
:101580003046296CFFF7E2FF281D00F001FC00BF88
:101590002DE9F0470C1D054617460FCCADF5727DC1
:1015A00003AE0FC60FCC0FC60FCC0FC694E80F00CA
:1015B00002ACD5F80C80D5F8189086E80F0000230F
:1015C000236021E0236C6B614FF4F07221467AA80E
:1015D00000F070FE2B697AAA294630469847889B0E
:1015E000CDE900498246636431462B462A460120F4
:1015F000C0470746F8B94FF4F0727AA9204600F0C8
:1016000059FEBAF1080F1CD1216C2846FFF718FFCC
:10161000002F08BF0926074618BF0A260028D1D088
:10162000A36B46F01001CDE900492A46636401200E
:101630002B46C04700B1092738460DF5727DBDE83D
:10164000F087BAF1070FF6D13846216CFFF77EFF1D
:1016500003A800F09DFB00BF406C7047F0B5CB6B5A
:101660000B640D1D0F4606460FCDF9B001AC0FC43B
:101670000FCD0FC40FCD0FC495E80F004FF0FF350D
:1016800084E80F00009506E033696A4631469847C2
:101690000828044608D110993046FFF7D1FE0028EB
:1016A000F2D0092079B0F0BD6846FFF71BFF062C89
:1016B000F7D139463046FFF74BFF00BF30B4DD6B42
:1016C000C160826119461D64002230BC60E700BF22
:1016D00070B5C66843690B64BEB903690A4604461F
:1016E0000D46014602209847072807D0082803D155
:1016F00029462046FFF72CFF09F0D0F93046296C27
:10170000FFF724FF281D00F043FB0122FFF740FFF5
:1017100009F0C4F9C2681AB1CA6B0A64002237E73B
:101720009CE700BF704700BF836813B101460120EA
:1017300018477047042907D8DFE801F003080608B6
:1017400008000BB90F2A03D9022070470120704707
:1017500000EB820218465368009A1360704700BF7E
:1017600010B584B0002303AC0A4600941946FFF775
:10177000E1FF039804B010BD042907D8DFE801F0A9
:101780000308060808000BB90F2A03D90220704786
:101790000120704700EB8200009A126842601846F0
:1017A000704700BF10B584B004AC002344F8042D8A
:1017B0000A4600941946FFF7DFFF04B010BD00BFD2
:1017C000F0B5D36B1364151D07460E460FCDADF56E
:1017D0000F7D17AC0FC40FCD0FC40FCD0FC495E80C
:1017E0000F004FF0FF3584E80F00169510E016A8A3
:1017F000FFF7D8FF314616A8B84716AA694678B948
:10180000049B08209847052804460AD0092807D0D9
:1018100026996846FFF714FE6A460C210028E6D098
:10182000092416A8FFF75EFE20460DF50F7DF0BDDA
:101830002DE9F04F0D46C96C89B00C1D164600F01D
:10184000030B0A6806941F46002B68D0130CD9B20C
:1018500012048DF81D30022304EB810405928DF8EB
:101860001C302B6DBBF1020F08BFAC6B13F00103F2
:1018700046D1019300F008030093D4F80090B9F129
:10188000000F00F0F380022F45D0B4F80090B4F8B8
:1018900002800434AB6C28F0010A0F2130469A44D0
:1018A000FFF75EFF824534D829F001035344834299
:1018B00094BF002001204FEA480808F0020809F010
:1018C000010948EA0908B8F1010F3AD031D3B8F15B
:1018D000020F1AD1236823F0004ABBF1000F66D132
:1018E00030B1009A002A6CD0BAF1000F00F090805D
:1018F000002B00DA04340AF1010304EB8304BCE793
:10190000304605A900F046FB78B1092009B0BDE8D2
:10191000F08F0020CFE7D4F804800834BAE7120231
:1019200003230592ADF81C309BE7082009B0BDE801
:10193000F08FBBF1000F02D0002840F0B4800434D7
:101940009BE7BBF1000F18D1A8B1D4E90023991C83
:101950004FEAD272D9D005F158010133049100F059
:10196000B580201DFFF7EAFD04AB01462846AFF322
:101970000080002867D108347FE70D213046D5F874
:101980002080FFF7EDFE8045F5D1AB6A9C42F2D195
:101990002046FFF707FD0F2102463046FFF702FF02
:1019A00030462A460021FFF7FDFE0720AEE70D2155
:1019B0003046D5F82080FFF7D3FE804532D023682B
:1019C00096E7BAF1000F23D005F1580304F104089B
:1019D000CDF808B0DDF800900397A3461C4602E05E
:1019E0005745B94640D040460494FFF7A7FD04ABE5
:1019F000014600222846AFF3008009F1010708F1F3
:101A000004080028ECD0D1455C46DDE902B7D6D108
:101A100030460D21FFF7A4FE049B2862C5E9093476
:101A2000062073E7AB6A9C42C9D104224FF000083C
:101A3000A318C5E90AA8C5E90C23236843454DDB73
:101A40000123019357E780460D213046FFF788FEBA
:101A5000B8F1020F28623ED12B46049A43F82C2F8E
:101A60006B62AC62062051E75C46D1E705A93046BF
:101A700000F090FA00287FF448AF019B002B3FF460
:101A800054AF0F213046FFF76BFE0E210246304661
:101A9000FFF788FE30461A4A0F21FFF783FE072022
:101AA00009B0BDE8F08F2046FFF77CFC0434074600
:101AB000AC632846AFF3008000283FF426AF3046E1
:101AC0003A460F21FFF76EFE07201FE730460D2133
:101AD000FFF746FE2862049B6B62C2E70AF1010031
:101AE00004EB8000FFF75EFC0F2102463046FFF753
:101AF00059FE30462A464146FFF754FE072005E7C7
:101B000000000000002393E6012391E602238FE604
:101B10002DE9F0410546C4B0042906D8DFE801F0FC
:101B20004D2B05030900032B5FD0022044B0BDE814
:101B3000F081002BF9D1102AF7D82B68DC0600F1D0
:101B4000F48022AC2046019200F094F9A86B019A2F
:101B50000023012606FA03F1114203D0016844F87C
:101B6000231004300133042BF4D1A863204600F085
:101B700077F90020DAE7012B4FEA124697B252D0EC
:101B8000052BD2D106EB0708B8F1200FCDD80F2EC8
:101B900040F29980B846002F40F0DB80AA6BAA6320
:101BA0000F2E40F2BE80B8F1000F02D002A800F064
:101BB0000BF9002044B0BDE8F081002BB5D1AC6B2F
:101BC00097B2281D012606FA03F1394203F10103F9
:101BD00002D0216801600434102B00F10400F2D11E
:101BE00012F40050E5D1AC63A0E7160C97B2F319DC
:101BF000102B9AD82B681A075DD422AC204600F02F
:101C00000DF904EBC601AB6B3FB103EBC7021868DB
:101C100041F8040B04339342F9D12046AB6300F042
:101C2000DBF8002082E7F219102A3FF67EAF0F2E74
:101C30003FF67BAF2A68D10708D5284622F0030279
:101C400040F8482B019300F0B3F8019B019322ACBC
:101C5000204600F0ADF8A96B019B002F00F09580A5
:101C60007F0004EBC6044FF00008043C01EB870240
:101C700051F8040B44F8040F9142F9D1B8F1000F68
:101C80000FD002AC102E314638BF102104EBC10139
:101C9000843902EBC80452F8040B41F8040F944253
:101CA000F9D1012B7FF47BAF22AC0432AA6320462A
:101CB00000F07AF87DE723F008032B6005F5A870A3
:101CC00000F0ACF899E7B8F1100F2A6843D9D007B3
:101CD000A8F110080BD5284622F0010242F00202BA
:101CE00040F8482B019300F06BF82A68019B5107DC
:101CF00025D40F2E04D822A8019300F061F8019B8F
:101D0000019302AC204600F063F8C6F110010029EF
:101D1000AA6B019BB6DD22AC4F0004EBC604114652
:101D2000A3E722A800F048F83DE723F010032B605A
:101D300005F5E870019200F09DF8019A01E7284648
:101D400022F0040240F8D02B019300F041F8019BEF
:101D5000CFE72A68CBE7D0070AD5284622F0010250
:101D600042F0020240F8482B019300F029F8019B51
:101D7000019322AC204600F023F8B846A96B019BE2
:101D8000002F7FF46DAF0A4609E70A468DE700BFD2
:101D900000F1340191E838009C46A6464CF8045DF9
:101DA00090E8FF0FE54600BD90EC210B704700BFA7
:101DB00080EC210B704700BF90EC200B704700BFF8
:101DC00080EC200B704700BFD0EC200B704700BFA9
:101DD000C0EC200B704700BFF0EC0201F0EC0211E8
:101DE000F0EC0221F0EC0231F0EC0241F0EC025197
:101DF000F0EC0261F0EC0271F0EC0281F0EC029187
:101E0000F0EC02A1F0EC02B1F0EC02C1F0EC02D176
:101E1000F0EC02E1F0EC02F1704700BFE0EC0201EF
:101E2000E0EC0211E0EC0221E0EC0231E0EC0241D6
:101E3000E0EC0251E0EC0261E0EC0271E0EC0281C6
:101E4000E0EC0291E0EC02A1E0EC02B1E0EC02C1B6
:101E5000E0EC02D1E0EC02E1E0EC02F1704700BFFF
:101E6000B0FC0181B0FC0191B0FC01A1B0FC01B15A
:101E7000704700BFA0FC0181A0FC0191A0FC01A162
:101E8000A0FC01B1704700BFEC4600B52DE9005041
:101E90002DE9FF1F4FF000032DE90C0001A9FFF70A
:101EA000DDFBDDF840E012B0704700BFEC4600B546
:101EB0002DE900502DE9FF1F4FF000032DE90C0024
:101EC00001A9FFF705FCDDF840E012B0704700BF44
:101ED000EC4600B52DE900502DE9FF1F4FF000033F
:101EE0002DE90C0001A9FFF715FCDDF840E012B068
:101EF000704700BFEC4600B52DE900502DE9FF1FEB
:101F00004FF000032DE90C0001ABFFF7D7FBDDF824
:101F100040E012B0704700BFEC4600B52DE900501C
:101F20002DE9FF1F4FF000032DE90C0001AAFFF778
:101F300047FCDDF840E012B0704700BF027A82B97A
:101F4000437AABB14268013B10B44372136803217A
:101F5000141D01721A02446002605DF8044B180EF1
:101F600070470368013A02721A020260180E704745
:101F7000B020704700B585B003AA0023009219462F
:101F80000C22FFF7D7FB039805B05DF804FB00BFF8
:101F9000F0E700BF2DE9F043054685B00E464FF04F
:101FA00000083046FFF7CAFFB028044600F0B180B1
:101FB000070620D500F0F003802B65D0902B36D09B
:101FC000A02B78D0B02B47D0C02B00F08A8000F037
:101FD000F803D02B0BD100F00702013242F40022AB
:101FE000052301212846FFF793FD0028D9D00920B9
:101FF00005B0BDE8F0830DF10C09002319468700F8
:10200000CDF800900D222846FFF794FBFFB2039B0A
:10201000CDF80090043760064CBFDF1BFF1800238B
:1020200019460D2228460397FFF7A6FBB9E700F0F3
:102030000D030D2BDBD003AF002300F00F02194678
:1020400000972846FFF776FB0023009719460D22DC
:102050002846FFF791FBA4E7B1285FD0B22800F033
:10206000CC80B3287ED000F0FC03B42BBFD000F0AE
:1020700007020132012342F4002219462846FFF7E5
:1020800047FD00288DD0B2E73046FFF757FF240206
:102090000443B4F5004FAAD024010023A2B219468C
:1020A0002846FFF735FD0028A1D114F4004F18BFD2
:1020B0004FF0010875E7C24302F007034FF47F6257
:1020C0001A41010702F47F624FF0000348BF42F457
:1020D000804219462846FFF71BFD00283FF461AFF8
:1020E00085E7C62851D0C7285AD000F0F803C02B86
:1020F00069D0C82875D0C9287FF479AF3046FFF77A
:102100001DFF020300F00F0002F4702201300243B1
:1021100066E7B8F1000F14D0002069E73046FFF7FA
:102120000DFF00283FF463AF10F0F0037FF45FAFC2
:10213000024619462846FFF7EBFC00283FF431AF72
:1021400055E703AC43460E22414600942846FFF76C
:10215000F1FA0094284643460F224146FFF70CFB54
:10216000404645E73046FFF7E9FE010300F00F0067
:1021700001F47021421C01230A4328461946FFF747
:10218000C7FC00283FF40DAF31E73046FFF7D6FE1D
:10219000010300F00F0001F47021421C0323EBE760
:1021A0003046FFF7CBFE024600283FF420AF10F088
:1021B000F0037FF41CAF04212846FFF7A9FC002898
:1021C0003FF4EFAE13E700F00F020132032342F4B5
:1021D000202219462846FFF79BFC00283FF4E1AE79
:1021E00005E73046FFF7AAFE00F0F00200F00F030B
:1021F0001032013343EA0232F2E600230DF10C09FA
:102200000D221946CDF800902846FFF793FA304684
:10221000FFF794FE02064FF002070CD5039B00F077
:102220007F00B840034430460393FFF787FE030660
:1022300007F10707F2D4039BCDF8009000F07F046C
:1022400003F50172BC400023144419460D222846B0
:102250000394FFF791FAA4E610B5C36C84B05A68F2
:1022600003208DF80C00DC798DF80D401202083344
:10227000084601A901920293FFF78CFE04B010BD3D
:1022800008B5FFF785FE806C08BD00BF08B5FFF7F5
:102290007FFEC06CC37900EB8300083008BD00BF2F
:1022A00008B508F0FBFB00BF08B5FFF7F9FF00BF5A
:1022B000704700BF844641EA000313F003036DD169
:1022C000403A41D351F8043B40F8043B51F8043BF9
:1022D00040F8043B51F8043B40F8043B51F8043B00
:1022E00040F8043B51F8043B40F8043B51F8043BF0
:1022F00040F8043B51F8043B40F8043B51F8043BE0
:1023000040F8043B51F8043B40F8043B51F8043BCF
:1023100040F8043B51F8043B40F8043B51F8043BBF
:1023200040F8043B51F8043B40F8043B51F8043BAF
:1023300040F8043B51F8043B40F8043B51F8043B9F
:1023400040F8043B403ABDD2303211D351F8043B3F
:1023500040F8043B51F8043B40F8043B51F8043B7F
:1023600040F8043B51F8043B40F8043B103AEDD2EE
:102370000C3205D351F8043B40F8043B043AF9D23F
:10238000043208D0D2071CBF11F8013B00F8013B12
:1023900001D30B8803806046704700BF082A13D31F
:1023A0008B078DD010F003038AD0C3F10403D21A37
:1023B000DB071CBF11F8013B00F8013B80D331F86B
:1023C000023B20F8023B7BE7043AD9D3013A11F8EB
:1023D000013B00F8013BF9D20B7803704B78437056
:1023E0008B7883706046704700000000000000009A
:1023F00001F0FF01102A2BDB10F0070F08D010F8B6
:10240000013B013A8B422DD010F0070F42B3F6D1B9
:10241000F0B441EA012141EA014122F007047FF0D2
:1024200000070023F0E80256083C85EA010586EA29
:10243000010685FA47F5A3FA87F586FA47F6A5FA65
:1024400087F68EB9EED1F0BC01F0FF0102F0070271
:1024500032B110F8013B013A83EA010313B1F8D11C
:102460000020704701387047002D06BF35460338FD
:10247000073815F0010F07D1013015F4807F02BF36
:10248000013015F4C03F0130F0BC0138704700BF87
:10249000000000000000000000000000000000003C
:1024A000000000000000000000000000000000002C
:1024B000000000000000000000000000000000001C
:1024C00090F800F06DE9024520F007016FF0000C74
:1024D00010F0070491F820F040F049804FF000041C
:1024E0006FF00700D1E9002391F840F000F10800F7
:1024F00082FA4CF2A4FA8CF283FA4CF3A2FA8CF32F
:102500004BBBD1E9022382FA4CF200F10800A4FA95
:102510008CF283FA4CF3A2FA8CF3E3B9D1E90423E9
:1025200082FA4CF200F10800A4FA8CF283FA4CF320
:10253000A2FA8CF37BB9D1E9062301F1200182FADA
:102540004CF200F10800A4FA8CF283FA4CF3A2FAE0
:102550008CF3002BC6D0002A04BF04301A4612BAEE
:10256000B2FA82F2FDE8024500EBD2007047D1E9F1
:10257000002304F00305C4F100004FEAC50514F080
:10258000040F91F840F00CFA05F562EA05021CBF51
:1025900063EA050362464FF00004A9E780B485B002
:1025A00000AF78603960B44B93F8D931013B0D2B03
:1025B00000F29E8201A252F823F000BFF525000030
:1025C0008F260000F52600002F2700005F2700005F
:1025D000D12700000F280000DB280000FD280000A4
:1025E0004B29000089290000B9290000532A000066
:1025F000B72A0000A04B072283F8D9219E4B93F8FD
:10260000DC219E4B83F84C209B4B93F8DC219B4BA9
:1026100083F84D20984B93F8DD21984B83F84E209A
:10262000954B93F8DD21954B83F85120924B93F80D
:10263000DD21924B83F852208F4B93F8DD218F4B95
:1026400083F84F208C4BB3F8BC218B4BA3F8CA21E5
:10265000894B93F8D521884B93F8DC319A4240F0AE
:102660007A82854BB3F8CA311A46834BB3F8C4312A
:102670001344FB60FB68B3F5803F02D34FF6FF7352
:10268000FB60FB689AB27C4BA3F8CA2163E27A4BE9
:1026900093F8CF31002B12D1774BD3F8B831764A6B
:1026A000B2F8CA2193420AD3734B082283F8D92186
:1026B000714B93F8DC21714B83F854204DE26E4B43
:1026C00093F8CF31012B40F048826B4B052283F801
:1026D000D921694B0022C3F8B821674B93F8DC215C
:1026E000664B83F85420644B93F8D421634B83F8F2
:1026F000392032E2604B092283F8D9215E4B93F8EE
:10270000DD215E4B83F850205B4B93F8DD215B4B62
:1027100083F85120584B93F8DD21584B83F8522011
:10272000554B93F8DD21554B83F8532027E2524B4C
:10273000D3F8B831504AB2F8C8219342C0F00F82A2
:102740004D4B002283F8D9214B4B012283F8D7212E
:10275000494B93F8DD21494B83F84B20FFE1464B71
:10276000D3F8B831444AB2F8CA2193420AD3424B53
:10277000082283F8D921404B93F8DC213F4B83F8A2
:102780005420EEE13C4B93F8D031022B40F0E9812C
:10279000394BD3F8B831384AB2F8C2219342C0F06D
:1027A000E0813B681A78344B93F8DC319A4240F070
:1027B000D881314B002283F8D9212F4B012283F895
:1027C000D7212D4B93F8DD212C4B83F84B20C8E10A
:1027D000294B93F8CE31012B0DD0022B00D0CEE146
:1027E000254B0C2283F8D921234B93F8D121234B7D
:1027F00083F838200AE0204B012283F8D9211E4BB0
:1028000093F8D3211D4B83F8382000BFB7E11A4B52
:1028100093F8CE31012B02D0022B31D0AFE1164B11
:10282000022283F8D921144B0022C3F8B821124B9D
:1028300093F8DC21114B83F850200F4B93F8DD21E6
:102840000E4B83F853200C4BB3F8CA311A460A4B8F
:10285000B3F8C831D31AFB60074BB3F8CA311A4634
:10286000FB68934201D90023FB60FB689AB2024BDC
:10287000A3F8CA2130E000BF10110020B8100020DA
:10288000B94B0D2283F8D921B74B0022C3F8B821E8
:10289000B54B93F8DD21B54B83F85020B24B93F83C
:1028A000DC21B24B83F85320AF4BB3F8CA311A4640
:1028B000AD4BB3F8C631D31AFB60AB4BB3F8CA319A
:1028C0001A46FB68934201D90023FB60FB689AB269
:1028D000A54BA3F8CA2100BF51E1A34B0A2283F8FC
:1028E000D921A14B93F8DD21A04B83F84C209E4BBE
:1028F00093F8DC219D4B83F84D2040E19A4B93F8EF
:10290000CE31012B11D0022B00D038E1964B0B2297
:1029100083F8D921944B0022C3F8B821924B93F845
:10292000DC21924B83F84E200EE08F4B042283F87B
:10293000D9218D4B0022C3F8B8218B4B93F8DC21B1
:102940008A4B83F84F2000BF19E1874B93F8CE31B3
:10295000012B0DD0022B00D011E1834B0E2283F806
:10296000D921814B93F8DD21804B83F84F200AE079
:102970007D4B032283F8D9217B4B93F8DD217B4BE0
:1029800083F84E2000BFFAE0774BD3F8B831764A8F
:10299000B2F8C6219342C0F0EB80734B002283F85B
:1029A000D921714B012283F8D7216F4B93F8DD2198
:1029B0006E4B83F84B20DBE06B4B072283F8D92169
:1029C000694B93F8DC21694B83F84C20664B93F8F4
:1029D000DC21664B83F84D20634B93F8DD21634B7C
:1029E00083F84E20604B93F8DD21604B83F8512033
:1029F0005D4B93F8DD215D4B83F852205A4B93F8E1
:102A0000DD215A4B83F84F20574BB3F8BC21564B6E
:102A1000A3F8CA21544B93F8D521534B93F8DC31DA
:102A20009A4240F0A780504BB3F8CA311A464E4B39
:102A3000B3F8C4311344FB60FB68B3F5803F02D3A5
:102A40004FF6FF73FB60FB689AB2474BA3F8CA21AD
:102A500090E0454B93F8CF31022B14D1424B0F221B
:102A600083F8D921404B0022C3F8B8213E4B93F89C
:102A7000DC213E4B83F854203B4B93F8D2213B4B57
:102A800083F83A2078E0384B93F8CF31002B73D19C
:102A9000354BD3F8B831344AB2F8CA2193426BD3DC
:102AA000314B082283F8D9212F4B93F8DC212F4B8F
:102AB00083F8542060E02C4B092283F8D9212A4B5B
:102AC00093F8DD21294B83F85020274B93F8DD2123
:102AD000264B83F85120244B93F8DD21234B83F8B8
:102AE0005220214B93F8DD21204B83F8532046E000
:102AF0001D4BD3F8B8311C4AB2F8CA2193420AD30D
:102B0000194B082283F8D921174B93F8DC21174B76
:102B100083F8542032E0144B93F8D031022B2DD19E
:102B20007B681B78002B29D00F4BD3F8B8310E4AA5
:102B3000B2F8C021934221D30B4B002283F8D92154
:102B4000094B012283F8D721074B93F8DD21074B6E
:102B500083F84B2012E000BF11E000BF0FE000BF80
:102B60000DE000BF0BE000BF10110020B8100020E6
:102B700000BF04E000BF02E000BF00E000BF00BFF4
:102B80001437BD465DF8047B704700BF80B582B046
:102B900000AF78607B685B68012B08D17B681B7A8B
:102BA000002B04D07B681B69184602F057FB00BF5E
:102BB0000837BD4680BD80B582B000AF78607868C8
:102BC000FFF7E4FF00BF0837BD4680BD80B582B087
:102BD00000AF78607B681B78002B05D17B680122F1
:102BE0001A707868FFF7E7FF00BF0837BD4680BD61
:102BF00080B582B000AF78607B685B68012B0DD137
:102C00007B681B7A002B09D07B681B69184601F092
:102C1000DDFD7B681B69184601F0E2FD00BF083747
:102C2000BD4680BD80B582B000AF78607868FFF7A0
:102C3000DFFF00BF0837BD4680BD80B582B000AF62
:102C400078607B681B78002B05D17B6801221A70A5
:102C50007868FFF7E7FF00BF0837BD4680BD80B545
:102C600082B000AF78607B685B68012B08D17B681D
:102C70001B7A002B04D07B681B69184602F0EEFA21
:102C800000BF0837BD4680BD80B582B000AF786018
:102C90007868FFF7E4FF00BF0837BD4680BD80B508
:102CA00082B000AF78607B681B78002B05D17B6811
:102CB00001221A707868FFF7E7FF00BF0837BD46AA
:102CC00080BD80B582B000AF78607B685B68012B07
:102CD00008D17B681B7A002B04D07B681B691846DF
:102CE00002F0A3FC00BF0837BD4680BD80B582B0AE
:102CF00000AF78607868FFF7E4FF00BF0837BD4693
:102D000080BD80B582B000AF78607B681B78002BF7
:102D100005D17B6801221A707868FFF7E7FF00BFD2
:102D20000837BD4680BD80B582B000AF78607B6853
:102D30005B68012B08D17B681B7A002B04D07B6871
:102D40001B69184602F071FC00BF0837BD4680BD04
:102D500080B582B000AF78607868FFF7E4FF00BF0D
:102D60000837BD4680BD80B582B000AF78607B6813
:102D70001B78002B05D17B6801221A707868FFF759
:102D8000E7FF00BF0837BD4680BD80B582B000AF09
:102D900078607B685B68012B0DD17B681B7A002B08
:102DA00009D07B681B69184601F062FE7B681B69CD
:102DB000184601F073FE00BF0837BD4680BD80B5E0
:102DC00082B000AF78607868FFF7DFFF00BF083798
:102DD000BD4680BD80B582B000AF78607B681B784F
:102DE000002B05D17B6801221A707868FFF7E7FF96
:102DF00000BF0837BD4680BD80B586B000AF7860A3
:102E00007B6800221A727B6801225A604FF0FF3300
:102E10007B610023FB6007F10C007B690A22002123
:102E200001F094FE02467B681A617B681B694FF4CF
:102E3000E131184602F060F90123FB740023BB74F2
:102E40007B681869FB7CBA7C082102F061F97B6819
:102E500001221A7200BF1837BD4680BD80B586B00A
:102E600000AF78607B6800221A727B6801225A608A
:102E70004FF0FF337B610023FB6007F10C000A2356
:102E80007A69002101F062FE02467B681A617B6864
:102E90001B694FF4E131184602F02EF90123FB744F
:102EA0000023BB747B681869FB7CBA7C082102F0A4
:102EB0002FF97B6801221A7200BF1837BD4680BD0A
:102EC0002DE9F04391B000AF324BD3E90601324B0C
:102ED000D3E900341A462346FEF706F80346002BD2
:102EE00005D12D4BD3E900342A4AC2E90634294BD7
:102EF0001B6907F10C011B22184602F01DF903465D
:102F000087F83F3007F10C031B2219462348FFF7CF
:102F1000D1F9204B93F8DA31002B15D11D4B01224A
:102F200083F8DA211B4B022283F8DB21194A4FF088
:102F300000034FF08044C2E96A34164A4FF00003A0
:102F4000174CC2E96C345DE2124B93F8DB31022B73
:102F500009D0032B0CD0012B40F04E820D4B0322E5
:102F600083F8DB214EE20B4B032283F8DB2149E29D
:102F700097F83F30002B40F04482084B1B780A2B17
:102F800040F03482054B5B78142B0BD01E2B00F0E5
:102F90001D8225E21011002000000020B810002042
:102FA0000000F03FB04B042283F8DB21AF4B9A784E
:102FB000AE4B83F83B20AC4BD3E96C014FF00002E1
:102FC000AB4BFDF773FB03460C4618462146FDF755
:102FD000D3FF0346013BA54AD25CA44B83F83C20B7
:102FE000A14BD3E96C014FF00002A14BFDF75EFB52
:102FF00003460C46184621469B4BD3E96C341A46CF
:103000002346FDF753FB03460C46C7E90A34D7E9CC
:103010000A3418462146FDF7AFFF0346013B934AA9
:10302000D25C924B83F83D208F4BD3E96C01D7E9FA
:103030000A341A462346FDF739FB03460C46C7E916
:103040000A34D7E90A3418462146FDF795FF0346AE
:10305000013B864AD25C854B83F83E20824BD3E904
:103060006C01D7E90A341A462346FDF71FFB0346D5
:103070000C46C7E90A34D7E90A3418462146FDF759
:103080007BFF0346013B794AD25C784B83F83F20B3
:10309000754BD3E96C01D7E90A341A462346FDF78C
:1030A00005FB03460C46C7E90A34D7E90A3418463B
:1030B0002146FDF761FF0346013B6C4AD25C6B4B36
:1030C00083F84020684BD3E96C01D7E90A341A46EB
:1030D0002346FDF7EBFA03460C46C7E90A34D7E965
:1030E0000A3418462146FDF747FF0346013B5F4A75
:1030F000D25C5E4B83F841205B4BD3E96C01D7E98E
:103100000A341A462346FDF7D1FA03460C46C7E9AE
:103110000A34D7E90A3418462146FDF72DFF034645
:10312000013B524AD25C514B83F842204E4BD3E9CB
:103130006C01D7E90A341A462346FDF7B7FA03466D
:103140000C46C7E90A34D7E90A3418462146FDF788
:1031500013FF0346013B454AD25C444B83F84320AE
:10316000414BD3E96C01D7E90A341A462346FDF7EF
:103170009DFA03460C46C7E90A34D7E90A341846D3
:103180002146FDF7F9FE0346013B384AD25C374B36
:1031900083F84420344BD3E96C01D7E90A341A464A
:1031A0002346FDF783FA03460C46C7E90A34D7E9FC
:1031B0000A3418462146FDF7DFFE0346013B2B4A41
:1031C0001344022219462B48FFF774F8264BD3E923
:1031D0006A01D7E90A341A462346FDF767FA03461F
:1031E0000C46C7E90A34D7E90A3418462146FDF7E8
:1031F000C3FE0346013B1D4A1344022219461E48E2
:10320000FFF758F8184BD3E96A01D7E90A341A4690
:103210002346FDF74BFA03460C46C7E90A34D7E9C3
:103220000A3418462146FDF7A7FE0346013B0F4A24
:103230001344022219461148FFF73CF80A4BD3E920
:103240006A01D7E90A341A462346FDF72FFA0346E6
:103250000C46C7E90A34D7E90A3418462146FDF777
:103260008BFE0346013B0BE010110020B81000203C
:1032700000000840D8100020DA100020DC100020E8
:10328000AF4A134402221946AE48FFF713F8AE4B7B
:10329000D3E96A01D7E90A341A462346FDF706FA4C
:1032A00003460C46C7E90A34D7E90A3418462146D2
:1032B000FDF762FE0346013BA14A13440222194670
:1032C000A248FEF7F7FFA04BD3E96A01D7E90A3419
:1032D0001A462346FDF7EAF903460C46C7E90A34C5
:1032E000D7E90A3418462146FDF746FE0346013B5E
:1032F000934AD25C924B83F84620934BD3E96C01FE
:10330000D7E90A341A462346FDF7D0F903460C469E
:10331000C7E90A34D7E90A3418462146FDF72CFEDE
:103320000346013B864AD25C854B83F84720864B97
:10333000D3E96C01D7E90A341A462346FDF7B6F9FA
:1033400003460C46C7E90A34D7E90A341846214631
:10335000FDF712FE0346013B794AD25C784B83F8B5
:103360004820794BD3E96C01D7E90A341A46234641
:10337000FDF79CF903460C46C7E90A34D7E90A343D
:1033800018462146FDF7F8FD0346013B6C4AD25C26
:103390006B4B83F849206C4BD3E96C01D7E90A34B5
:1033A0001A462346FDF782F903460C46C7E90A345C
:1033B000D7E90A3418462146FDF7DEFD0346013BF6
:1033C0005F4AD25C5E4B83F84A2014E05E4B0122D8
:1033D00083F8DB215A4B9A78594B83F845200AE051
:1033E000594B032283F8DB2100BF04E0564B032234
:1033F00083F8DB2105E004E0534B032283F8DB2153
:1034000000E000BF022252495248FEF753FF022259
:1034100051495248FEF74EFF022251495148FEF7EA
:1034200049FF022247495048FEF744FF022247491C
:103430004E48FEF73FFF444BD3E91E014C4BD3E906
:1034400008341A462346FDF74FFD0346002B05D1ED
:10345000474BD3E908343C4AC2E91E343A4B1B6F50
:10346000184601F0A9F9384B1B6F07F12801072214
:10347000184601F045F93E4BD3E90A01D7E90A3471
:103480001A462346FDF7C8FA03460C4644EC173BA0
:10349000B0EE470AF0EE670A07F0EAF8B0EE407ABD
:1034A000F0EE607A87ED0A7B97ED0A7BB0EE470A73
:1034B000F0EE670A02F024FF0346002B0AD197EDD5
:1034C0000A7BB0EE470AF0EE670A02F0F1FE03460F
:1034D000002B06D04FF000034FF00004C7E90A3478
:1034E0000FE097ED0A7B9FED141BB0EE470AF0EE5C
:1034F000670A07F045F9B0EE407AF0EE607A87EDA2
:103500000A7BD7E90A014FF000024FF00003FDF7F4
:10351000F5FC0346002B2DD0D7E90A34984684F0F9
:10352000004940464946FDF74FFD03469BB25B42CA
:103530009BB227E0AFF30080000000000000F040E5
:10354000B8100020DE10002010110020E010002034
:10355000D8100020E2100020DA100020E410002033
:10356000DC100020E6100020E8100020EA10002007
:1035700000000020D7E90A3418462146FDF724FD53
:1035800003469BB2C24A93830222C249C248FEF755
:1035900091FEC24BD3E92601C14BD3E906341A464A
:1035A0002346FDF7A1FC0346002B05D1BC4BD3E914
:1035B0000634BA4AC2E92634B84BD3F890301846DC
:1035C00001F0FAF8B54BD3F8903007F12801072243
:1035D000184601F095F8B24BD3E90C01D7E90A344B
:1035E0001A462346FDF718FA03460C4644EC173BEF
:1035F000B0EE470AF0EE670A07F03AF8B0EE407A0C
:10360000F0EE607A87ED0A7B97ED0A7BB0EE470A11
:10361000F0EE670A02F074FE0346002B0AD197ED24
:103620000A7BB0EE470AF0EE670A02F041FE03465D
:10363000002B06D04FF000034FF00004C7E90A3416
:103640000FE097ED0A7B9FED901BB0EE470AF0EE7E
:10365000670A07F095F8B0EE407AF0EE607A87EDF1
:103660000A7BD7E90A014FF000024FF00003FDF793
:1036700045FC0346002B0DD0D7E90A341D4684F0E3
:10368000004628463146FDF79FFC03469BB25B424D
:103690009BB207E0D7E90A3418462146FDF794FCAF
:1036A00003469BB27A4AD38302227E497E48FEF7C4
:1036B00001FE774B93F84530013B142B00F2FF805D
:1036C00001A252F823F000BF1D3700002F37000081
:1036D000413700005337000065370000773700009E
:1036E000893700009B370000AD370000BF3700006E
:1036F000D1370000E3370000F5370000073800003D
:10370000193800002B3800003D3800004F38000009
:103710006138000073380000AD3800005C4B93F84E
:103720003B307B715A4B93F83B30BB71D0E0584B28
:1037300093F83C307B71564B93F83C30BB71C7E03B
:10374000534B93F83D307B71514B93F83D30BB7137
:10375000BEE04F4B93F83E307B714D4B93F83E30BB
:10376000BB71B5E04A4B93F83F307B71484B93F8FF
:103770003F30BB71ACE0464B93F840307B71444B1B
:1037800093F84030BB71A3E0414B93F841307B711B
:103790003F4B93F84130BB719AE03D4B93F8423078
:1037A0007B713B4B93F84230BB7191E0384B93F8FF
:1037B00043307B71364B93F84330BB7188E0344B18
:1037C00093F844307B71324B93F84430BB717FE007
:1037D0002F4B93F82A307B712D4B93F82B30BB7114
:1037E00076E02B4B93F82C307B71294B93F82D30DE
:1037F000BB716DE0264B93F82E307B71244B93F810
:103800002F30BB7164E0224B93F830307B71204B3A
:1038100093F83130BB715BE01D4B93F832307B7114
:103820001B4B93F83330BB7152E0194B93F8463081
:103830007B71174B93F84630BB7149E0144B93F8FA
:1038400047307B71124B93F84730BB7140E0104B0F
:1038500093F848307B710E4B93F84830BB7137E0DA
:103860000B4B93F849307B71094B93F84930BB718E
:103870002EE0074B93F84A307B71054B93F84A30A2
:10388000BB7125E0AFF30080000000000000F040B5
:10389000B8100020D4100020EC10002010110020DF
:1038A00000000020D6100020EE100020924B93F86C
:1038B00034307B71904B93F83530BB7108E08E4B00
:1038C00093F836307B718C4B93F83730BB7100BF67
:1038D000894B93F845303B71012387F83F3012E064
:1038E000391D07F1080303221846FEF7E3FC834B5A
:1038F000D3F8A03107F108010322184601F06EFC4D
:10390000034687F83F3097F83F30002BE8D17B4BD8
:10391000D3E90E017A4BD3E904341A462346FDF766
:10392000E3FA0346002B05D1754BD3E90434734AFF
:10393000C2E90E34714B1B6B184601F0FFFD0346C4
:10394000BB706E4BD3E916016D4BD3E902341A46B6
:103950002346FDF7C9FA0346002B05D1684BD3E98E
:103960000234664AC2E91634644B1B6D184601F0F6
:10397000E5FD0346FB70614BD3F8B831B3F1FF3F6F
:1039800006D05E4BD3F8B83101335C4AC2F8B83187
:103990005A4B93F8D631002B0ED1584B012283F8A5
:1039A000D621564B012283F8D721544B93F8DD21C1
:1039B000514B83F84B20C2E1504B93F8D731012B88
:1039C00003D0022B00F09E80B2E14C4B93F8CE3135
:1039D000032B5FD1494B022283F8D721474B0122A9
:1039E00083F8D821454B0022C3F8B821434B93F804
:1039F000D321414B83F83820404B93F8DC213E4BD8
:103A000083F84C203D4B93F8DC213B4B83F84D2051
:103A10003A4B93F8DD21384B83F84E20374B93F81F
:103A2000DD21354B83F85120344B93F8DD21324BA7
:103A300083F85220314B93F8DD212F4B83F84F2030
:103A40002E4B93F8DD212C4B83F850202B4B93F811
:103A5000DC21294B83F85320284BB3F8BC311A469C
:103A6000264BB3F8BE31D31ABB63244BB3F8BC3139
:103A70001A46BB6B934201D90023BB63BB6B9AB25E
:103A80001E4BA3F8CC211D4B93F8DC211A4B83F875
:103A90004B2054E1194B93F8CE31022B04D0174B35
:103AA00093F8CE31012B1AD1144B032283F8D7217E
:103AB000124B062283F8D921104B93F8DD210E4BCF
:103AC00083F84F200D4B93F8DD210B4B83F84E20EC
:103AD0000A4B93F8DC21084B83F84B202FE1064B6F
:103AE00093F84B30002B0CBF01230023DBB21A46A6
:103AF000014B83F84B2022E1B81000201011002068
:103B000000000020884B93F8D831022B64D0032B9F
:103B100000F0AA80012B40F0E880834BB3F8CC3151
:103B20001A46814BB3F8C831D31ABB637E4BB3F846
:103B3000CC311A46BB6B934201D90023BB637A4B4D
:103B4000B3F8C6311A46BB6B9B1A7B637A6BBB6BAF
:103B50009A4201D900237B63734BD3F8B8317A6B57
:103B60009A4200F2D980704B022283F8D8216E4B22
:103B70000022C3F8B8216C4B93F8DD216B4B83F81E
:103B80004C20694B93F8DC21684B83F84D20664B41
:103B900093F8DD21654B83F84E20634B93F8DD21CC
:103BA000624B83F85020604B93F8DD215F4B83F824
:103BB00051205D4B93F8DD215C4B83F852205A4B2A
:103BC00093F8DD21594B83F85320574B93F8DC21B0
:103BD000564B83F84F209FE0534BD3F8B831524AED
:103BE000B2F8C8219342C0F099804F4B032283F86A
:103BF000D8214D4B0022C3F8B8214B4B93F8D1216B
:103C00004A4B83F83820484B93F8DC21474B83F824
:103C10004C20454B93F8DC21444B83F84D20424B1C
:103C200093F8DD21414B83F84E203F4B93F8DD2183
:103C30003E4B83F851203C4B93F8DD213B4B83F8FE
:103C40005220394B93F8DD21384B83F84F20364B07
:103C500093F8DC21354B83F85020334B93F8DD216A
:103C6000324B83F8532059E02F4BD3F8B8312E4A0A
:103C7000B2F8BE21934253D32B4B042283F8D821B0
:103C8000294B0022C3F8B821274B93F8DD21274B9D
:103C900083F84C20244B93F8DC21244B83F84D20EF
:103CA000214B93F8DD21214B83F84F201E4B93F8D5
:103CB000DD211E4B83F850201B4B93F8DD211B4B5D
:103CC00083F85120184B93F8DD21184B83F85220CC
:103CD000154B93F8DD21154B83F85320124B93F8C5
:103CE000DC21124B83F84E201AE00F4BD3F8B83189
:103CF0000D4AB2F8C621934214D30B4B002283F82D
:103D0000D821094B012283F8D721074B93F8DD21F5
:103D1000064B83F84B2005E000BF10E000BF0EE02B
:103D200000BF0CE000BF0AE010110020B810002016
:103D3000BA1CFB1C11461846FEF730FC00BF7A4B3C
:103D400093F83F309AB2794BA3F8C621764B93F89B
:103D500042309AB2754BA3F8C821734B93F84B309D
:103D6000002B4CD1724B1B78002B48D06E4B93F834
:103D70003B206E4B83F8CE216B4B93F83C206B4B72
:103D800083F8CF21684B93F83D20684B83F8D0210E
:103D9000654B93F83E20654B83F8D121624B93F835
:103DA0004020624B83F8D2215F4B93F841205F4B58
:103DB00083F8D3215C4B93F843205C4B83F8D421E8
:103DC000594B93F84420594B83F8D521564B1A8C04
:103DD000564BA3F8BC21544B5A8C544BA3F8BE212C
:103DE000514B9A8C514BA3F8C0214F4BDA8C4F4B5F
:103DF000A3F8C2214C4B1A8D4C4BA3F8C4214A4B5B
:103E000093F84B204A4B1A70484BD3F8B020464BDE
:103E100093F84C301946104601F0C8FB434BD3F8D9
:103E2000C420414B93F84D301946104601F0BEFBBB
:103E30003E4BD3F864413C4B93F838301846FCF7BE
:103E400071FD02460B4643EC102B204600F0D2FDDC
:103E5000364BD3F8D820344B93F84E3019461046E1
:103E600001F0A4FB314BD3F8EC202F4B93F84F30EB
:103E70001946104601F09AFB2C4BD3F800212A4B2F
:103E800093F850301946104601F090FB274BD3F8B9
:103E90001421254B93F851301946104601F086FB4A
:103EA000224BD3F82821204B93F852301946104664
:103EB00001F07CFB1D4BD3F83C211B4B93F8533096
:103EC0001946104601F072FB184BD3F85021164BDF
:103ED00093F854301946104601F068FB134BD3F8A1
:103EE0007841114B93F839301846FCF71BFD024618
:103EF0000B4643EC102B204600F07CFD0B4BD3F817
:103F00008C41094B93F83A301846FCF70BFD0246FA
:103F10000B4643EC102B204600F06CFD00BF4437ED
:103F2000BD46BDE8F08300BFB8100020101100208E
:103F3000F01200200000000090B585B000AF08200E
:103F400002F072F9AF4B93F84B20AF4B83F8CE21C0
:103F5000AC4B93F84C20AC4B83F8CF21A94B1A8F74
:103F6000A94BA3F8BC21A74B5A8FA74BA3F8BE219E
:103F7000A44B9A8FA44BA3F8C021A24BDA8FA24B7B
:103F8000A3F8C2219F4BB3F840209F4BA3F8C42154
:103F90009C4B93F84D209C4B83F8D021994B93F880
:103FA0004E20994B83F8D121964BB3F84220964B83
:103FB000A3F8C621934B93F84F20934B83F8D2215B
:103FC000904B93F85020904B83F8D3218D4BB3F84E
:103FD00044208D4BA3F8C8218A4B93F851208A4B7B
:103FE00083F8D421874B93F85220874B83F8D5214F
:103FF000864B00221A70844B012283F8DC21824B0D
:1040000000225A60804B00221A707E4BD3E90034A4
:104010007D4AC2E906347C48FEF7EEFE7A4B012267
:1040200083F86020784B00225A66774A4FF00003ED
:10403000774CC2E91E34744B002283F86020714B28
:10404000D3E90834704AC2E91E34724BFB606E4BF0
:10405000002283F868206C4B01225A66102000F081
:10406000EDFA0246FB681A616B4B0022DA76664B6A
:10407000186F694BDB7E0022194600F033FB624B60
:10408000012283F86820604B012283F880205E4B78
:104090000022C3F884205C4A4FF000035C4CC2E964
:1040A0002634594B002283F88020564BD3E906343E
:1040B000554AC2E92634594BFB60534B002283F822
:1040C0008820514B0122C3F88420112000F0B6FA59
:1040D0000246FB681A61504B0022DA764A4BD3F84D
:1040E00090004D4BDB7E0022194600F0FBFA464B58
:1040F000012283F88820444B0022C3F89421424BCC
:10410000002283F890214648FEF7A8FE3E4B01228C
:1041100083F820203C4B00225A623B4A4FF00003B8
:104120003B4CC2E90E34384B002283F82020354B3B
:10413000D3E90434344AC2E90E343A4BBB60324B03
:10414000002283F82820304B01225A6200210020EF
:1041500001F084F90246BB681A612B4B012283F8F7
:104160002820294B012283F84020274B00225A6443
:10417000254A4FF00003264CC2E91634224B002298
:1041800083F840201F4BD3E902341F4AC2E916349A
:10419000254BBB601C4B002283F848201A4B0122A0
:1041A0005A640021012001F059F90246BB681A61E6
:1041B000154B012283F84820134B012283F8A020DD
:1041C000114B0022C3F8A4200F4B002283F8A0203B
:1041D000164B7B600C4B002283F8A8200A4B01226F
:1041E000C3F8A4200121022001F038F902467B68BF
:1041F0001A61054B012283F8A820034B012283F8A2
:10420000B42015E00000002010110020F012002062
:104210000000F0BF70110020B810002090110020A5
:10422000A01200203011002050110020B0110020F9
:10423000C54B0022C3F8B820C34B002283F8B4203A
:10424000C24B7B60C04B002283F8BC20BE4B0122D6
:10425000C3F8B82001210A2001F000F902467B686A
:104260001A61B94B012283F8BC20B74B012283F8B5
:104270005421B54B0022C3F85821B34B002283F8D8
:104280005421B34B3B60B04B002283F85C21AE4B12
:104290000122C3F858219FEDA81B9FEDA90B052013
:1042A00000F0ECFA02463B681A61A74BD3F8643180
:1042B000184600F095FBA44B012283F85C21A24B29
:1042C000012283F8C820A04B0022C3F8CC209E4BCB
:1042D000002283F8C8209F4B7B609B4B002283F811
:1042E000D020994B0122C3F8CC200121092001F0F4
:1042F000B5F802467B681A61934B012283F8D020FF
:10430000914B012283F8DC208F4B0022C3F8E02080
:104310008D4B002283F8DC208F4B7B608A4B002280
:1043200083F8E420884B0122C3F8E0200121082013
:1043300001F094F802467B681A61834B012283F8EE
:10434000E420814B012283F8F0207F4B0022C3F848
:10435000F4207D4B002283F8F020804B7B607A4B69
:10436000002283F8F820784B0122C3F8F4200121C1
:104370000B2001F073F802467B681A61724B012230
:1043800083F8F820704B012283F804216E4B002241
:10439000C3F808216C4B002283F80421704B7B602A
:1043A000694B002283F80C21674B0122C3F80821D6
:1043B0000121042001F052F802467B681A61624B29
:1043C000012283F80C21604B012283F818215E4BF7
:1043D0000022C3F81C215C4B002283F81821614B9A
:1043E0007B60594B002283F82021574B0122C3F8F0
:1043F0001C210121072001F031F802467B681A6177
:10440000514B012283F820214F4B012283F82C21AC
:104410004D4B0022C3F830214B4B002283F82C2156
:10442000514B7B60484B002283F83421464B0122DC
:10443000C3F8302101210C2001F010F802467B68FE
:104440001A61414B012283F834213F4B012283F84A
:1044500040213D4B0022C3F844213B4B002283F80E
:104460004021424B7B60384B002283F84821364B79
:104470000122C3F8442101210D2000F0EFFF024684
:104480007B681A61304B012283F848212E4B0122B0
:1044900083F868212C4B0022C3F86C212A4B0022A0
:1044A00083F86821324B3B60274B002283F8702150
:1044B000254B0122C3F86C219FED1F1B9FED200BA4
:1044C000062000F0DBF902463B681A611E4BD3F868
:1044D0007831184600F084FA1B4B012283F87021D2
:1044E000194B012283F87C21174B0022C3F880214D
:1044F000154B002283F87C211E4B3B60124B00229F
:1045000083F88421104B0122C3F880219FED0A1B00
:104510009FED0B0B032000F0B1F902463B681A61D6
:10452000094BD3F88C31184600F05AFA064B012299
:1045300083F8842120E000BF00000000000000009C
:104540000000000000409F4010110020C411002016
:1045500064120020D8110020EC110020001200206D
:1045600014120020281200203C12002050120020BB
:10457000781200208C12002000BF1437BD4690BD79
:1045800080B500AF1B48FEF721FB1B48FEF755FB2B
:104590001A48FEF752FB1A48FEF781FB1948FEF74E
:1045A000B0FB1948FEF7ADFB1848FEF7DCFB1848D6
:1045B000FEF7D9FB1748FEF70DFC1748FEF7D3FBB3
:1045C0001648FEF7D0FB1648FEF7CDFB1548FEF760
:1045D000CAFB1548FEF7C7FB1448FEF7C4FB144896
:1045E000FEF7C1FB1348FEF7F5FB1348FEF7F2FB9D
:1045F00000BF80BD1011002070110020901100201C
:10460000A01200203011002050110020B011002015
:10461000C411002064120020D8110020EC110020E9
:104620000012002014120020281200203C1200204A
:1046300050120020781200208C12002080B586B025
:1046400000AF786026497A6813465B0013449B00EC
:104650000B4409331B78002B27D107F108031846B8
:1046600004F024F90323FB721D497A6813465B00AA
:1046700013449B000B441B6807F1080211461846BF
:1046800004F026F916497A6813465B0013449B0030
:104690000B44093303221A707A6813465B001344F3
:1046A0009B000F4A13447B6115E00D497A6813465D
:1046B0005B0013449B000B4409331B78032B08D188
:1046C0007A6813465B0013449B00054A13447B61E0
:1046D00001E000237B617B6918461837BD4680BD29
:1046E0009804002080B485B000AFF8600B467A6073
:1046F000FB7200BF1437BD465DF8047B70470000B5
:1047000090B58BB000AFF860B9601346FB71FB68E1
:10471000FB61FB69002B3AD0FB691B7A3B750023D8
:10472000BB7500237B75FB691B680121184604F0EB
:1047300017F9FB691868FB695B6807F114021946F1
:1047400004F02EF9FB691A68FB695B68194610468C
:1047500004F042F9FB691A68FB695B681946104668
:1047600004F05EF903467B837B8B07EE903AF8EE0C
:10477000677A17EE900AFCF7F7F80DA3D3E9002348
:10478000FCF74AF903460C46C7E9083405E04FF048
:1047900000034FF00004C7E90834BA68D7E90834C9
:1047A000C2E9003400BF2C37BD4690BDAFF3008096
:1047B000100010001000F03E80B483B000AF7860AD
:1047C00000BF0C37BD465DF8047B704780B483B0F2
:1047D00000AF786000BF0C37BD465DF8047B7047C2
:1047E00080B483B000AF786000BF0C37BD465DF881
:1047F000047B704780B584B000AFF860B9601346A1
:10480000FB71BB681F2B05D90D4B0E4AFF210E48CB
:1048100006F04CF9FB68BA6853F8223023F0807335
:1048200023F4E063FA79120202F4E06243EA02013F
:10483000FB68BA6843F8221000BF1037BD4680BD40
:10484000E8D40000B0D60000F4D4000080B483B0F7
:1048500000AF78600B46FB707B681B6823F0180282
:10486000FB78DB0003F018031A437B681A6000BF73
:104870000C37BD465DF8047B7047000090B58FB0E3
:1048800000AF786187ED020B87ED001B524A7B6910
:104890005B01134411331B78002B40F08780002309
:1048A00087F82830002387F82930002387F82A303A
:1048B0008023FB62484A7B695B0113441868464ABF
:1048C0007B695B01134404331968434A7B695B01CC
:1048D000134410331B781A46FFF78CFF3E4A7B695E
:1048E0005B01134408331B6807F128021146184680
:1048F00004F06EFB384A7B695B01134408331B6884
:10490000DBB200220121184604F0E6FB324A7B6943
:104910005B011344113304221A702F4A7B695B0137
:10492000134403F11802D7E90234C2E90034022328
:104930003B7600237B76284A7B695B01134418335E
:10494000D3E9003418462146FCF73EFB0346FB61E1
:10495000D7E90001FCF738FB03463B620023BB8428
:104960001D4A7B695B01134408331B681B4A52F8DC
:1049700023303B630021386BFFF768FF164A7B69E1
:104980005B01134408331868134A7B695B011344C5
:104990000C331B68DAB207F11803194604F0FAFB6E
:1049A0007B695B010C4A13447B630FE00A4A7B6915
:1049B0005B01134411331B78042B05D17B695B0128
:1049C000054A13447B6301E000237B637B6B18463D
:1049D0003C37BD4690BD00BFD801002054E0000028
:1049E00080B483B000AF786000BF0C37BD465DF87F
:1049F000047B704790B58BB000AFF86087ED000B7B
:104A0000FB687B627B6A002B2CD07B6A5B7C042B6F
:104A100028D102233B7400237B747B6AD3E90634DC
:104A200018462146FCF7D0FA03467B61D7E900011E
:104A3000FCF7CAFA0346BB610023BB837B6A9B6811
:104A40000A4A52F823303B620021386AFFF7FEFE23
:104A50007B6A98687B6ADB68DAB207F11003194653
:104A600004F098FB00BF2C37BD4690BD54E0000019
:104A700080B485B000AF78607B68FB60FB68002B7A
:104A800006D0FB685B7C042B02D1FB6800225A74C1
:104A900000BF1437BD465DF8047B704780B483B017
:104AA00000AF786000BF0C37BD465DF8047B7047EF
:104AB00080B584B000AFF860B9607A60BB680F2B36
:104AC00006D90A4B0A4A40F2E2210A4805F0EEFFF5
:104AD000FA68BB685B01134403F5805310337A68AE
:104AE0001A6000BF1037BD4680BD00BF2CD5000046
:104AF000E8D6000058D5000080B584B000AFF8605B
:104B0000B9601346FB71BB680F2B06D90C4B0D4ADD
:104B10004FF460710C4805F0C9FFBB685B0103F5F9
:104B200080531833FA681344043303F104735B01B0
:104B30000433FA7992B21A8000BF1037BD4680BDA7
:104B40002CD5000004D7000058D5000090B587B0E0
:104B500000AFF8607A603B600B46FB7200237B611C
:104B6000FB681B68022B00F04D81032B00F0DF81F6
:104B7000012B00F09580954B00221A60934B1B6827
:104B8000934A52F82330002B41D1904B1B68914A35
:104B9000DB00134400229A718C4B1B688D4ADB00AA
:104BA000134400221A71894B1B688A4ADB001344A4
:104BB00000225A71854B1B68864A4FF4E13142F856
:104BC0003310824B1B68184601F09EF97F4B1B681F
:104BD0009B01814A13448149184604F00BF97B4B31
:104BE00018687A4B1A6813461B019B1A9B007C4A73
:104BF0009918764B1B68DB00764A13441A4605F079
:104C000031F9724B1B68724A012142F823107B680C
:104C1000B3F1FF3F20D06D4B1A68724913469B00D9
:104C200013449B000B441B221A60684B1A686D49A1
:104C300013469B0013449B000B4408336A4A1A60D6
:104C4000624B1A68674913469B0013449B000B4450
:104C50000C33664A1A6015E05C4B1A6861491346CA
:104C60009B0013449B000B44043303221A60574BF0
:104C70001A685C4913469B0013449B000B44103395
:104C80005B4A1A60514B1B68504A1268594941F8F7
:104C900023204E4B1B689B00564A13447B61DBE18B
:104CA0004A4B01221A60494B1B68494A52F823308B
:104CB000002B41D1454B1B68464ADB0013440022C0
:104CC0009A71424B1B68434ADB00134400221A715D
:104CD0003E4B1B683F4ADB00134400225A713B4B9A
:104CE0001B683C4A4FF4E13142F83310374B1B68E4
:104CF000184601F009F9354B1B689B01364A1344ED
:104D00003649184604F076F8304B18682F4B1A686D
:104D100013461B019B1A9B00314A99182B4B1B68A9
:104D2000DB002C4A13441A4605F09CF8274B1B68FD
:104D3000274A012142F823107B68B3F1FF3F20D0BE
:104D4000224B1A68274913469B0013449B000B44CF
:104D500000221A601D4B1A68224913469B00134417
:104D60009B000B440833244A1A60184B1A681D49EB
:104D700013469B0013449B000B440C331F4A1A60DC
:104D800015E0124B1A68174913469B0013449B0009
:104D90000B44043300221A600C4B1A681149134665
:104DA0009B0013449B000B441033154A1A60074BB9
:104DB0001B68064A12680F4941F82320034B1B6801
:104DC0009B000C4A13447B6146E100BFFC160020A7
:104DD000001700201C16002034130020580000206B
:104DE000B414002054160020F812002014130020E0
:104DF00030130020E4160020301300203013002070
:104E000034130020AD4B02221A60AC4B1B68AC4A35
:104E100052F82330002B41D1A84B1B68A94ADB0074
:104E2000134400229A71A54B1B68A64ADB00134469
:104E300000221A71A14B1B68A24ADB001344002216
:104E40005A719E4B1B689F4A4FF4E13142F8331070
:104E50009A4B1B68184601F057F8984B1B689B014A
:104E6000994A13449949184603F0C4FF934B1868B4
:104E7000924B1A6813461B019B1A9B00944A99187F
:104E80008E4B1B68DB008F4A13441A4604F0EAFF7E
:104E90008A4B1B688A4A012142F823107B68B3F1D0
:104EA000FF3F20D0854B1A688A4913469B00134464
:104EB0009B000B4400221A60804B1A6885491346F8
:104EC0009B0013449B000B440833834A1A607B4BBE
:104ED0001A68804913469B0013449B000B440C3313
:104EE0007E4A1A6015E0754B1A687A4913469B0092
:104EF00013449B000B44043300221A606F4B1A6862
:104F0000744913469B0013449B000B441033744AAE
:104F10001A606A4B1B68694A1268724941F823207B
:104F2000664B1B689B006F4A13447B6194E0634BA4
:104F300003221A60614B1B68614A52F82330002B30
:104F400041D15E4B1B685F4ADB00134400229A711B
:104F50005A4B1B685B4ADB00134400221A71574B03
:104F60001B68584ADB00134400225A71534B1B68DC
:104F7000544A4FF4E13142F83310504B1B68184645
:104F800000F0C2FF4D4B1B689B014F4A13444F4931
:104F9000184603F02FFF494B1868484B1A68134610
:104FA0001B019B1A9B004A4A9918444B1B68DB0063
:104FB000444A13441A4604F055FF404B1B68404ACC
:104FC000012142F823107B68B3F1FF3F20D03B4B17
:104FD0001A68404913469B0013449B000B4400226F
:104FE0001A60364B1A683B4913469B0013449B00DA
:104FF0000B4408333C4A1A60304B1A683549134653
:105000009B0013449B000B440C33384A1A6015E094
:105010002A4B1A682F4913469B0013449B000B44EC
:10502000043300221A60254B1A682A4913469B0054
:1050300013449B000B4410332D4A1A601F4B1B680E
:105040001E4A1268274941F823201C4B1B689B000D
:10505000244A13447B6100BF7B68B3F1FF3F28D033
:10506000164B1A6813461B019B1A9B002833184ADB
:105070001344181D114B1B681A461E4903F0F8FE15
:105080000E4B18680D4B1A68124913469B001344C7
:105090009B000B4408331C68084B1A680D491346E3
:1050A0009B0013449B000B441B681A46214600F0EA
:1050B000DFF87B6918461C37BD4690BDFC16002002
:1050C000001700201C160020341300205800002078
:1050D000B414002054160020301300203013002098
:1050E00034130020E4160020301300203013002079
:1050F000341300201D53000080B483B000AF7860EB
:105100003960002318460C37BD465DF8047B7047B4
:1051100080B483B000AF7860084611461A46034653
:10512000FB700B46BB7013467B70002318460C3790
:10513000BD465DF8047B704780B586B000AFF8606F
:10514000B9607A60FB683B613B69002B33D03B69F7
:105150001B681F4AD35C012B2DD13B691B681D4A7C
:1051600052F82330012B0FD13B691A681A491346B4
:105170009B0013449B000B4408331B687A68194654
:10518000B868FDF797F80EE03B691A6812491346B4
:105190009B0013449B000B440C331B687A68194630
:1051A000B868FDF787F83B691B68094A0021D154AC
:1051B0000023FB7506E07A680021B86805F0B6FFA9
:1051C0002023FB75FB7D18461837BD4680BD00BF08
:1051D0004C160020CC1600205416002080B586B056
:1051E00000AFF860B9607A60FB683B613B69002BF7
:1051F0002AD03B691B680021184604F075FF03465E
:10520000082B21D03B691A68134913469B001344AD
:105210009B000B4410331B687A68B9681846FDF789
:1052200049F83B6918683B691A680B4913469B00AB
:1052300013449B000B4410331B687A68194604F032
:105240002FFF0346FB7501E02023FB75FB7D18460D
:105250001837BD4680BD00BF5416002080B483B00F
:1052600000AF786000BF0C37BD465DF8047B704727
:1052700080B588B000AFF860B9607A60FB68052B34
:1052800006D9214B214A40F28911214805F00EFC34
:10529000204AFB6852F82330FB61FB6993F82C30FD
:1052A0001B09DBB21A461C4B53F82230BB61FB6969
:1052B00093F82C3003F00F037B61FB695B78DBB262
:1052C000002B01D009231AE0FB6901225A70BB6848
:1052D0001A467969B869FFF7EBFB7A687969B869AA
:1052E00003F0D0FC01227969B869FFF705FC7B69FE
:1052F000DBB201221946B86903F0BFFB0023184650
:105300002037BD4680BD00BF90D50000C4D6000048
:10531000B0D50000D846002014DE000080B582B071
:1053200000AF78600B46FB707B68184600F004F80D
:1053300000BF0837BD4680BD80B586B000AF78603D
:105340007B68052B06D93D4B3D4A40F2AD113D48E7
:1053500005F0ACFB3C4A7B6852F823307B617B69EB
:1053600093F82C301B09DBB21A46384B53F8223025
:105370003B617B6993F82C3003F00F03FB60002244
:10538000F9683869FFF7B8FBFB68DBB20022194601
:10539000386903F072FB7B69DB78DBB2002B04D049
:1053A0007B691033184602F0DBFF7B6900225A70DC
:1053B000274A7B68134401221A70264A7B6852F8F8
:1053C0002330002B1BD124497A6813469B001344D9
:1053D0009B000B440C3318681F497A6813469B00E6
:1053E00013449B000B441B681A4601467868FFF77C
:1053F0003FFF184A7B68012142F823101AE0164942
:105400007A6813469B0013449B000B4408331868CA
:1054100011497A6813469B0013449B000B441B6898
:105420001A4601467868FFF723FF0A4A7B68002185
:1054300042F8231000BF1837BD4680BD90D500004C
:105440001CD70000B0D50000D846002014DE0000B4
:105450004C160020CC1600205416002080B590B0C9
:1054600000AF78600B46FB70FB78002B27D107F16B
:10547000240300221A605A609A60DA601A615A6145
:105480002D4A7B6852F833307B62012387F828303D
:10549000012387F829304FF0FF333B6307F12403E2
:1054A000184603F069FF244A7B68DB00134401229D
:1054B0001A717B68DB00204A1344FB6336E0FB78FB
:1054C000012B31D107F10C0300221A605A609A6057
:1054D000DA601A615A61184A7B6852F83330FB600F
:1054E00001233B754FF0FF33BB6107F10C031846F6
:1054F00003F0B2FF104A7B68DB00134402221A71EA
:105500007B68292B0AD97B682C2B07D80A4A7B6831
:1055100052F833300121184603F0D6FF7B68DB00D8
:10552000054A1344FB6301E00023FB63FB6B184651
:105530004037BD4680BD00BF5C00002080B586B00E
:1055400000AF78607B683B613B69002B0BD03B6907
:105550001B79012B07D13B691B68184603F0C2FF7A
:105560000346FB7501E00023FB753B691B681B0AC2
:10557000DBB2FB603B691B68DBB2BB60FB68022BE4
:1055800002D1BB68062B05D0FB68002B09D1BB6894
:10559000042B06D1FB7D002B0CBF01230023DBB2C3
:1055A000FB75FB7D18461837BD4680BD80B586B0BB
:1055B00000AF78600B46FB707B687B617B69002BDA
:1055C0002FD07B691B79022B2BD17B691B681B0AAF
:1055D000DBB23B617B691B68DBB2FB603B69012B83
:1055E00005D1FB68162B08D0FB68152B05D03B694D
:1055F000042B0FD1FB681A2B0CD17B691A68FB783E
:10560000012B14BF01230023DBB21946104603F01F
:105610005BFF06E07B691B68FA781146184603F0C9
:1056200053FF00BF1837BD4680BD80B485B000AFC2
:1056300078607B68FB60FB68002B0ED0FB681B79F1
:10564000022B03D1FB6800221A7106E0FB681B796C
:10565000012B02D1FB6800221A7100BF1437BD462E
:105660005DF8047B704780B400AFFEE780B483B080
:1056700000AF78607B68013B032B0BD801A252F886
:1056800023F000BF95560000955600009556000087
:105690009556000000BFFEE77047704700200021CC
:1056A00004460D46084805F01FFA05F067FA204643
:1056B000294601F0E7F90548002101F017FB01F048
:1056C00071FA05F01DFA000021AB000080D7000040
:1056D00080B584B000AFF860B9601346FB71BB6859
:1056E0001F2B05D90D4B0E4AFF210E4805F0DEF9A0
:1056F000FB68BA6853F8223023F0807323F4E06328
:10570000FA79120202F4E06243EA0201FB68BA6825
:1057100043F8221000BF1037BD4680BD18D60000E8
:10572000A8D7000024D6000080B483B000AF786012
:105730000B46FB707B68FA781A7000BF0C37BD46C9
:105740005DF8047B7047000080B584B000AF3B4635
:1057500000221A605A609A60DA60064B3B600223AE
:105760007B723B461946002002F0F6FE00BF103760
:10577000BD4680BD80F0FA0280B584B000AF074A14
:105780003B1D07CA83E807003B1D1946002002F0B5
:1057900031FF00BF1037BD4680BD00BF5CD60000A2
:1057A00080B500AF2A210848FFF7BEFF0022122172
:1057B0000648FFF78DFFFFF7C7FFFFF7DDFF04483F
:1057C00002F06CFF00BF80BD00E007400090044085
:1057D00090D7000080B582B000AF7860034800F039
:1057E000A0FA00BF0837BD4680BD00BF10460020AC
:1057F00098B500AF094B0A4A1A600A4B0A4A1C1DA9
:1058000013460FCB84E80F0000F0E1FA0246054B87
:105810001A60064B034A1A6000BF98BD104600206C
:1058200018460020F045002080D7000008460020E0
:1058300080B586B002AF87ED010A38600223FB60B5
:10584000FFF7D6FF164800F05CFA0346BB60154828
:1058500000F057FA0346BB60002300930023FA6868
:105860001149124800F08AFA0346BB600023104A2F
:105870000121104800F0C3FA0346BB60D7ED017A5E
:105880009FED0D7A67EE877AFCEEE77A17EE901AB5
:10589000084800F0DBFA00BF1037BD4680BD00BFEE
:1058A0001046002008460020BD5800001846002081
:1058B000D5570000CC45002000007A4480B586B062
:1058C00000AF7861184B1B681B68002B0CBF0123CD
:1058D0000023DBB21A46154B1A7011E03B461449FF
:1058E000184600F031FAFDF7EBFA0F4B1B681B6806
:1058F000002B14BF01230023DBB21A460D4B1A7094
:105900000A4B1B78DBB2002BE8D1084B00221A703F
:10591000786900F011F8002000F060FA00231846C2
:105920001837BD4680BD00BFACD600005A0000202D
:10593000104600200446002080B582B000AF786099
:10594000074B01221A60074B00221A70FEF718FE5F
:10595000054800F0E6F9002318460837BD4680BD2B
:105960002C4600205A0000200846002080B586B052
:1059700000AF7861396100F097FE00F0BCF80A4B87
:105980001B6800221A60FEF7D7FA00209FED070A75
:10599000FFF74EFF3B460649184600F0D5F90023B5
:1059A00018461837BD4680BDACD600006F12833A4A
:1059B0000846002080B500AF002003F095FA00BF34
:1059C00080BD80B500AF012003F08EFA00BF80BD1E
:1059D00080B500AF022003F087FA00BF80BD80B51C
:1059E00000AF032003F080FA00BF80BD80B500AF98
:1059F000042003F079FA00BF80BD80B500AF052018
:105A000003F072FA00BF80BD80B500AF062003F03E
:105A10006BFA00BF80BD80B500AF072003F064FAC9
:105A200000BF80BD80B500AF082003F05DFA00BF65
:105A300080BD80B500AF092003F056FA00BF80BDDD
:105A400080B500AF0A2003F04FFA00BF80BD80B5DB
:105A500000AF0B2003F048FA00BF80BD80B500AF57
:105A60000C2003F041FA00BF80BD80B500AF0D20CF
:105A700003F03AFA00BF80BD80B500AF0E2003F0FE
:105A800033FA00BF80BD80B500AF0F2003F02CFAC1
:105A900000BF80BD80B500AF002003F03DFA00BF1D
:105AA00080BD80B500AF002004F0C6F800BF80BD07
:105AB00080B500AF012004F0BFF800BF80BD80B505
:105AC00000AF022004F0B8F800BF80BD80B500AF81
:105AD000032004F0B1F800BF80BD80B500AF042002
:105AE00004F0AAF800BF80BD80B500AF052004F027
:105AF000A3F800BF80BD80B582B000AF02F06AFCA1
:105B00000023FB7106E0FB79184602F04FFEFB799B
:105B10000133FB71FB79042BF5D9FFF741FE00BF80
:105B20000837BD4680BD80B400AFFEE780B400AF4B
:105B3000FEE780B400AFFEE780B400AFFEE780B4BC
:105B400000AFFEE780B400AFFEE780B400AFFEE731
:105B500080B400AFFEE780B400AFFEE780B400AFD2
:105B6000FEE780B400AFFEE780B400AFFEE780B48C
:105B700000AFFEE780B400AFFEE780B400AFFEE701
:105B800080B400AFFEE780B400AFFEE780B400AFA2
:105B9000FEE780B400AFFEE780B400AFFEE780B45C
:105BA00000AFFEE780B400AFFEE780B400AFFEE7D1
:105BB00080B400AFFEE780B400AFFEE780B400AF72
:105BC000FEE780B400AFFEE780B400AFFEE780B42C
:105BD00000AFFEE780B400AFFEE780B400AFFEE7A1
:105BE00080B400AFFEE780B400AFFEE780B400AF42
:105BF000FEE780B400AFFEE780B400AFFEE780B4FC
:105C000000AFFEE780B400AFFEE780B400AFFEE770
:105C100080B400AFFEE780B400AFFEE780B400AF11
:105C2000FEE780B400AFFEE780B400AFFEE780B4CB
:105C300000AFFEE780B400AFFEE780B400AFFEE740
:105C400080B400AFFEE780B400AFFEE780B400AFE1
:105C5000FEE780B400AFFEE780B400AFFEE780B49B
:105C600000AFFEE780B400AFFEE780B400AFFEE710
:105C700080B400AFFEE780B400AFFEE780B400AFB1
:105C8000FEE780B400AFFEE780B400AFFEE784B06B
:105C900080B582B000AF07F1100C8CE80F003B69B3
:105CA000796A184601F074FA03467B607B681846EF
:105CB0000837BD46BDE8804004B0704784B080B569
:105CC00000AF07F1080C8CE80F00BB68F9691846B3
:105CD00001F07EFA03461846BD46BDE8804004B098
:105CE000704780B582B000AF786039607B684FF054
:105CF000FF323968184601F079FA78680837BD46EE
:105D000080BD80B485B000AF78607B6801225A60A6
:105D10000123FB60FB6818461437BD465DF8047B21
:105D2000704780B584B002AF78607B681B687A6882
