:1000000000000020F5040000E55E0000EB5E00004B
:10001000F15E0000F75E0000FD5E000000000000E1
:100020000000000000000000000000006505000066
:10003000035F0000000000000B0600006B060000DC
:10004000D5560000E3560000F1560000FF560000B0
:100050000D5700001B5700002957000037570000BC
:100060004557000053570000615700006F570000CC
:100070007D5700008B57000099570000A7570000DC
:10008000B5570000095F00000F5F0000155F00001A
:100090001B5F0000215F0000275F00002D5F000054
:1000A000335F0000395F00003F5F0000455F0000E4
:1000B0004B5F0000515F0000575F0000C357000016
:1000C0005D5F0000D1570000635F0000DF57000054
:1000D000695F0000ED5700006F5F0000755F000072
:1000E0007B5F0000815F0000875F00008D5F000084
:1000F000935F0000995F00009F5F0000A55F000014
:1001000005050000050500000505000005050000C7
:10011000AB5F0000B15F0000B75F0000BD5F000093
:10012000C35F0000C95F0000CF5F0000D55F000023
:10013000DB5F0000E15F0000E75F0000ED5F0000B3
:10014000F35F0000F95F0000FB570000FF5F000055
:1001500009580000056000000B60000011600000FD
:10016000176000001D60000023600000296000008F
:100170002F600000356000003B600000416000001F
:1001800047600000050500000505000005050000AA
:100190000505000005050000050500000505000037
:1001A0000505000005050000050500000505000027
:1001B0000505000005050000050500000505000017
:1001C0000505000005050000050500000505000007
:1003F000050500000505000005050000FFFFFFFFE3
:10040000FFFFFFFFFFFFFFFFFFFFFFFFFEFFFFFFFD
:1004400010B5054C237833B9044B13B10448AFF30E
:1004500000800123237010BDB810002000000000B0
:10046000E00E010008B5034B1BB103490348AFF38D
:10047000008008BD00000000BC100020E00E01005C
:10048000154B002B08BF134B9D46A3F5803A002166
:100490008B460F461348144A121A0DF0B1F80F4B51
:1004A000002B00D098470E4B002B00D0984700201F
:1004B000002104000D000D48002802D00C480CF06B
:1004C0007DFD0CF0C5FD2000290005F0DFF80CF0E3
:1004D00081FD00BF000008000000002000000000B7
:1004E000BD530000B8100020A84A0020BDCF000076
:1004F000F5CF000072B606F045F805F0DDFF62B6F4
:10050000FFF7BEFFFFF7FEBF80F309887047EFF3E8
:1005100009807047684680F309885A480078C00708
:1005200014BF0220032080F314887047DFF858C1FD
:10053000EFF305831B0618BF6047EFF31483DB0757
:1005400008BF604700DF7047DFF840C1EFF3058365
:100550001B0618BF6047EFF31483DB0708BF604733
:1005600000DF7047EFF30980816911F8021CE1BBDD
:1005700090E80F1010B5E047BDE81040EFF3098C8C
:100580008CE80700424B93E80600914208BF704791
:1005900041B91EF0100F16D13E49086820F0010045
:1005A000086010E01EF0100F06BF2CED108A01202D
:1005B000002081F825002CE9F00FC1F828C00CB408
:1005C00009F0F0FB0CBC1A60D2F828C0BCE8F00FB0
:1005D00092F8250000280EBF6FF0020E6FF0120E89
:1005E000BCEC108A8CF30988704710B52A4A12684F
:1005F000914209D8294C54F8214090E80F10A047A7
:10060000EFF3098C8CE80F0010BD10B509F04EFB1C
:10061000BDE810401E4B93E80600914208BF7047AA
:10062000EFF3098C1EF0100F06BF2CED108A01208D
:10063000002081F825002CE9F00FC1F828C00CB487
:1006400009F0B0FB0CBC1A60D2F828C0BCE8F00F6F
:1006500092F8250000280EBF6FF0020E6FF0120E08
:10066000BCEC108A8CF30988704710B509F07CFB4C
:10067000FFF7CEBF10B509F075FB09F075FBFFF76A
:10068000C7BF000050FC0000319600004D960000EE
:10069000444A002034EF00E000000000FCFFFFFFB0
:1006A00081F0004102E000BF83F0004330B54FEA23
:1006B00041044FEA430594EA050F08BF90EA020F90
:1006C0001FBF54EA000C55EA020C7FEA645C7FEA23
:1006D000655C00F0E2804FEA5454D4EB5555B8BF46
:1006E0006D420CDD2C4480EA020281EA030382EAB7
:1006F000000083EA010180EA020281EA0303362D49
:1007000088BF30BD11F0004F4FEA01314FF4801C1B
:100710004CEA113102D0404261EB410113F0004F2D
:100720004FEA03334CEA133302D0524263EB4303E4
:1007300094EA050F00F0A780A4F10104D5F1200E82
:100740000DDB02FA0EFC22FA05F2801841F10001DD
:1007500003FA0EF2801843FA05F359410EE0A5F1B1
:1007600020050EF1200E012A03FA0EFC28BF4CF0E2
:10077000020C43FA05F3C01851EBE37101F0004598
:1007800007D54FF0000EDCF1000C7EEB00006EEBA5
:100790000101B1F5801F1BD3B1F5001F0CD349082F
:1007A0005FEA30004FEA3C0C04F101044FEA445286
:1007B00012F5800F80F09A80BCF1004F08BF5FEA0D
:1007C000500C50F1000041EB045141EA050130BDED
:1007D0005FEA4C0C404141EB010111F4801FA4F190
:1007E0000104E9D191F0000F04BF01460020B1FAE5
:1007F00081F308BF2033A3F10B03B3F120020CDA1D
:100800000C3208DD02F1140CC2F10C0201FA0CF0FA
:1008100021FA02F10CE002F11402D8BFC2F1200C5F
:1008200001FA02F120FA0CFCDCBF41EA0C01904015
:10083000E41AA2BF01EB0451294330BD6FEA04045E
:100840001F3C1CDA0C340EDC04F11404C4F1200249
:1008500020FA04F001FA02F340EA030021FA04F35B
:1008600045EA030130BDC4F10C04C4F1200220FAB2
:1008700002F001FA04F340EA0300294630BD21FAF0
:1008800004F0294630BD94F0000F83F4801306BFB6
:1008900081F480110134013D4EE77FEA645C18BFAA
:1008A0007FEA655C29D094EA050F08BF90EA020F41
:1008B00005D054EA000C04BF1946104630BD91EA39
:1008C000030F1EBF0021002030BD5FEA545C05D13C
:1008D0004000494128BF41F0004130BD14F580047B
:1008E0003CBF01F5801130BD01F0004545F0FE41EF
:1008F00041F470014FF0000030BD7FEA645C1ABF24
:10090000194610467FEA655C1CBF0B46024650EA5A
:10091000013406BF52EA033591EA030F41F4002186
:1009200030BD00BF90F0000F04BF0021704730B50C
:100930004FF4806404F132044FF000054FF00001E1
:1009400050E700BF90F0000F04BF0021704730B5A2
:100950004FF4806404F1320410F0004548BF404277
:100960004FF000013EE700BF42004FEAE2014FEACC
:1009700031014FEA02701FBF12F07F4393F07F4FA7
:1009800081F06051704732F07F4208BF704793F0AA
:100990007F4F04BF41F40021704730B54FF46074BD
:1009A00001F0004521F000411CE700BF50EA0102C0
:1009B00008BF704730B54FF000050AE050EA010269
:1009C00008BF704730B511F0004502D5404261EBD9
:1009D00041014FF4806404F132045FEA915C3FF41A
:1009E000D8AE4FF003025FEADC0C18BF03325FEAB7
:1009F000DC0C18BF033202EBDC02C2F1200300FA68
:100A000003FC20FA02F001FA03FE40EA0E0021FA8C
:100A100002F11444BDE600BF70B54FF0FF0C4CF47A
:100A2000E06C1CEA11541DBF1CEA135594EA0C0F2C
:100A300095EA0C0F00F0DEF82C4481EA030621EA67
:100A40004C5123EA4C5350EA013518BF52EA0335A2
:100A500041F4801143F4801338D0A0FB02CE4FF054
:100A60000005E1FB02E506F00042E0FB03E54FF084
:100A70000006E1FB03569CF0000F18BF4EF0010E7C
:100A8000A4F1FF04B6F5007F64F5407404D25FEA78
:100A90004E0E6D4146EB060642EAC62141EA55512B
:100AA0004FEAC52040EA5E504FEACE2EB4F1FD0C6D
:100AB00088BFBCF5E06F1ED8BEF1004F08BF5FEAEB
:100AC000500E50F1000041EB045170BD06F000469D
:100AD00046EA010140EA020081EA0301B4EB5C044A
:100AE000C2BFD4EB0C0541EA045170BD41F4801142
:100AF0004FF0000E013C00F3AB8014F1360FDEBF67
:100B0000002001F0004170BDC4F10004203C35DA42
:100B10000C341BDC04F11404C4F1200500FA05F3C5
:100B200020FA04F001FA05F240EA020001F0004266
:100B300021F0004110EBD37021FA04F642EB0601DC
:100B40005EEA430E08BF20EAD37070BDC4F10C0406
:100B5000C4F1200500FA04F320FA05F001FA04F2CA
:100B600040EA020001F0004110EBD37041F10001B6
:100B70005EEA430E08BF20EAD37070BDC4F12005C1
:100B800000FA05F24EEA020E20FA04F301FA05F229
:100B900043EA020321FA04F001F0004121FA04F2D1
:100BA00020EA020000EBD3705EEA430E08BF20EAA1
:100BB000D37070BD94F0000F0FD101F000464000DB
:100BC00041EB010111F4801F08BF013CF7D041EA5D
:100BD000060195F0000F18BF704703F00046520061
:100BE00043EB030313F4801F08BF013DF7D043EA32
:100BF0000603704794EA0C0F0CEA135518BF95EAE8
:100C00000C0F0CD050EA410618BF52EA4306D1D16E
:100C100081EA030101F000414FF0000070BD50EA8D
:100C2000410606BF1046194652EA430619D094EA17
:100C30000C0F02D150EA013613D195EA0C0F05D101
:100C400052EA03361CBF104619460AD181EA030155
:100C500001F0004141F0FE4141F470014FF000000D
:100C600070BD41F0FE4141F4780170BD70B54FF0A8
:100C7000FF0C4CF4E06C1CEA11541DBF1CEA135528
:100C800094EA0C0F95EA0C0F00F0A7F8A4EB05040A
:100C900081EA030E52EA03354FEA013100F0888001
:100CA0004FEA03334FF0805545EA131343EA1263CA
:100CB0004FEA022245EA111545EA10654FEA00267F
:100CC0000EF000419D4208BF964244F1FD0404F538
:100CD000407402D25B084FEA3202B61A65EB030594
:100CE0005B084FEA32024FF480104FF4002CB6EB51
:100CF000020E75EB030E22BFB61A754640EA0C00D1
:100D00005B084FEA3202B6EB020E75EB030E22BF10
:100D1000B61A754640EA5C005B084FEA3202B6EB51
:100D2000020E75EB030E22BFB61A754640EA9C0010
:100D30005B084FEA3202B6EB020E75EB030E22BFE0
:100D4000B61A754640EADC0055EA060E18D04FEA9E
:100D5000051545EA16754FEA06164FEAC30343EA3E
:100D600052734FEAC2025FEA1C1CC0D111F4801F0B
:100D70000BD141EA00014FF000004FF0004CB6E704
:100D800011F4801F04BF01430020B4F1FD0C88BFA3
:100D9000BCF5E06F3FF6AFAEB5EB030C04BFB6EBAE
:100DA000020C5FEA500C50F1000041EB045170BDA1
:100DB0000EF0004E4EEA113114EB5C04C2BFD4EBCE
:100DC0000C0541EA045170BD41F480114FF0000E52
:100DD000013C90E645EA060E8DE60CEA135594EACE
:100DE0000C0F08BF95EA0C0F3FF43BAF94EA0C0FD1
:100DF0000AD150EA01347FF434AF95EA0C0F7FF446
:100E000025AF104619462CE795EA0C0F06D152EA99
:100E100003353FF4FDAE1046194622E750EA41067D
:100E200018BF52EA43067FF4C5AE50EA41047FF48E
:100E30000DAF52EA43057FF4EBAE12E74FF0FF3CF3
:100E400006E000BF4FF0010C02E000BF4FF0010CC4
:100E50004DF804CD4FEA410C7FEA6C5C4FEA430C3D
:100E600018BF7FEA6C5C1BD001B050EA410C0CBF8C
:100E700052EA430C91EA030F02BF90EA020F0020EE
:100E8000704710F1000F91EA030F58BF994208BF55
:100E900090422CBFD8176FEAE37040F00100704712
:100EA0004FEA410C7FEA6C5C02D150EA013C07D169
:100EB0004FEA430C7FEA6C5CD6D152EA033CD3D0B4
:100EC0005DF8040B704700BF8446104662468C46AE
:100ED0001946634600E000BF01B5FFF7B7FF0028E1
:100EE00048BF10F1000F01BD4DF808EDFFF7F4FF0A
:100EF0000CBF012000205DF808FB00BF4DF808ED95
:100F0000FFF7EAFF34BF012000205DF808FB00BFB7
:100F10004DF808EDFFF7E0FF94BF012000205DF8D9
:100F200008FB00BF4DF808EDFFF7CEFF94BF01208E
:100F300000205DF808FB00BF4DF808EDFFF7C4FF87
:100F400034BF012000205DF808FB00BF4FEA410CD0
:100F50007FEA6C5C02D150EA013C0AD14FEA430CB3
:100F60007FEA6C5C02D152EA033C02D14FF00000F0
:100F700070474FF0010070474FEA410212F500122E
:100F800015D211D56FF47873B3EB625212D94FEAD0
:100F9000C12343F0004343EA505311F0004F23FABA
:100FA00002F018BF404270474FF00000704750EA0F
:100FB000013005D111F0004008BF6FF000407047CC
:100FC0004FF00000704700BF4A0011D212F5001226
:100FD00011D20DD56FF47873B3EB62520ED44FEA91
:100FE000C12343F0004343EA505323FA02F0704711
:100FF0004FF00000704750EA013002D14FF0FF304F
:1010000070474FF0000070474FEA4102B2F1E043F1
:1010100024BFB3F5001CDCF1FE5C0DD901F0004CDF
:101020004FEAC0024CEA5070B2F1004F40EB83002F
:1010300008BF20F00100704711F0804F21D113F15B
:101040003872BCBF01F00040704741F480114FEA94
:101050005252C2F11802C2F1200C10FA0CF320FA1D
:1010600002F018BF40F001004FEAC1234FEAD3233A
:1010700003FA0CFC40EA0C0023FA02F34FEA4303A4
:10108000CCE77FEA625307D150EA01331EBF4FF02D
:10109000FE4040F44000704701F0004040F0FE4048
:1010A00040F40000704700BF53B94AB9002908BF97
:1010B00000281CBF4FF0FF314FF0FF3001F0F8B8AF
:1010C000ADF1080C6DE904CE00F006F8DDF804E09F
:1010D000DDE9022304B070472DE9F047089E04467D
:1010E0008846002B4BD18A42154667D9B2FA82F264
:1010F0004AB1C2F1200701FA02F320FA07F795403E
:1011000047EA030894404FEA154E230CB8FBFEF75C
:101110001FFA85FC0EFB178843EA084307FB0CF116
:10112000994209D9EB1807F1FF3080F01B819942F1
:1011300040F21881023F2B445B1AA4B2B3FBFEF0CD
:101140000EFB103344EA034400FB0CFCA44509D910
:101150002C1900F1FF3380F00781A44540F204818F
:1011600002382C4440EA0740A4EB0C0400271EB1CF
:10117000D4400023C6E900433946BDE8F0878B42DE
:1011800009D9002E00F0EB800027C6E9000138469F
:101190003946BDE8F087B3FA83F7002F47D18B4279
:1011A00002D3824200F2FA80841A61EB0303012029
:1011B0009846002EE0D0C6E90048DDE702B9FFDE20
:1011C000B2FA82F2002A40F08F80491B4FEA154E96
:1011D0001FFA85F80127B1FBFEFC230C0EFB1C1146
:1011E00043EA014308FB0CF1994207D9EB180CF1D3
:1011F000FF3002D2994200F2CD808446591AA3B240
:10120000B1FBFEF00EFB101443EA044408FB00F8A7
:10121000A04507D92C1900F1FF3302D2A04500F2F6
:10122000B6801846A4EB080440EA0C409FE7C7F1DB
:10123000200CBB4022FA0CFE4EEA030E01FA07F422
:1012400020FA0CF521FA0CF34FEA1E482543B3FBB4
:10125000F8F92C0C08FB19331FFA8EFA44EA034301
:1012600009FB0AF49C4202FA07F200FA07F10BD9D3
:101270001EEB030309F1FF3080F087809C4240F2AF
:101280008480A9F1020973441B1BADB2B3FBF8F0D3
:1012900008FB103345EA034400FB0AFAA24508D9CB
:1012A0001EEB040400F1FF336BD2A24569D902386A
:1012B000744440EA0940A0FB0289A4EB0A044C45AF
:1012C000C2464B4654D351D0002E69D0B1EB0A052B
:1012D00064EB030404FA0CFCFD40FC404CEA0505F9
:1012E000C6E90054002747E7C2F1200320FA03F7BC
:1012F000954001FA02F021FA03F34FEA154E384304
:10130000010CB3FBFEF71FFA85F80EFB173341EA19
:10131000034107FB08F38B4204FA02F407D969186A
:1013200007F1FF3C2FD28B422DD9023F2944CB1A23
:1013300081B2B3FBFEF00EFB103341EA034100FB28
:1013400008F38B4207D9691800F1FF3C17D28B4292
:1013500015D902382944C91A40EA07473BE73746FE
:10136000304609E70746E7E61846FBE64145ABD2BB
:10137000B8EB020A69EB0E0201381346A4E7604697
:10138000E9E7184695E76746D1E781467CE70238EA
:101390002C4447E7ACF1020C2B442FE7384608E712
:1013A0003746E9E603685A004CBF43F0004323F098
:1013B00000431844704700BF61B32DE9F84F01F1B5
:1013C000FF3A90460646D146002707EB090404EB96
:1013D000D4746410E50071190846FFF7E3FFA245D5
:1013E000834605F10800304409D0FFF7DBFFC34511
:1013F00000F1FF3005D8404509D2671CE5E7C34539
:1014000005D9A74202D004F1FF39DEE700210846E2
:10141000BDE8F88F08467047012807D0022807D09A
:10142000044B00280CBF1846002070470248704744
:1014300002487047051B0000091B00000D1B00003F
:1014400030B5254B83B004468D1E4BB301A9284609
:10145000AFF30080F0B101992A46FFF7ADFF0146D6
:10146000C0B1FFF79FFF4B68A064012B2ED0002B6B
:1014700001F1040026DBFFF795FF0023C4E9130305
:101480000368002B12DBFFF78DFF00232061184655
:1014900003B030BD002323610923184603B030BDDB
:1014A0000E490F48091AC9100191D5E7C3F303602B
:1014B000FFF7B2FF002814BF00230923206118465C
:1014C00003B030BD0123C4E91303D9E7002323612E
:1014D0000523184603B030BD000000005C17010072
:1014E0000C1301000368DA0710B5044606D49B0705
:1014F00000F1480009D500F05FFC2368590709D5C1
:101500001A070ED5DB0613D510BD00F04DFC23687D
:101510005907F5D404F1D00000F056FC23681A07EF
:10152000F0D404F5A87000F057FC2368DB06EBD478
:1015300004F5E870BDE8104000F092BC036803B108
:1015400003441846704700BF09207047704700BF2A
:1015500070B504460D4608E02B6C63612A4623698A
:10156000214601209847082808D1296C2046FFF71A
:1015700067FF06460028EFD00BF0FAFC0728FBD1E6
:101580003046296CFFF7E2FF281D00F001FC00BF88
:101590002DE9F0470C1D054617460FCCADF5727DC1
:1015A00003AE0FC60FCC0FC60FCC0FC694E80F00CA
:1015B00002ACD5F80C80D5F8189086E80F0000230F
:1015C000236021E0236C6B614FF4F07221467AA80E
:1015D00000F070FE2B697AAA294630469847889B0E
:1015E000CDE900498246636431462B462A460120F4
:1015F000C0470746F8B94FF4F0727AA9204600F0C8
:1016000059FEBAF1080F1CD1216C2846FFF718FFCC
:10161000002F08BF0926074618BF0A260028D1D088
:10162000A36B46F01001CDE900492A46636401200E
:101630002B46C04700B1092738460DF5727DBDE83D
:10164000F087BAF1070FF6D13846216CFFF77EFF1D
:1016500003A800F09DFB00BF406C7047F0B5CB6B5A
:101660000B640D1D0F4606460FCDF9B001AC0FC43B
:101670000FCD0FC40FCD0FC495E80F004FF0FF350D
:1016800084E80F00009506E033696A4631469847C2
:101690000828044608D110993046FFF7D1FE0028EB
:1016A000F2D0092079B0F0BD6846FFF71BFF062C89
:1016B000F7D139463046FFF74BFF00BF30B4DD6B42
:1016C000C160826119461D64002230BC60E700BF22
:1016D00070B5C66843690B64BEB903690A4604461F
:1016E0000D46014602209847072807D0082803D155
:1016F00029462046FFF72CFF0BF03AFC3046296CB8
:10170000FFF724FF281D00F043FB0122FFF740FFF5
:101710000BF02EFCC2681AB1CA6B0A64002237E7CC
:101720009CE700BF704700BF836813B101460120EA
:1017300018477047042907D8DFE801F003080608B6
:1017400008000BB90F2A03D9022070470120704707
:1017500000EB820218465368009A1360704700BF7E
:1017600010B584B0002303AC0A4600941946FFF775
:10177000E1FF039804B010BD042907D8DFE801F0A9
:101780000308060808000BB90F2A03D90220704786
:101790000120704700EB8200009A126842601846F0
:1017A000704700BF10B584B004AC002344F8042D8A
:1017B0000A4600941946FFF7DFFF04B010BD00BFD2
:1017C000F0B5D36B1364151D07460E460FCDADF56E
:1017D0000F7D17AC0FC40FCD0FC40FCD0FC495E80C
:1017E0000F004FF0FF3584E80F00169510E016A8A3
:1017F000FFF7D8FF314616A8B84716AA694678B948
:10180000049B08209847052804460AD0092807D0D9
:1018100026996846FFF714FE6A460C210028E6D098
:10182000092416A8FFF75EFE20460DF50F7DF0BDDA
:101830002DE9F04F0D46C96C89B00C1D164600F01D
:10184000030B0A6806941F46002B68D0130CD9B20C
:1018500012048DF81D30022304EB810405928DF8EB
:101860001C302B6DBBF1020F08BFAC6B13F00103F2
:1018700046D1019300F008030093D4F80090B9F129
:10188000000F00F0F380022F45D0B4F80090B4F8B8
:1018900002800434AB6C28F0010A0F2130469A44D0
:1018A000FFF75EFF824534D829F001035344834299
:1018B00094BF002001204FEA480808F0020809F010
:1018C000010948EA0908B8F1010F3AD031D3B8F15B
:1018D000020F1AD1236823F0004ABBF1000F66D132
:1018E00030B1009A002A6CD0BAF1000F00F090805D
:1018F000002B00DA04340AF1010304EB8304BCE793
:10190000304605A900F046FB78B1092009B0BDE8D2
:10191000F08F0020CFE7D4F804800834BAE7120231
:1019200003230592ADF81C309BE7082009B0BDE801
:10193000F08FBBF1000F02D0002840F0B4800434D7
:101940009BE7BBF1000F18D1A8B1D4E90023991C83
:101950004FEAD272D9D005F158010133049100F059
:10196000B580201DFFF7EAFD04AB01462846AFF322
:101970000080002867D108347FE70D213046D5F874
:101980002080FFF7EDFE8045F5D1AB6A9C42F2D195
:101990002046FFF707FD0F2102463046FFF702FF02
:1019A00030462A460021FFF7FDFE0720AEE70D2155
:1019B0003046D5F82080FFF7D3FE804532D023682B
:1019C00096E7BAF1000F23D005F1580304F104089B
:1019D000CDF808B0DDF800900397A3461C4602E05E
:1019E0005745B94640D040460494FFF7A7FD04ABE5
:1019F000014600222846AFF3008009F1010708F1F3
:101A000004080028ECD0D1455C46DDE902B7D6D108
:101A100030460D21FFF7A4FE049B2862C5E9093476
:101A2000062073E7AB6A9C42C9D104224FF000083C
:101A3000A318C5E90AA8C5E90C23236843454DDB73
:101A40000123019357E780460D213046FFF788FEBA
:101A5000B8F1020F28623ED12B46049A43F82C2F8E
:101A60006B62AC62062051E75C46D1E705A93046BF
:101A700000F090FA00287FF448AF019B002B3FF460
:101A800054AF0F213046FFF76BFE0E210246304661
:101A9000FFF788FE30461A4A0F21FFF783FE072022
:101AA00009B0BDE8F08F2046FFF77CFC0434074600
:101AB000AC632846AFF3008000283FF426AF3046E1
:101AC0003A460F21FFF76EFE07201FE730460D2133
:101AD000FFF746FE2862049B6B62C2E70AF1010031
:101AE00004EB8000FFF75EFC0F2102463046FFF753
:101AF00059FE30462A464146FFF754FE072005E7C7
:101B000000000000002393E6012391E602238FE604
:101B10002DE9F0410546C4B0042906D8DFE801F0FC
:101B20004D2B05030900032B5FD0022044B0BDE814
:101B3000F081002BF9D1102AF7D82B68DC0600F1D0
:101B4000F48022AC2046019200F094F9A86B019A2F
:101B50000023012606FA03F1114203D0016844F87C
:101B6000231004300133042BF4D1A863204600F085
:101B700077F90020DAE7012B4FEA124697B252D0EC
:101B8000052BD2D106EB0708B8F1200FCDD80F2EC8
:101B900040F29980B846002F40F0DB80AA6BAA6320
:101BA0000F2E40F2BE80B8F1000F02D002A800F064
:101BB0000BF9002044B0BDE8F081002BB5D1AC6B2F
:101BC00097B2281D012606FA03F1394203F10103F9
:101BD00002D0216801600434102B00F10400F2D11E
:101BE00012F40050E5D1AC63A0E7160C97B2F319DC
:101BF000102B9AD82B681A075DD422AC204600F02F
:101C00000DF904EBC601AB6B3FB103EBC7021868DB
:101C100041F8040B04339342F9D12046AB6300F042
:101C2000DBF8002082E7F219102A3FF67EAF0F2E74
:101C30003FF67BAF2A68D10708D5284622F0030279
:101C400040F8482B019300F0B3F8019B019322ACBC
:101C5000204600F0ADF8A96B019B002F00F09580A5
:101C60007F0004EBC6044FF00008043C01EB870240
:101C700051F8040B44F8040F9142F9D1B8F1000F68
:101C80000FD002AC102E314638BF102104EBC10139
:101C9000843902EBC80452F8040B41F8040F944253
:101CA000F9D1012B7FF47BAF22AC0432AA6320462A
:101CB00000F07AF87DE723F008032B6005F5A870A3
:101CC00000F0ACF899E7B8F1100F2A6843D9D007B3
:101CD000A8F110080BD5284622F0010242F00202BA
:101CE00040F8482B019300F06BF82A68019B5107DC
:101CF00025D40F2E04D822A8019300F061F8019B8F
:101D0000019302AC204600F063F8C6F110010029EF
:101D1000AA6B019BB6DD22AC4F0004EBC604114652
:101D2000A3E722A800F048F83DE723F010032B605A
:101D300005F5E870019200F09DF8019A01E7284648
:101D400022F0040240F8D02B019300F041F8019BEF
:101D5000CFE72A68CBE7D0070AD5284622F0010250
:101D600042F0020240F8482B019300F029F8019B51
:101D7000019322AC204600F023F8B846A96B019BE2
:101D8000002F7FF46DAF0A4609E70A468DE700BFD2
:101D900000F1340191E838009C46A6464CF8045DF9
:101DA00090E8FF0FE54600BD90EC210B704700BFA7
:101DB00080EC210B704700BF90EC200B704700BFF8
:101DC00080EC200B704700BFD0EC200B704700BFA9
:101DD000C0EC200B704700BFF0EC0201F0EC0211E8
:101DE000F0EC0221F0EC0231F0EC0241F0EC025197
:101DF000F0EC0261F0EC0271F0EC0281F0EC029187
:101E0000F0EC02A1F0EC02B1F0EC02C1F0EC02D176
:101E1000F0EC02E1F0EC02F1704700BFE0EC0201EF
:101E2000E0EC0211E0EC0221E0EC0231E0EC0241D6
:101E3000E0EC0251E0EC0261E0EC0271E0EC0281C6
:101E4000E0EC0291E0EC02A1E0EC02B1E0EC02C1B6
:101E5000E0EC02D1E0EC02E1E0EC02F1704700BFFF
:101E6000B0FC0181B0FC0191B0FC01A1B0FC01B15A
:101E7000704700BFA0FC0181A0FC0191A0FC01A162
:101E8000A0FC01B1704700BFEC4600B52DE9005041
:101E90002DE9FF1F4FF000032DE90C0001A9FFF70A
:101EA000DDFBDDF840E012B0704700BFEC4600B546
:101EB0002DE900502DE9FF1F4FF000032DE90C0024
:101EC00001A9FFF705FCDDF840E012B0704700BF44
:101ED000EC4600B52DE900502DE9FF1F4FF000033F
:101EE0002DE90C0001A9FFF715FCDDF840E012B068
:101EF000704700BFEC4600B52DE900502DE9FF1FEB
:101F00004FF000032DE90C0001ABFFF7D7FBDDF824
:101F100040E012B0704700BFEC4600B52DE900501C
:101F20002DE9FF1F4FF000032DE90C0001AAFFF778
:101F300047FCDDF840E012B0704700BF027A82B97A
:101F4000437AABB14268013B10B44372136803217A
:101F5000141D01721A02446002605DF8044B180EF1
:101F600070470368013A02721A020260180E704745
:101F7000B020704700B585B003AA0023009219462F
:101F80000C22FFF7D7FB039805B05DF804FB00BFF8
:101F9000F0E700BF2DE9F043054685B00E464FF04F
:101FA00000083046FFF7CAFFB028044600F0B180B1
:101FB000070620D500F0F003802B65D0902B36D09B
:101FC000A02B78D0B02B47D0C02B00F08A8000F037
:101FD000F803D02B0BD100F00702013242F40022AB
:101FE000052301212846FFF793FD0028D9D00920B9
:101FF00005B0BDE8F0830DF10C09002319468700F8
:10200000CDF800900D222846FFF794FBFFB2039B0A
:10201000CDF80090043760064CBFDF1BFF1800238B
:1020200019460D2228460397FFF7A6FBB9E700F0F3
:102030000D030D2BDBD003AF002300F00F02194678
:1020400000972846FFF776FB0023009719460D22DC
:102050002846FFF791FBA4E7B1285FD0B22800F033
:10206000CC80B3287ED000F0FC03B42BBFD000F0AE
:1020700007020132012342F4002219462846FFF7E5
:1020800047FD00288DD0B2E73046FFF757FF240206
:102090000443B4F5004FAAD024010023A2B219468C
:1020A0002846FFF735FD0028A1D114F4004F18BFD2
:1020B0004FF0010875E7C24302F007034FF47F6257
:1020C0001A41010702F47F624FF0000348BF42F457
:1020D000804219462846FFF71BFD00283FF461AFF8
:1020E00085E7C62851D0C7285AD000F0F803C02B86
:1020F00069D0C82875D0C9287FF479AF3046FFF77A
:102100001DFF020300F00F0002F4702201300243B1
:1021100066E7B8F1000F14D0002069E73046FFF7FA
:102120000DFF00283FF463AF10F0F0037FF45FAFC2
:10213000024619462846FFF7EBFC00283FF431AF72
:1021400055E703AC43460E22414600942846FFF76C
:10215000F1FA0094284643460F224146FFF70CFB54
:10216000404645E73046FFF7E9FE010300F00F0067
:1021700001F47021421C01230A4328461946FFF747
:10218000C7FC00283FF40DAF31E73046FFF7D6FE1D
:10219000010300F00F0001F47021421C0323EBE760
:1021A0003046FFF7CBFE024600283FF420AF10F088
:1021B000F0037FF41CAF04212846FFF7A9FC002898
:1021C0003FF4EFAE13E700F00F020132032342F4B5
:1021D000202219462846FFF79BFC00283FF4E1AE79
:1021E00005E73046FFF7AAFE00F0F00200F00F030B
:1021F0001032013343EA0232F2E600230DF10C09FA
:102200000D221946CDF800902846FFF793FA304684
:10221000FFF794FE02064FF002070CD5039B00F077
:102220007F00B840034430460393FFF787FE030660
:1022300007F10707F2D4039BCDF8009000F07F046C
:1022400003F50172BC400023144419460D222846B0
:102250000394FFF791FAA4E610B5C36C84B05A68F2
:1022600003208DF80C00DC798DF80D401202083344
:10227000084601A901920293FFF78CFE04B010BD3D
:1022800008B5FFF785FE806C08BD00BF08B5FFF7F5
:102290007FFEC06CC37900EB8300083008BD00BF2F
:1022A00008B50AF065FE00BF08B5FFF7F9FF00BFEB
:1022B000704700BF844641EA000313F003036DD169
:1022C000403A41D351F8043B40F8043B51F8043BF9
:1022D00040F8043B51F8043B40F8043B51F8043B00
:1022E00040F8043B51F8043B40F8043B51F8043BF0
:1022F00040F8043B51F8043B40F8043B51F8043BE0
:1023000040F8043B51F8043B40F8043B51F8043BCF
:1023100040F8043B51F8043B40F8043B51F8043BBF
:1023200040F8043B51F8043B40F8043B51F8043BAF
:1023300040F8043B51F8043B40F8043B51F8043B9F
:1023400040F8043B403ABDD2303211D351F8043B3F
:1023500040F8043B51F8043B40F8043B51F8043B7F
:1023600040F8043B51F8043B40F8043B103AEDD2EE
:102370000C3205D351F8043B40F8043B043AF9D23F
:10238000043208D0D2071CBF11F8013B00F8013B12
:1023900001D30B8803806046704700BF082A13D31F
:1023A0008B078DD010F003038AD0C3F10403D21A37
:1023B000DB071CBF11F8013B00F8013B80D331F86B
:1023C000023B20F8023B7BE7043AD9D3013A11F8EB
:1023D000013B00F8013BF9D20B7803704B78437056
:1023E0008B7883706046704700000000000000009A
:1023F00001F0FF01102A2BDB10F0070F08D010F8B6
:10240000013B013A8B422DD010F0070F42B3F6D1B9
:10241000F0B441EA012141EA014122F007047FF0D2
:1024200000070023F0E80256083C85EA010586EA29
:10243000010685FA47F5A3FA87F586FA47F6A5FA65
:1024400087F68EB9EED1F0BC01F0FF0102F0070271
:1024500032B110F8013B013A83EA010313B1F8D11C
:102460000020704701387047002D06BF35460338FD
:10247000073815F0010F07D1013015F4807F02BF36
:10248000013015F4C03F0130F0BC0138704700BF87
:10249000000000000000000000000000000000003C
:1024A000000000000000000000000000000000002C
:1024B000000000000000000000000000000000001C
:1024C00090F800F06DE9024520F007016FF0000C74
:1024D00010F0070491F820F040F049804FF000041C
:1024E0006FF00700D1E9002391F840F000F10800F7
:1024F00082FA4CF2A4FA8CF283FA4CF3A2FA8CF32F
:102500004BBBD1E9022382FA4CF200F10800A4FA95
:102510008CF283FA4CF3A2FA8CF3E3B9D1E90423E9
:1025200082FA4CF200F10800A4FA8CF283FA4CF320
:10253000A2FA8CF37BB9D1E9062301F1200182FADA
:102540004CF200F10800A4FA8CF283FA4CF3A2FAE0
:102550008CF3002BC6D0002A04BF04301A4612BAEE
:10256000B2FA82F2FDE8024500EBD2007047D1E9F1
:10257000002304F00305C4F100004FEAC50514F080
:10258000040F91F840F00CFA05F562EA05021CBF51
:1025900063EA050362464FF00004A9E780B582B004
:1025A00000AF78607B685B68012B08D17B681B7A81
:1025B000002B04D07B681B69184602F0E3FD00BFC6
:1025C0000837BD4680BD80B582B000AF78607868BE
:1025D000FFF7E4FF00BF0837BD4680BD80B582B07D
:1025E00000AF78607B681B78002B05D17B680122E7
:1025F0001A707868FFF7E7FF00BF0837BD4680BD57
:1026000080B582B000AF78607B685B68012B0DD12C
:102610007B681B7A002B09D07B681B69184602F087
:1026200019F97B681B69184602F01EF900BF0837CC
:10263000BD4680BD80B582B000AF78607868FFF796
:10264000DFFF00BF0837BD4680BD80B582B000AF58
:1026500078607B681B78002B05D17B6801221A709B
:102660007868FFF7E7FF00BF0837BD4680BD80B53B
:1026700082B000AF78607B685B68012B08D17B6813
:102680001B7A002B04D07B681B69184602F07AFD88
:1026900000BF0837BD4680BD80B582B000AF78600E
:1026A0007868FFF7E4FF00BF0837BD4680BD80B5FE
:1026B00082B000AF78607B681B78002B05D17B6807
:1026C00001221A707868FFF7E7FF00BF0837BD46A0
:1026D00080BD80B582B000AF78607B685B68012BFD
:1026E00008D17B681B7A002B04D07B689B6A184654
:1026F00002F067F900BF0837BD4680BD80B582B0E3
:1027000000AF78607868FFF7E4FF00BF0837BD4688
:1027100080BD80B582B000AF78607B681B78002BED
:1027200005D17B6801221A707868FFF7E7FF00BFC8
:102730000837BD4680BD80B483B000AF78607B6849
:102740005B68012B02D17B6802225A6000BF0C3704
:10275000BD465DF8047B704780B582B000AF7860FD
:102760007868FFF7E8FF00BF0837BD4680BD80B539
:1027700082B000AF78607B681B78002B05D17B6846
:1027800001221A707868FFF7E7FF00BF0837BD46DF
:1027900080BD80B485B000AF78607B685B68012B3A
:1027A00011D17B681B7A002B0DD07B68DB6AFB6044
:1027B000FB681B68012B02D1FB6802221A607B6850
:1027C0004FF0FF321A6300BF1437BD465DF8047B3B
:1027D000704780B582B000AF78607868FFF7D9FFA6
:1027E00000BF0837BD4680BD80B582B000AF7860BD
:1027F0007B681B78002B05D17B6801221A707868F2
:10280000FFF7E7FF00BF0837BD4680BD80B588B041
:1028100002AF78607B6800221A727B6801225A60DE
:10282000514B002283F8A82000237B614E4B93F884
:10283000A8301946786902F021F802467B689A624E
:102840007B684A4A5A627B689A6A7B685B6A194667
:10285000104602F037F82B233B7440237B747B68CF
:10286000986A07F1100200230193002300930223CA
:102870001D2102F072F84FF4FA7007F047FE2A2388
:10288000FB737B68986A07F10F0200230193012311
:10289000009301231D2102F060F80346FB73FB7BCC
:1028A000002B14D17B68986A07F10F020123019372
:1028B0000023009301231D2102F01BF807F10F01F3
:1028C00007F1130301221846FFF7F4FC01E000238F
:1028D000FB742A233B74FB7C23F00103DBB27B7483
:1028E0007B68986A07F1100200230193002300938C
:1028F00002231D2102F031F80E233B7400237B7468
:102900007B68986A07F1100200230193002300936B
:1029100002231D2102F021F85B233B7400237B740A
:102920007B68986A07F1100200230193002300934B
:1029300002231D2102F011F82A233B7401237B742A
:102940007B68986A07F1100200230193002300932B
:1029500002231D2102F001F87B6801221A7200BFD8
:102960001837BD4680BD00BFD8100020A0860100EA
:1029700080B483B000AF786039607B6800221A723F
:102980007B6801225A607B6801221A633B6800223F
:102990001A607B683A68DA627B6801221A727B6887
:1029A00000225A7200BF0C37BD465DF8047B7047A9
:1029B00080B584B000AF78607B6800221A727B68B3
:1029C00001225A60164B4FF0FF32C3F8A020144B7F
:1029D0000022C3F8A420124BD3F8A0300A22002111
:1029E000104802F047F802467B681A617B681B6951
:1029F0004FF4E131184602F013FB0123FB7300236F
:102A0000BB737B681869FB7BBA7B082102F014FB5F
:102A10007B6801221A7200BF1037BD4680BD00BF1F
:102A2000D81000207C11002080B584B000AF786001
:102A30007B6800221A727B6801225A60164B4FF0A5
:102A4000FF32C3F89820144B0022C3F89C20124B8D
:102A5000D3F898200A230021104802F00BF8024610
:102A60007B681A617B681B694FF4E131184602F0FC
:102A7000D7FA0123FB730023BB737B681869FB7BC8
:102A8000BA7B082102F0D8FA7B6801221A7200BFD3
:102A90001037BD4680BD00BFD81000207411002043
:102AA0002DE9F0439FB014AF314BD3E96401314BB2
:102AB000D3E900341A462346FEF716FA0346002BE4
:102AC00005D12C4BD3E90034294AC2E96434284BA0
:102AD000D3F888311B222849184602F0C1FA034670
:102AE000FB771B2224492548FFF7E4FB204B93F892
:102AF0002332002B15D11E4B012283F823221C4BBD
:102B0000022283F824221A4A4FF000034FF0804437
:102B1000C2E97E34164A4FF00003194CC2E98034F2
:102B2000C3E2134B93F82432022B09D0032B0CD0B1
:102B3000012B40F0AA820E4B032283F82422B4E238
:102B40000B4B032283F82422AFE2FB7F002B40F0E3
:102B5000AB820C4B93F860300A2B40F09082094B0B
:102B600093F86130142B0FD01E2B00F0778280E297
:102B7000E81100200000002053110020381100202F
:102B80000000F03FD8100020B14B042283F824222B
:102B9000B04B93F86220AF4B83F8FC20AC4BD3E9E9
:102BA00080014FF00002AC4BFDF780FD03460C4660
:102BB00018462146FEF7E0F90346013BA54A1344B7
:102BC00093F86020A34B83F8FD20A14BD3E980014B
:102BD0004FF00002A04BFDF769FD03460C46184676
:102BE00021469B4BD3E980341A462346FDF75EFD10
:102BF00003460C46974AC2E92C34964BD3E92C3451
:102C000018462146FEF7B8F90346013B914A1344A2
:102C100093F860208F4B83F8FE208E4BD3E92C0174
:102C20008B4BD3E980341A462346FDF73FFD03461C
:102C30000C46884AC2E92C34864BD3E92C3418461A
:102C40002146FEF799F90346013B824A134493F863
:102C50006020804B83F8FF207E4BD3E92C017C4B16
:102C6000D3E980341A462346FDF720FD03460C467F
:102C7000784AC2E92C34774BD3E92C3418462146E4
:102C8000FEF77AF90346013B724A134493F8602039
:102C9000704B83F800216F4BD3E92C016C4BD3E9C7
:102CA00080341A462346FDF701FD03460C46694A67
:102CB000C2E92C34674BD3E92C3418462146FEF781
:102CC0005BF90346013B634A134493F86020614B70
:102CD00083F801215F4BD3E92C015D4BD3E98034AC
:102CE0001A462346FDF7E2FC03460C46594AC2E960
:102CF0002C34584BD3E92C3418462146FEF73CF9C6
:102D00000346013B534A134493F86020514B83F828
:102D10000221504BD3E92C014D4BD3E980341A46A4
:102D20002346FDF7C3FC03460C464A4AC2E92C344D
:102D3000484BD3E92C3418462146FEF71DF90346CB
:102D4000013B444A134493F86020424B83F803212B
:102D5000404BD3E92C013E4BD3E980341A4623463D
:102D6000FDF7A4FC03460C463A4AC2E92C34394B21
:102D7000D3E92C3418462146FEF7FEF80346013B02
:102D8000344A134493F86020324B83F80421314BCA
:102D9000D3E92C012E4BD3E980341A462346FDF7A4
:102DA00085FC03460C462B4AC2E92C34294BD3E957
:102DB0002C3418462146FEF7DFF80346013B254A2E
:102DC000134493F86020234B83F80521214BD3E96A
:102DD0002C011F4BD3E980341A462346FDF766FCCD
:102DE00003460C461B4AC2E92C341A4BD3E92C3457
:102DF00018462146FEF7C0F80346013B6033154AEA
:102E00001344022219461548FFF754FA114BD3E92F
:102E10002C010F4BD3E97E341A462346FDF746FCBE
:102E200003460C460B4AC2E92C340A4BD3E92C3436
:102E300018462146FEF7A0F80346013B6033054AD9
:102E40001344022219460648FFF734FA0AE000BF8D
:102E5000E8110020D810002000000840BC1100201C
:102E6000BE1100208B4BD3E92C018B4BD3E97E3470
:102E70001A462346FDF71AFC03460C46854AC2E96A
:102E80002C34844BD3E92C3418462146FEF774F8D1
:102E90000346013B60337F4A1344022219467F48B0
:102EA000FFF708FA7B4BD3E92C017B4BD3E97E3447
:102EB0001A462346FDF7FAFB03460C46754AC2E95B
:102EC0002C34744BD3E92C3418462146FEF754F8C1
:102ED0000346013B60336F4A13440222194670488F
:102EE000FFF7E8F96B4BD3E92C016B4BD3E97E3448
:102EF0001A462346FDF7DAFB03460C46654AC2E94B
:102F00002C34644BD3E92C3418462146FEF734F8B0
:102F10000346013B60335F4A13440222194661486D
:102F2000FFF7C8F95B4BD3E92C015B4BD3E97E3447
:102F30001A462346FDF7BAFB03460C46554AC2E93A
:102F40002C34544BD3E92C3418462146FEF714F8A0
:102F50000346013B4F4A134493F860204D4B83F8DE
:102F600007214C4BD3E92C014B4BD3E980341A4653
:102F70002346FDF79BFB03460C46464AC2E92C3428
:102F8000444BD3E92C3418462146FDF7F5FF0346A0
:102F9000013B404A134493F860203E4B83F80821DC
:102FA0003C4BD3E92C013C4BD3E980341A462346F1
:102FB000FDF77CFB03460C46364AC2E92C34354B00
:102FC000D3E92C3418462146FDF7D6FF0346013BD2
:102FD000304A134493F860202E4B83F809212D4B7F
:102FE000D3E92C012C4BD3E980341A462346FDF754
:102FF0005DFB03460C46274AC2E92C34254BD3E936
:103000002C3418462146FDF7B7FF0346013B214A01
:10301000134493F860201F4B83F80A211D4BD3E91A
:103020002C011D4BD3E980341A462346FDF73EFBA5
:1030300003460C46174AC2E92C34164BD3E92C340C
:1030400018462146FDF798FF0346013B114A1344F9
:1030500093F860200F4B83F80B2115E00E4B0122F3
:1030600083F824220B4B93F862200A4B83F8062145
:103070000AE0094B032283F8242200BF04E0064B38
:10308000032283F824220FE00EE0034B032283F88F
:1030900024220AE0D8100020E8110020C0110020EE
:1030A000C2110020C411002000BF0222C249C3483F
:1030B000FFF700F90222C249C248FFF7FBF80222DB
:1030C000C149C248FFF7F6F80222C149C148FFF7DB
:1030D000F1F80222C049C148FFF7ECF8C04BD3E930
:1030E0006C01C04BD3E904341A462346FDF7FCFEBD
:1030F0000346002B05D1BB4BD3E90434B84AC2E9DF
:103100006C34B74BD3F8A831184601F099FBB44B97
:10311000D3F8A8310722B449184601F035FBB14B6A
:10312000D3E90801B14BD3E92C341A462346FDF705
:1031300073FC03460C4644EC173BB0EE470AF0EE36
:10314000670A09F0D9FBB0EE407AF0EE607AA74B3F
:1031500083ED2C7BA54B93ED2C7BB0EE470AF0EE74
:10316000670A05F053FB0346002B0BD19F4B93EDF1
:103170002C7BB0EE470AF0EE670A05F01FFB034612
:10318000002B07D0994A4FF000034FF00004C2E92A
:103190002C3411E0954B93ED2C7B9FED851BB0EE0D
:1031A000470AF0EE670A09F02FFCB0EE407AF0EE25
:1031B000607A8E4B83ED2C7B8C4BD3E92C014FF046
:1031C00000024FF00003FDF799FE0346002B0ED0DE
:1031D000864BD3E92C34984684F000494046494652
:1031E000FDF7F2FE03469BB25B429BB208E07F4BC9
:1031F000D3E92C3418462146FDF7E6FE03469BB280
:103200007A4AA2F8E030022279497A48FFF752F868
:10321000734BD3E97401734BD3E902341A46234646
:10322000FDF762FE0346002B05D16E4BD3E9023455
:103230006B4AC2E974346A4BD3F8C831184601F0BE
:10324000FFFA674BD3F8C83107226749184601F0E7
:103250009BFA644BD3E90A01644BD3E92C341A4638
:103260002346FDF7D9FB03460C4644EC173BB0EE72
:10327000470AF0EE670A09F03FFBB0EE407AF0EE45
:10328000607A5A4B83ED2C7B584B93ED2C7BB0EE40
:10329000470AF0EE670A05F0B9FA0346002B0BD196
:1032A000524B93ED2C7BB0EE470AF0EE670A05F027
:1032B00085FA0346002B07D04C4A4FF000034FF02D
:1032C0000004C2E92C3411E0484B93ED2C7B9FEDB8
:1032D000381BB0EE470AF0EE670A09F095FBB0EE36
:1032E000407AF0EE607A414B83ED2C7B3F4BD3E983
:1032F0002C014FF000024FF00003FDF7FFFD0346E5
:10330000002B0ED0394BD3E92C341D4684F00046F7
:1033100028463146FDF758FE03469BB25B429BB2FE
:1033200008E0324BD3E92C3418462146FDF74CFE19
:1033300003469BB22D4AA2F8E23002222E492F48C2
:10334000FEF7B8FF294B93F80631013B142B00F22E
:10335000148101A252F823F001340000133400005C
:103360002534000037340000493400005B3400008D
:103370006D3400007F34000091340000A33400005D
:10338000B5340000C7340000D9340000EB3400002D
:10339000FD3400000F3500002135000033350000FA
:1033A000453500005735000069350000AFF3008057
:1033B000000000000000F040BC110020C6110020F9
:1033C000BE110020C8110020C0110020CA11002029
:1033D000C2110020CC110020C4110020CE11002009
:1033E000E81100200000002088110020D8100020E3
:1033F000B8110020D0110020BA110020D2110020F5
:10340000684B93F8FC303B70664B93F8FC307B7054
:10341000BCE0644B93F8FD303B70624B93F8FD3099
:103420007B70B3E05F4B93F8FE303B705D4B93F8DD
:10343000FE307B70AAE05B4B93F8FF303B70594B3A
:1034400093F8FF307B70A1E0564B93F800313B704E
:10345000544B93F800317B7098E0524B93F8013154
:103460003B70504B93F801317B708FE04D4B93F8DC
:1034700002313B704B4B93F802317B7086E0494B35
:1034800093F803313B70474B93F803317B707DE039
:10349000444B93F804313B70424B93F804317B70FA
:1034A00074E0404B93F805313B703E4B93F8053187
:1034B0007B706BE03B4B93F8EE303B70394B93F8ED
:1034C000EF307B7062E0374B93F8F0303B70354B58
:1034D00093F8F1307B7059E0324B93F8F2303B7047
:1034E000304B93F8F3307B7050E02E4B93F8F43070
:1034F0003B702C4B93F8F5307B7047E0294B93F8E9
:10350000F6303B70274B93F8F7307B703EE0254B4D
:1035100093F807313B70234B93F807317B7035E00C
:10352000204B93F808313B701E4B93F808317B70A9
:103530002CE01C4B93F809313B701A4B93F809317E
:103540007B7023E0174B93F80A313B70154B93F8CF
:103550000A317B701AE0134B93F80B313B70114B1F
:1035600093F80B317B7011E00E4B93F8F8303B7001
:103570000C4B93F8F9307B7008E00A4B93F8FA3063
:103580003B70084B93F8FB307B7000BF054B93F802
:1035900006313B713B787B717B78BB710123FB77F4
:1035A00014E000BFD8100020391D07F11C030322CE
:1035B0001846FEF77FFE674BD3F8E83107F11C0190
:1035C0000322184601F09EFD0346FB77FB7F002B8C
:1035D000EAD1614B1293614B1193614B1093614B94
:1035E0000F93614B0E93614B0D93614B0C93614BA9
:1035F0000B93614B0A93614B0993614B0893614BA9
:103600000793614B0693614B0593614B0493614BA8
:103610000393614B0293614B0193614B0093614BA8
:10362000614A6249624803F0CBFF624B93F8003174
:103630009AB2484BA3F812225E4B93F803319AB228
:10364000444BA3F814225B4B93F80C31002B40F051
:10365000EB85594B1B78002B00F0E6853D4BD3E9F9
:103660005601564BD3E906341A462346FDF73CFC77
:103670000346002B05D1514BD3E90634354AC2E944
:1036800056340123FB77334BD3F8700107F11F0247
:10369000002301930123009301231D2101F05DF913
:1036A0000346FB77FB7F002B40F08A80294BD3F841
:1036B000700107F10C0201230193002300930623FC
:1036C0001D2101F016F907F10C0107F11403062280
:1036D0001846FEF7EFFD07F114013B46022218469B
:1036E000FEF7E8FD7B783B723B787B7207F10801BF
:1036F00007F1140302221846FEF7DCFD07F114035C
:10370000991C3B4602221846FEF7D4FD7B783B729B
:103710003B787B7207F1080107F1140302330222A0
:103720001846FEF7C7FD07F11403191D3B46022298
:103730001846FEF7BFFD7B783B723B787B7207F142
:10374000080107F11403043302221846FEF7B2FD04
:103750003CE000BFE81100203014002018140020C5
:10376000E4110020D81300200214002000140020CF
:10377000FF130020FE130020F8130020F613002092
:10378000F4130020F2130020F01300200A1400208C
:1037900009140020FC130020081400200714002046
:1037A000FA13002006140020051400200414002041
:1037B00003140020D8100020C015002000000020B5
:1037C0000023BB820023FB8200233B83B7F9143024
:1037D0009B101BB21846FDF7B5F851A3D3E900239F
:1037E000FDF71AF903460C46184621464FF0000231
:1037F0004D4BFDF73BFA03460C464C4AC2E92C34CC
:10380000B7F916309B101BB21846FDF79BF844A37E
:10381000D3E90023FDF700F903460C46184621467C
:103820004FF00002404BFDF721FA03460C463F4A99
:10383000C2E93634B7F918309B101BB21846FDF7B1
:1038400081F837A3D3E90023FDF7E6F803460C46D9
:10385000184621464FF00002334BFDF707FA0346A6
:103860000C46324AC2E92E34304BD3E92C012F4B9F
:10387000D3E92C341A462346FDF7CEF803460C460E
:103880001D462646294BD3E93601284BD3E9363469
:103890001A462346FDF7C0F803460C461A4623464F
:1038A00028463146FCF702FF03460C461D462646D5
:1038B0001E4BD3E92E011D4BD3E92E341A46234665
:1038C000FDF7AAF803460C461A4623462846314619
:1038D000FCF7ECFE03460C4644EC173BB0EE470AFF
:1038E000F0EE670A09F0F8F8B0EE407AF0EE607A90
:1038F0000E4B83ED367B0E4B93F81931002B03D022
:103900000B4B002283F81921094BD3F83C317B6221
:103910007B6A1B68012B00F0F5800BE0AFF30080A1
:1039200008AC1C5A643BCF3F00408F40D8100020A9
:10393000E81100207B6A00221A717B6A01221A605A
:103940007A6A4FF000034FF00004C2E902347A6A49
:103950004FF000034FF00004C2E904347A6A4FF0DC
:1039600000034FF00004C2E906347A6A4FF0000306
:103970004FF00004C2E908347A6A4FF000034FF0B8
:103980000004C2E90A347A6A4FF000034FF00004E1
:10399000C2E90C347A6A4FF000034FF00004C2E928
:1039A0000E347A6A4FF000034FF00004C2E910347D
:1039B0007A6A4FF000034FF00004C2E912347A6AC9
:1039C0004FF000034FF00004C2E914347A6A4FF05C
:1039D00000034FF00004C2E916347A6A4FF0000386
:1039E0004FF00004C2E918347A6A4FF000034FF038
:1039F0000004C2E91A347A6A4FF000034FF0000461
:103A0000C2E91C347A6A4FF000034FF00004C2E9A7
:103A10001E347A6A4FF000034FF00004C2E92034EC
:103A20007B6A01221A717A6A4FF000034FF000049A
:103A3000C2E902347A6A4FF000034FF00004C2E991
:103A400004347A6A4FF000034FF00004C2E90634F0
:103A50007A6A4FF000034FF00004C2E908347A6A32
:103A60004FF000034FF00004C2E90A347A6A4FF0C5
:103A700000034FF00004C2E90C347A6A4FF00003EF
:103A80004FF00004C2E90E347A6A4FF000034FF0A1
:103A90000004C2E910347A6A4FF000034FF00004CA
:103AA000C2E912347A6A4FF000034FF00004C2E911
:103AB00014347A6A4FF000034FF00004C2E9163460
:103AC0007A6A4FF000034FF00004C2E918347A6AB2
:103AD0004FF000034FF00004C2E91A347A6A4FF045
:103AE00000034FF00004C2E91C347A6A4FF000036F
:103AF0004FF00004C2E91E347A6A4FF000039E4C76
:103B0000C2E920347B6AD3E902349C4AC2E900341A
:103B10007B6AD3E90434994AC2E902347B6AD3E967
:103B20000634964AC2E904347B6AD3E90834934ADE
:103B3000C2E906347B6AD3E90A34904AC2E9083400
:103B40007B6AD3E90C348D4AC2E90A347B6AD3E933
:103B50000E348A4AC2E90C347B6AD3E91034874AAE
:103B6000C2E90E347B6AD3E91234844AC2E91034C4
:103B70007B6AD3E91434814AC2E912347B6AD3E9FF
:103B800016347E4AC2E914347B6AD3E918347B4A7E
:103B9000C2E916347B6AD3E91A34784AC2E92E3472
:103BA0007B6AD3E91C34754AC2E930347B6AD3E9B5
:103BB0001E34724AC2E932347B6AD3E920346F4A38
:103BC000C2E92C346D4BD3E92E016C4BD3E936346A
:103BD0001A462346FCF76AFD03460C46674AC2E9CB
:103BE0002E34664BD3E93234644AC2E93434634B31
:103BF000D3E93245614BD3E92C234FF000005E49F5
:103C0000FDF734F802460B46904699465B4BD3E9E4
:103C100036015A4BD3E93223FCF746FD02460B46E8
:103C200040464946FCF7F8FE02460B462046294628
:103C3000FCF73CFD03460C46504AC2E932344F4B78
:103C4000D3E936014D4BD3E934341A462346FCF709
:103C50002BFD03460C46494AC2E93434474BD3E9AD
:103C60003045464BD3E92C014FF00002424BFCF7A4
:103C70001BFD02460B4610461946404BD3E9342340
:103C8000FCF7CAFE02460B46104619463B4BD3E9E9
:103C90003423FCF7C1FE02460B4610461946374B4B
:103CA000D3E92C23FCF7E2FF02460B4620462946C7
:103CB000FCF7FCFC03460C46304AC2E930342F4B7B
:103CC000D3E92C341A4623464FF000002C49FCF768
:103CD000EBFC03460C4618462146FDF74DF903461A
:103CE000013B3B62254BD3E92C341A4623464FF067
:103CF00000002349FCF7D8FC03460C461846214631
:103D00001E4BD3E92C341A462346FCF7AFFF03467B
:103D10000C4618462146194BD3E92E341A46234641
:103D2000FCF77AFE03460C4618462146134A3B6AC6
:103D30000433DB001344D3E900341A462346FCF76E
:103D4000B3FC03460C460D4AC2E934340B4BD3E9AD
:103D50002C450A4BD3E92C234FF000000849FCF70F
:103D6000A3FC02460B4610461946044BD3E92C230C
:103D7000FCF79CFC024605E00000F03FD810002054
:103D8000000010400B46904699463A4BD3E92C234D
:103D90004FF000003849FCF787FC02460B464046CE
:103DA0004946FCF739FE02460B4620462946FCF7F9
:103DB0005DFF03460C461D4626462E4BD3E93401D3
:103DC0002C4BD3E934341A462346FCF725FE034630
:103DD0000C461A46234628463146FCF71DFE03468C
:103DE0000C461D462646234A3B6A0833DB00134433
:103DF000D3E900011F4BD3E930341A462346FCF7C0
:103E000055FC03460C461A46234628463146FCF725
:103E10004DFC03460C46184621464FF00002174B56
:103E2000FCF724FF03460C46124AC2E93434114B16
:103E3000D3E936340F493A6AD2000A44C2E9003461
:103E40000C4BD3E92C014FF000020C4BFDF756F858
:103E50000346002B16D0074BD3E92C014FF000028C
:103E6000074BFCF723FC03460C46024AC2E92C34FC
:103E7000F4E000BFD810002000001040000008400F
:103E80000000F03F9D4A4FF000039D4CC2E92C34E6
:103E90009A4BD3E90034994AC2E90834974BD3E9E5
:103EA0000001964BD3E902341A462346FCF7FEFB89
:103EB00003460C46914AC2E90A34904BD3E900010B
:103EC0004FF000024FF00003FCF7A6FD03460C463E
:103ED00018462146894BD3E900341A462346FCF79D
:103EE0009BFD03460C46854AC2E93634834BD3E931
:103EF0003634824AC2E91034804BD3E90A017F4B41
:103F0000D3E904341A462346FCF7D0FB03460C469B
:103F10007A4AC2E90C34794BD3E90201774BD3E9F1
:103F200000341A462346FCF7BFFB03460C46734A8F
:103F3000C2E92E34714BD3E93645704BD3E92E01DB
:103F40006E4BD3E92E23FCF767FD02460B46104665
:103F500019464FF000024FF08043FCF787FE0246FF
:103F60000B4620462946FCF7A1FB03460C46634A54
:103F7000C2E93634614BD3E93634604AC2E91234BF
:103F80005E4BD3E90C015D4BD3E906341A46234658
:103F9000FCF78CFB03460C46584AC2E90E34574BDB
:103FA000D3E90445554BD3E92E014FF00002554BA0
:103FB000FCF732FD02460B46104619464F4BD3E93B
:103FC0000023FCF773FB02460B4620462946FCF70C
:103FD0006BFB03460C46494AC2E92E34474BD3E9F2
:103FE0002E0102460B46FCF761FB03460C461846C1
:103FF0002146424BD3E92E341A462346FCF70CFDEA
:1040000003460C46184621464FF000023E4BFCF793
:104010002DFE03460C4618462146384BD3E936346C
:104020001A462346FCF742FB03460C46334AC2E9D4
:104030001434324A4FF000034FF00004C2E92E342A
:104040002E4A4FF000034FF00004C2E930342B4AEF
:104050004FF000034FF00004C2E93234274BD3E99C
:1040600000347A6AC2E90234244BD3E902347A6A12
:10407000C2E90434214BD3E904347A6AC2E9063434
:104080001E4BD3E906347A6AC2E908341B4BD3E9E4
:1040900008347A6AC2E90A34184BD3E90A347A6AD6
:1040A000C2E90C34154BD3E90C347A6AC2E90E34F8
:1040B000124BD3E90E347A6AC2E910340F4BD3E9BC
:1040C00010347A6AC2E912340C4BD3E912347A6A9A
:1040D000C2E91434094BD3E914347A6AC2E91634BC
:1040E000064BD3E916347A6AC2E91834034BD3E994
:1040F0002E347A6AC2E91A3408E000BFD8100020D2
:104100000000F03F0000E03F000008404B4BD3E9C7
:1041100030347A6AC2E91C34484BD3E932347A6AC3
:10412000C2E91E34454BD3E92C347A6AC2E9203403
:10413000424B93ED347BB0EE470AF0EE670A08F08D
:10414000CBFCB0EE407AF0EE607A3D4B83ED7C7BA9
:104150003A4BB3F8E4203A4BA3F80822374B93F8D4
:10416000FC20374B83F81B22344B93F8FD20344B53
:1041700083F81C22314B93F8FE20314B83F81D222B
:104180002E4B93F8FF202E4B83F81E222B4B93F8D7
:1041900001212B4B83F81F22284B93F80221284B37
:1041A00083F82022254B93F80421254B83F8212204
:1041B000224B93F80521224B83F822221F4BB3F8A0
:1041C000E6201F4BA3F80A221C4BB3F8E8201C4B37
:1041D000A3F80C22194BB3F8EA20194BA3F80E22CE
:1041E000164BB3F8EC20164BA3F81022134B93F8A0
:1041F0000721134B83F81622104B93F80821104B1C
:1042000083F817220D4B93F809210D4B83F81822E0
:104210000A4B93F80A210A4B83F81922074B93F8AB
:104220000B21074B83F81A22044B93F80C21054B02
:104230001A7000BF2C37BD46BDE8F083D8100020AF
:10424000E8110020C015002090B585B000AF08200F
:1042500004F070FAB14BB249184603F0F8FFB14BC5
:10426000D3E90C34B04AC2E97C34AE4B93F8462013
:10427000AD4B83F81622AB4B93F84720AA4B83F83B
:104280001722A84B93F84820A74B83F81822A54B78
:1042900093F84920A44B83F81922A24B93F84A20A3
:1042A000A14B83F81A229F4B93F84B209E4B83F827
:1042B0001B229C4B93F84C209B4B83F81C22994B60
:1042C0001A8F994BA3F80822964B5A8F964BA3F856
:1042D0000A22944B9A8F944BA3F80C22914BDA8FBD
:1042E000914BA3F80E228F4BB3F840208E4BA3F8CE
:1042F00010228C4B93F84D208B4B83F81D22894B59
:1043000093F84E20884B83F81E22864BB3F8422048
:10431000854BA3F81222834B93F84F20824B83F8EE
:104320001F22804B93F850207F4B83F820227D4B37
:10433000B3F844207C4BA3F814227A4B93F8512015
:10434000794B83F82122774B93F85220764B83F8F0
:104350002222764B00221A70754802F085FE724BBD
:10436000012283F86021704B012283F84821714BB0
:10437000FB606D4B0022C3F84C216B4A4FF00003E9
:104380006D4CC2E95634FB680022DA61FB680022FA
:104390001A76654B002283F84821634B012283F88B
:1043A0002522604BD3E906345F4AC2E9563461489E
:1043B000FEF72CFA5C4B012283F810215A4B0022A5
:1043C000C3F81421584B4FF0FF32C3F84021564B2D
:1043D000002283F81021544B012283F826225749EA
:1043E0005748FEF7C5FA504BD3F83C31BB60BB6869
:1043F0001B68012B6ED1BA684FF000034FF0000428
:10440000C2E90234BA684FF000034FF00004C2E979
:104410000434BA684FF000034FF00004C2E90634D8
:10442000BA684FF000034FF00004C2E90834BA68DC
:104430004FF000034FF00004C2E90A34BA684FF0AD
:1044400000034FF00004C2E90C34BA684FF00003D7
:104450004FF00004C2E90E34BA684FF000034FF089
:104460000004C2E91034BA684FF000034FF00004B2
:10447000C2E91234BA684FF000034FF00004C2E9F9
:104480001434BA684FF000034FF00004C2E9163448
:10449000BA684FF000034FF00004C2E91834BA685C
:1044A0004FF000034FF00004C2E91A34BA684FF02D
:1044B00000034FF00004C2E91C34BA684FF0000357
:1044C0004FF00004C2E91E34BA684FF000031D4CDF
:1044D000C2E92034144B0022C3F87C21124B002285
:1044E00083F87821104B012283F82A220D4BD3E95F
:1044F00000340D4AC2E964341348FEF759FA0A4BF6
:10450000012283F89821084B0022C3F89C21064A17
:104510004FF00003084CC2E96C3417E0C4150020CA
:10452000B815002000000020E8110020C015002070
:1045300030140020301300200000F0BF7012002063
:10454000F81200200000F03F60130020404B0022D2
:1045500083F898213E4B012283F827223D4BD3E973
:1045600004343B4AC2E96C343B4B7B60384B00223D
:1045700083F8A021364B0122C3F89C21102000F0C3
:10458000A1F802467B681A61344B002283F896201A
:104590002F4BD3F8A801314B93F8963000221946DF
:1045A00000F0E4F82A4B012283F8A021284B0122D5
:1045B00083F8B821264B0022C3F8BC21244A4FF0CF
:1045C0000003274CC2E97434214B002283F8B82140
:1045D0001F4B012283F828221E4BD3E902341C4AC8
:1045E000C2E974341F4B7B60194B002283F8C02151
:1045F000174B0122C3F8BC21112000F063F80246DA
:104600007B681A61154B002283F89620104BD3F873
:10461000C801124B93F896300022194600F0A6F814
:104620000B4B012283F8C021094B0022C3F8DC2187
:10463000074B002283F8D821054B012283F8292259
:104640000948FEF7F1F900BF1437BD4690BD00BF21
:10465000E81100200000002080130020D810002066
:104660000000F0BFA0130020C013002080B500AFF1
:104670000C48FDF7B3FF0C48FDF7E7FF0B48FDF7CB
:10468000E4FF0B48FEF713F80A4803F085FD0A48DB
:10469000FEF73FF80948FEF76AF80948FEF7A4F864
:1046A00000BF80BD6013002080130020A0130020F5
:1046B000C0130020301400203013002048130020C5
:1046C000F812002080B586B000AF786026497A687D
:1046D00013465B0013449B000B4409331B78002BEB
:1046E00027D107F10803184606F0A2F90323FB724D
:1046F0001D497A6813465B0013449B000B441B68FA
:1047000007F108021146184606F0A4F916497A681E
:1047100013465B0013449B000B44093303221A70B9
:104720007A6813465B0013449B000F4A13447B6175
:1047300015E00D497A6813465B0013449B000B4457
:1047400009331B78032B08D17A6813465B001344A6
:104750009B00054A13447B6101E000237B617B6978
:1047600018461837BD4680BD9804002080B485B037
:1047700000AFF8600B467A60FB7200BF1437BD468D
:104780005DF8047B7047000090B58BB000AFF86017
:10479000B9601346FB71FB68FB61FB69002B3AD0E3
:1047A000FB691B7A3B750023BB7500237B75FB6996
:1047B0001B680121184606F095F9FB691868FB692A
:1047C0005B6807F11402194606F0ACF9FB691A6838
:1047D000FB695B681946104606F0C0F9FB691A6868
:1047E000FB695B681946104606F0DCF903467B83DB
:1047F0007B8B07EE903AF8EE677A17EE900AFCF79B
:10480000B3F80DA3D3E90023FCF706F903460C46E1
:10481000C7E9083405E04FF000034FF00004C7E992
:104820000834BA68D7E90834C2E9003400BF2C372D
:10483000BD4690BDAFF30080100010001000F03EA8
:1048400080B483B000AF786000BF0C37BD465DF820
:10485000047B704780B483B000AF786000BF0C3732
:10486000BD465DF8047B704780B483B000AF7860CC
:1048700000BF0C37BD465DF8047B704780B584B03F
:1048800000AF78600B46FB707B68012B11D80C4998
:104890007B687A6841F823207B689B00084A1344B0
:1048A000184601F0E7F87B689B00054A1344FB605B
:1048B00001E00023FB60FB6818461037BD4680BD51
:1048C000C815002080B584B000AF786039607B687F
:1048D000002B07D03B681946786801F0E7F9002300
:1048E000FB7301E00823FB73FB7B18461037BD46C2
:1048F00080BD80B588B002AFF8607A603B600B463F
:104900007B8100237B6197F82030002B0CBF0123B3
:104910000023DBB23B61FB68002B19D07B89590077
:104920003A683B69009313467A68F86801F0E6F943
:1049300003467B617B6913F1020F01D1012308E07B
:104940007B69B3F1FF3F01D1042302E0002300E0C3
:10495000082318461837BD4680BD80B588B002AF21
:10496000F8607A603B600B467B8100237B6197F89F
:104970002030002B0CBF01230023DBB23B61FB681E
:10498000002B19D07B8959003A683B690093134684
:104990007A68F86801F022FA03467B617B6913F1BB
:1049A000020F01D1012308E07B69B3F1FF3F01D180
:1049B000042302E0002300E0082318461837BD4610
:1049C00080BD80B483B000AF786000BF0C37BD46B7
:1049D0005DF8047B7047000080B584B000AFF860DC
:1049E000B9607A60BB680F2B06D90A4B0A4A40F2BD
:1049F000E2210A4808F0C4FAFA68BB685B01134474
:104A000003F5805310337A681A6000BF1037BD4633
:104A100080BD00BFBCF90000ECFB0000E8F900001D
:104A200080B584B000AFF860B9601346FB71BB6815
:104A30000F2B06D90C4B0D4A4FF460710C4808F04F
:104A40009FFABB685B0103F580531833FA6813447F
:104A5000043303F104735B010433FA7992B21A80D0
:104A600000BF1037BD4680BDBCF9000008FC000047
:104A7000E8F9000090B587B000AFF8607A603B605D
:104A80000B46FB7200237B61FB681B68022B00F066
:104A90004D81032B00F0DF81012B00F09580954BB9
:104AA00000221A60934B1B68934A52F82330002B64
:104AB00041D1904B1B68914ADB00134400229A714C
:104AC0008C4B1B688D4ADB00134400221A71894B02
:104AD0001B688A4ADB00134400225A71854B1B680D
:104AE000864A4FF4E13142F83310824B1B68184676
:104AF00001F0EAFB7F4B1B689B01814A134481490B
:104B0000184606F039FA7B4B18687A4B1A68134638
:104B10001B019B1A9B007C4A9918764B1B68DB0093
:104B2000764A13441A4607F0DFFA724B1B68724A42
:104B3000012142F823107B68B3F1FF3F20D06D4B79
:104B40001A68724913469B0013449B000B441B22B6
:104B50001A60684B1A686D4913469B0013449B000A
:104B60000B4408336A4A1A60624B1A686749134655
:104B70009B0013449B000B440C33664A1A6015E0FB
:104B80005C4B1A68614913469B0013449B000B441D
:104B9000043303221A60574B1A685C4913469B0082
:104BA00013449B000B4410335B4A1A60514B1B6843
:104BB000504A1268594941F823204E4B1B689B000C
:104BC000564A13447B61DBE14A4B01221A60494B90
:104BD0001B68494A52F82330002B41D1454B1B68D2
:104BE000464ADB00134400229A71424B1B68434A39
:104BF000DB00134400221A713E4B1B683F4ADB0066
:104C0000134400225A713B4B1B683C4A4FF4E1317C
:104C100042F83310374B1B68184601F055FB354BF3
:104C20001B689B01364A13443649184606F0A4F91E
:104C3000304B18682F4B1A6813461B019B1A9B00B8
:104C4000314A99182B4B1B68DB002C4A13441A4637
:104C500007F04AFA274B1B68274A012142F8231024
:104C60007B68B3F1FF3F20D0224B1A6827491346D7
:104C70009B0013449B000B4400221A601D4B1A68D2
:104C8000224913469B0013449B000B440833244ADB
:104C90001A60184B1A681D4913469B0013449B0069
:104CA0000B440C331F4A1A6015E0124B1A6817495F
:104CB00013469B0013449B000B44043300221A60EC
:104CC0000C4B1A68114913469B0013449B000B447C
:104CD0001033154A1A60074B1B68064A12680F49C1
:104CE00041F82320034B1B689B000C4A13447B6153
:104CF00046E100BFD4190020D8190020F418002084
:104D00000C160020580000208C1700202C190020C1
:104D1000D0150020EC15002008160020BC1900203A
:104D200008160020081600200C160020AD4B0222A9
:104D30001A60AC4B1B68AC4A52F82330002B41D1AF
:104D4000A84B1B68A94ADB00134400229A71A54BAB
:104D50001B68A64ADB00134400221A71A14B1B6892
:104D6000A24ADB00134400225A719E4B1B689F4AE3
:104D70004FF4E13142F833109A4B1B68184601F0AA
:104D8000A3FA984B1B689B01994A1344994918460A
:104D900006F0F2F8934B1868924B1A6813461B0101
:104DA0009B1A9B00944A99188E4B1B68DB008F4A14
:104DB00013441A4607F098F98A4B1B688A4A012166
:104DC00042F823107B68B3F1FF3F20D0854B1A686F
:104DD0008A4913469B0013449B000B4400221A602F
:104DE000804B1A68854913469B0013449B000B4473
:104DF0000833834A1A607B4B1A68804913469B002C
:104E000013449B000B440C337E4A1A6015E0754B2B
:104E10001A687A4913469B0013449B000B440433E1
:104E200000221A606F4B1A68744913469B001344A2
:104E30009B000B441033744A1A606A4B1B68694A22
:104E40001268724941F82320664B1B689B006F4A29
:104E500013447B6194E0634B03221A60614B1B682F
:104E6000614A52F82330002B41D15E4B1B685F4AE8
:104E7000DB00134400229A715A4B1B685B4ADB002B
:104E8000134400221A71574B1B68584ADB00134425
:104E900000225A71534B1B68544A4FF4E13142F8D7
:104EA0003310504B1B68184601F00EFA4D4B1B682F
:104EB0009B014F4A13444F49184606F05DF8494B91
:104EC0001868484B1A6813461B019B1A9B004A4AF4
:104ED0009918444B1B68DB00444A13441A4607F0F8
:104EE00003F9404B1B68404A012142F823107B68BC
:104EF000B3F1FF3F20D03B4B1A68404913469B005B
:104F000013449B000B4400221A60364B1A683B493D
:104F100013469B0013449B000B4408333C4A1A6021
:104F2000304B1A68354913469B0013449B000B44D1
:104F30000C33384A1A6015E02A4B1A682F49134679
:104F40009B0013449B000B44043300221A60254B42
:104F50001A682A4913469B0013449B000B441033E4
:104F60002D4A1A601F4B1B681E4A1268274941F8D8
:104F700023201C4B1B689B00244A13447B6100BF09
:104F80007B68B3F1FF3F28D0164B1A6813461B010C
:104F90009B1A9B002833184A1344181D114B1B6899
:104FA0001A461E4906F026F80E4B18680D4B1A6873
:104FB000124913469B0013449B000B4408331C68A2
:104FC000084B1A680D4913469B0013449B000B4481
:104FD0001B681A46214600F0DFF87B6918461C372B
:104FE000BD4690BDD4190020D8190020F418002027
:104FF0000C160020580000208C1700202C190020CF
:1050000008160020081600200C160020BC190020ED
:1050100008160020081600200C160020455200003B
:1050200080B483B000AF78603960002318460C3735
:10503000BD465DF8047B704780B483B000AF7860F4
:10504000084611461A460346FB700B46BB701346D2
:105050007B70002318460C37BD465DF8047B704713
:1050600080B586B000AFF860B9607A60FB683B61DC
:105070003B69002B33D03B691B681F4AD35C012B73
:105080002DD13B691B681D4A52F82330012B0FD1EB
:105090003B691A681A4913469B0013449B000B4452
:1050A00008331B687A681946B868FDF703F90EE003
:1050B0003B691A68124913469B0013449B000B443A
:1050C0000C331B687A681946B868FDF7F3F83B693A
:1050D0001B68094A0021D1540023FB7506E07A6859
:1050E0000021B86808F08CFA2023FB75FB7D184678
:1050F0001837BD4680BD00BF24190020A419002028
:105100002C19002080B586B000AFF860B9607A60D5
:10511000FB683B613B69002B2AD03B691B6800217F
:10512000184607F023F90346082B21D03B691A687B
:10513000134913469B0013449B000B4410331B6818
:105140007A68B9681846FDF7B5F83B6918683B6995
:105150001A680B4913469B0013449B000B44103301
:105160001B687A68194607F0DDF80346FB7501E015
:105170002023FB75FB7D18461837BD4680BD00BF58
:105180002C19002080B483B000AF786000BF0C37CA
:10519000BD465DF8047B704780B588B000AFF8600D
:1051A000B9607A60FB68052B06D9214B214A40F291
:1051B0008911214807F0E4FE204AFB6852F82330A9
:1051C000FB61FB6993F82C301B09DBB21A461C4BC0
:1051D00053F82230BB61FB6993F82C3003F00F03C6
:1051E0007B61FB695B78DBB2002B01D009231AE0FD
:1051F000FB6901225A70BB681A467969B869FFF7E2
:10520000EBFB7A687969B86905F0FEFD01227969DE
:10521000B869FFF705FC7B69DBB201221946B86962
:1052200005F0EDFC002318462037BD4680BD00BFC9
:1052300020FA0000C8FB000040FA0000B44900203A
:10524000BC03010080B582B000AF78600B46FB70F4
:105250007B68184600F004F800BF0837BD4680BDE3
:1052600080B586B000AF78607B68052B06D93D4BD2
:105270003D4A40F2AD113D4807F082FE3C4A7B6852
:1052800052F823307B617B6993F82C301B09DBB229
:105290001A46384B53F822303B617B6993F82C3027
:1052A00003F00F03FB600022F9683869FFF7B8FBD1
:1052B000FB68DBB200221946386905F0A0FC7B6967
:1052C000DB78DBB2002B04D07B691033184605F085
:1052D000DDF87B6900225A70274A7B68134401225B
:1052E0001A70264A7B6852F82330002B1BD12449C0
:1052F0007A6813469B0013449B000B440C331868D8
:105300001F497A6813469B0013449B000B441B689B
:105310001A4601467868FFF73FFF184A7B6801216B
:1053200042F823101AE016497A6813469B0013448A
:105330009B000B440833186811497A6813469B0098
:1053400013449B000B441B681A4601467868FFF71C
:1053500023FF0A4A7B68002142F8231000BF183758
:10536000BD4680BD20FA000020FC000040FA00008D
:10537000B4490020BC03010024190020A419002016
:105380002C19002080B400AFFEE7000080B483B089
:1053900000AF78607B68013B032B0BD801A252F869
:1053A00023F000BFB5530000B5530000B553000013
:1053B000B553000000BFFEE7704770470020002192
:1053C00004460D46084807F0F9FD07F041FE204667
:1053D000294603F0E5FB0548002103F015FD03F025
:1053E0006FFC07F0F7FD0000F5CF000084FC000023
:1053F00080B584B000AFF860B9601346FB71BB683C
:105400001F2B05D90D4B0E4AFF210E4807F0B8FDA2
:10541000FB68BA6853F8223023F0807323F4E0630A
:10542000FA79120202F4E06243EA0201FB68BA6808
:1054300043F8221000BF1037BD4680BDA8FA000017
:10544000ACFC0000B4FA000080B483B000AF786018
:105450000B46FB707B68FA781A7000BF0C37BD46AC
:105460005DF8047B7047000080B584B000AF3B4618
:1054700000221A605A609A60DA60064B3B60022391
:105480007B723B461946002005F010F900BF10372B
:10549000BD4680BD80F0FA0280B584B000AF074AF7
:1054A0003B1D07CA83E807003B1D1946002005F095
:1054B0004BF900BF1037BD4680BD00BFECFA0000BD
:1054C00080B500AF2A210848FFF7BEFF0022122155
:1054D0000648FFF78DFFFFF7C7FFFFF7DDFF044822
:1054E00005F086F900BF80BD00E007400090044051
:1054F00094FC000080B582B000AF7860034800F0F3
:10550000EFFD00BF0837BD4680BD00BFE848002062
:1055100098B500AF094B0A4A1A600A4B0A4A1C1D8B
:1055200013460FCB84E80F0000F030FE0246054B17
:105530001A60064B034A1A6000BF98BDE848002075
:10554000F0480020C848002084FC0000E04800200B
:1055500080B586B002AF87ED010A38600223FB6098
:10556000FFF7D6FF164800F0ABFD0346BB601548B9
:1055700000F0A6FD0346BB60002300930023FA68F9
:105580001149124800F0D9FD0346BB600023104AC0
:105590000121104800F012FE0346BB60D7ED017AEE
:1055A0009FED0D7A67EE877AFCEEE77A17EE901A98
:1055B000084800F02AFE00BF1037BD4680BD00BF7E
:1055C000E8480020E0480020DD550000F0480020B9
:1055D000F5540000A448002000007A4480B586B04D
:1055E00000AF7861184B1B681B68002B0CBF0123B0
:1055F0000023DBB21A46154B1A7011E03B461449E2
:10560000184600F080FDFDF74BFA0F4B1B681B6836
:10561000002B14BF01230023DBB21A460D4B1A7076
:105620000A4B1B78DBB2002BE8D1084B00221A7022
:10563000786900F011F8002000F0AFFD0023184653
:105640001837BD4680BD00BFC4FB00005A000020D3
:10565000E8480020DC48002080B582B000AF7860C8
:10566000074B01221A60074B00221A70FEF7FEFF5B
:10567000054800F035FD002318460837BD4680BDBB
:10568000044900205A000020E048002080B586B080
:1056900000AF7861396101F063F800F0BCF80A4BA3
:1056A0001B6800221A60FEF7CFFD00209FED070A5D
:1056B000FFF74EFF3B460649184600F024FD002345
:1056C00018461837BD4680BDC4FB00006F12833AF0
:1056D000E048002080B500AF002005F0C7FC00BF07
:1056E00080BD80B500AF012005F0C0FC00BF80BDCB
:1056F00080B500AF022005F0B9FC00BF80BD80B5C9
:1057000000AF032005F0B2FC00BF80BD80B500AF44
:10571000042005F0ABFC00BF80BD80B500AF0520C4
:1057200005F0A4FC00BF80BD80B500AF062005F0E9
:105730009DFC00BF80BD80B500AF072005F096FC42
:1057400000BF80BD80B500AF082005F08FFC00BF12
:1057500080BD80B500AF092005F088FC00BF80BD8A
:1057600080B500AF0A2005F081FC00BF80BD80B588
:1057700000AF0B2005F07AFC00BF80BD80B500AF04
:105780000C2005F073FC00BF80BD80B500AF0D207C
:1057900005F06CFC00BF80BD80B500AF0E2005F0A9
:1057A00065FC00BF80BD80B500AF0F2005F05EFC3A
:1057B00000BF80BD80B500AF002005F06FFC00BFCA
:1057C00080BD80B500AF002006F078FB00BF80BD33
:1057D00080B500AF012006F071FB00BF80BD80B531
:1057E00000AF022006F06AFB00BF80BD80B500AFAD
:1057F000032006F063FB00BF80BD80B500AF04202E
:1058000006F05CFB00BF80BD80B500AF052006F050
:1058100055FB00BF80BD80B582B000AF04F084FEB0
:105820000023FB7106E0FB79184605F069F8FB7967
:105830000133FB71FB79042BF5D9FFF741FE00BF63
:105840000837BD4680BD80B582B000AF786005F0F6
:1058500027F8034618460837BD4680BD80B483B09C
:1058600000AF78607B68023303F104735B011C3383
:1058700001221A7000BF0C37BD465DF8047B7047EB
:1058800080B483B000AF78607B68023303F10473A7
:105890005B010C3300221A7000BF0C37BD465DF867
:1058A000047B704780B483B000AF78607B680233BC
:1058B00003F104735B010C3301221A7000BF0C3733
:1058C000BD465DF8047B704780B483B000AF78605C
:1058D0000B46FB707B68023303F104735B011033EA
:1058E0001A46FB78137000BF0C37BD465DF8047B89
:1058F000704780B483B000AF78607B681B79DBB2FF
:1059000018460C37BD465DF8047B704780B483B001
:1059100000AF78600B46FB707B68FA781A7100BFA5
:105920000C37BD465DF8047B704780B483B000AF90
:1059300078600B46FB707B68DB78DBB21A46FB783D
:1059400042FA03F303F00103002B14BF01230023E9
:10595000DBB218460C37BD465DF8047B704780B457
:1059600083B000AF78607B68023303F104735B019E
:1059700014331B78DBB2002B14BF01230023DBB2EE
:1059800018460C37BD465DF8047B704780B483B081
:1059900000AF78600B46FB707B68023303F1047341
:1059A0005B011833FA781A7000BF0C37BD465DF8FA
:1059B000047B704780B483B000AF78607B680222BC
:1059C000DA7000BF0C37BD465DF8047B70470000FD
:1059D00080B584B000AFF860B9601346FB71BB6856
:1059E0001F2B05D90A4B0B4AD9210B4807F0C8FADF
:1059F000BB689B00FA68134403F104735B01143322
:105A00001A46FB79136000BF1037BD4680BD00BF4A
:105A1000F8FA0000E0FC000004FB000080B584B050
:105A200000AFF860B9601346FB71BB681F2B05D946
:105A30000D4B0E4AFF210E4807F0A2FAFB68BA6828
:105A400053F8223023F0807323F4E063FA791202D2
:105A500002F4E06243EA0201FB68BA6843F82210EC
:105A600000BF1037BD4680BDF8FA0000CCFC000036
:105A700004FB000080B584B000AF78607B681B68D1
:105A80000F4A52F82330FB607B681B68184600F011
:105A9000EDF97B681B68184604F07AFFF86805F09A
:105AA00001FEF868FFF7DAFE0121F868FFF76EFFE4
:105AB0000449786800F0FAF800BF1037BD4680BD91
:105AC000C0FC0000A086010080B584B000AF786003
:105AD0007B681B68054A52F82330FB60F86805F0C4
:105AE00027FE002318461037BD4680BDC0FC0000CD
:105AF00080B584B000AF78600023BB607B681B6812
:105B00000D4A52F82330FB60F868FFF728FF034680
:105B1000002B02D0F86805F019FE0023BB6003E0FB
:105B200000BFBB680133BB60BB68C72BF8D900233B
:105B300018461037BD4680BDC0FC000080B586B059
:105B400000AF78600B46FB70104B3B617B681B68B5
:105B50000F4A52F82330FB6000237B610CE0FB7896
:105B60001946F868FFF7E1FE0346002B01D0002339
:105B700007E07B6901337B617A693B699A42EED326
:105B8000012318461837BD4680BD00BFA08601001E
:105B9000C0FC000080B584B000AF78607B681B68F3
:105BA000104A52F82330FB6001217868FFF7C6FFE6
:105BB0000346002B01D0022310E0F868FFF7FAFE3D
:105BC00007217868FFF7BAFF0346002B01D00223B4
:105BD00004E00021F868FFF7A8FE034618461037D6
:105BE000BD4680BDC0FC000080B584B000AF7860C9
:105BF0007B681B680A4A52F82330FB6001217868F1
:105C0000FFF79CFF0346002B01D0012303E0F86857
:105C1000FFF7D0FE002318461037BD4680BD00BFF9
:105C2000C0FC000080B584B000AF786039607B684C
:105C30001B68094A52F82330FB603B68DBB2194607
:105C4000F868FFF763FE7868FFF7A4FF034618467D
:105C50001037BD4680BD00BFC0FC000080B586B0D7
:105C600000AFF860B9607A60FB681B680E4A52F8B2
:105C700023307B617B68002B03D07869FFF712FE2D
:105C800002E07869FFF7FCFD7869FFF732FE034612
:105C90001A46BB681A70F868FFF7A6FF0346184655
:105CA0001837BD4680BD00BFC0FC000080B584B081
:105CB00000AF786039607B681B680E4A52F8233069
:105CC000FB607B681B681846FFF7BDFD0346BB60A1
:105CD0003B68094A82FB03129211DB17D31A1A465A
:105CE0000023B968F86805F0EBFC00BF1037BD462B
:105CF00080BD00BFC0FC0000D34D621090B589B0DC
:105D000000AFF860B9607A603B60F868FFF7DCFECE
:105D10000346002B05D0F868FFF7EAFE6FF0010399
:105D200055E0BB6843F001031946F868FFF77AFFB6
