:1000000000000020F50400003D5D0000435D00009D
:10001000495D00004F5D0000555D000000000000DC
:100020000000000000000000000000006505000066
:100030005B5D0000000000000B0600006B06000086
:100040002D5500003B550000495500005755000054
:100050006555000073550000815500008F55000064
:100060009D550000AB550000B9550000C755000074
:10007000D5550000E3550000F1550000FF55000084
:100080000D560000615D0000675D00006D5D0000C1
:10009000735D0000795D00007F5D0000855D0000FC
:1000A0008B5D0000915D0000975D00009D5D00008C
:1000B000A35D0000A95D0000AF5D00001B560000BD
:1000C000B55D000029560000BB5D000037560000FA
:1000D000C15D000045560000C75D0000CD5D000019
:1000E000D35D0000D95D0000DF5D0000E55D00002C
:1000F000EB5D0000F15D0000F75D0000FD5D0000BC
:1001000005050000050500000505000005050000C7
:10011000035E0000095E00000F5E0000155E000037
:100120001B5E0000215E0000275E00002D5E0000C7
:10013000335E0000395E00003F5E0000455E000057
:100140004B5E0000515E000053560000575E0000F9
:10015000615600005D5E0000635E0000695E0000A5
:100160006F5E0000755E00007B5E0000815E000037
:10017000875E00008D5E0000935E0000995E0000C7
:100180009F5E000005050000050500000505000054
:100190000505000005050000050500000505000037
:1001A0000505000005050000050500000505000027
:1001B0000505000005050000050500000505000017
:1001C0000505000005050000050500000505000007
:1003F000050500000505000005050000FFFFFFFFE3
:10040000FFFFFFFFFFFFFFFFFFFFFFFFFEFFFFFFFD
:1004400010B5054C237833B9044B13B10448AFF30E
:1004500000800123237010BDC010002000000000A8
:10046000080D010008B5034B1BB103490348AFF366
:10047000008008BD00000000C4100020080D01002D
:10048000154B002B08BF134B9D46A3F5803A002166
:100490008B460F461348144A121A0CF0C5FF0F4B37
:1004A000002B00D098470E4B002B00D0984700201F
:1004B000002104000D000D48002802D00C480CF06B
:1004C00091FC0CF0D9FC2000290005F00BF80CF091
:1004D00095FC00BF000008000000002000000000A4
:1004E00015520000C0100020684A0020E5CD000031
:1004F0001DCE000072B605F071FF05F009FF62B66F
:10050000FFF7BEFFFFF7FEBF80F309887047EFF3E8
:1005100009807047684680F309885A480078C00708
:1005200014BF0220032080F314887047DFF858C1FD
:10053000EFF305831B0618BF6047EFF31483DB0757
:1005400008BF604700DF7047DFF840C1EFF3058365
:100550001B0618BF6047EFF31483DB0708BF604733
:1005600000DF7047EFF30980816911F8021CE1BBDD
:1005700090E80F1010B5E047BDE81040EFF3098C8C
:100580008CE80700424B93E80600914208BF704791
:1005900041B91EF0100F16D13E49086820F0010045
:1005A000086010E01EF0100F06BF2CED108A01202D
:1005B000002081F825002CE9F00FC1F828C00CB408
:1005C00009F004FB0CBC1A60D2F828C0BCE8F00F9C
:1005D00092F8250000280EBF6FF0020E6FF0120E89
:1005E000BCEC108A8CF30988704710B52A4A12684F
:1005F000914209D8294C54F8214090E80F10A047A7
:10060000EFF3098C8CE80F0010BD10B509F062FA09
:10061000BDE810401E4B93E80600914208BF7047AA
:10062000EFF3098C1EF0100F06BF2CED108A01208D
:10063000002081F825002CE9F00FC1F828C00CB487
:1006400009F0C4FA0CBC1A60D2F828C0BCE8F00F5C
:1006500092F8250000280EBF6FF0020E6FF0120E08
:10066000BCEC108A8CF30988704710B509F090FA39
:10067000FFF7CEBF10B509F089FA09F089FAFFF744
:10068000C7BF000078FA000059940000759400007C
:10069000044A002034EF00E000000000FCFFFFFFF0
:1006A00081F0004102E000BF83F0004330B54FEA23
:1006B00041044FEA430594EA050F08BF90EA020F90
:1006C0001FBF54EA000C55EA020C7FEA645C7FEA23
:1006D000655C00F0E2804FEA5454D4EB5555B8BF46
:1006E0006D420CDD2C4480EA020281EA030382EAB7
:1006F000000083EA010180EA020281EA0303362D49
:1007000088BF30BD11F0004F4FEA01314FF4801C1B
:100710004CEA113102D0404261EB410113F0004F2D
:100720004FEA03334CEA133302D0524263EB4303E4
:1007300094EA050F00F0A780A4F10104D5F1200E82
:100740000DDB02FA0EFC22FA05F2801841F10001DD
:1007500003FA0EF2801843FA05F359410EE0A5F1B1
:1007600020050EF1200E012A03FA0EFC28BF4CF0E2
:10077000020C43FA05F3C01851EBE37101F0004598
:1007800007D54FF0000EDCF1000C7EEB00006EEBA5
:100790000101B1F5801F1BD3B1F5001F0CD349082F
:1007A0005FEA30004FEA3C0C04F101044FEA445286
:1007B00012F5800F80F09A80BCF1004F08BF5FEA0D
:1007C000500C50F1000041EB045141EA050130BDED
:1007D0005FEA4C0C404141EB010111F4801FA4F190
:1007E0000104E9D191F0000F04BF01460020B1FAE5
:1007F00081F308BF2033A3F10B03B3F120020CDA1D
:100800000C3208DD02F1140CC2F10C0201FA0CF0FA
:1008100021FA02F10CE002F11402D8BFC2F1200C5F
:1008200001FA02F120FA0CFCDCBF41EA0C01904015
:10083000E41AA2BF01EB0451294330BD6FEA04045E
:100840001F3C1CDA0C340EDC04F11404C4F1200249
:1008500020FA04F001FA02F340EA030021FA04F35B
:1008600045EA030130BDC4F10C04C4F1200220FAB2
:1008700002F001FA04F340EA0300294630BD21FAF0
:1008800004F0294630BD94F0000F83F4801306BFB6
:1008900081F480110134013D4EE77FEA645C18BFAA
:1008A0007FEA655C29D094EA050F08BF90EA020F41
:1008B00005D054EA000C04BF1946104630BD91EA39
:1008C000030F1EBF0021002030BD5FEA545C05D13C
:1008D0004000494128BF41F0004130BD14F580047B
:1008E0003CBF01F5801130BD01F0004545F0FE41EF
:1008F00041F470014FF0000030BD7FEA645C1ABF24
:10090000194610467FEA655C1CBF0B46024650EA5A
:10091000013406BF52EA033591EA030F41F4002186
:1009200030BD00BF90F0000F04BF0021704730B50C
:100930004FF4806404F132044FF000054FF00001E1
:1009400050E700BF90F0000F04BF0021704730B5A2
:100950004FF4806404F1320410F0004548BF404277
:100960004FF000013EE700BF42004FEAE2014FEACC
:1009700031014FEA02701FBF12F07F4393F07F4FA7
:1009800081F06051704732F07F4208BF704793F0AA
:100990007F4F04BF41F40021704730B54FF46074BD
:1009A00001F0004521F000411CE700BF50EA0102C0
:1009B00008BF704730B54FF000050AE050EA010269
:1009C00008BF704730B511F0004502D5404261EBD9
:1009D00041014FF4806404F132045FEA915C3FF41A
:1009E000D8AE4FF003025FEADC0C18BF03325FEAB7
:1009F000DC0C18BF033202EBDC02C2F1200300FA68
:100A000003FC20FA02F001FA03FE40EA0E0021FA8C
:100A100002F11444BDE600BF70B54FF0FF0C4CF47A
:100A2000E06C1CEA11541DBF1CEA135594EA0C0F2C
:100A300095EA0C0F00F0DEF82C4481EA030621EA67
:100A40004C5123EA4C5350EA013518BF52EA0335A2
:100A500041F4801143F4801338D0A0FB02CE4FF054
:100A60000005E1FB02E506F00042E0FB03E54FF084
:100A70000006E1FB03569CF0000F18BF4EF0010E7C
:100A8000A4F1FF04B6F5007F64F5407404D25FEA78
:100A90004E0E6D4146EB060642EAC62141EA55512B
:100AA0004FEAC52040EA5E504FEACE2EB4F1FD0C6D
:100AB00088BFBCF5E06F1ED8BEF1004F08BF5FEAEB
:100AC000500E50F1000041EB045170BD06F000469D
:100AD00046EA010140EA020081EA0301B4EB5C044A
:100AE000C2BFD4EB0C0541EA045170BD41F4801142
:100AF0004FF0000E013C00F3AB8014F1360FDEBF67
:100B0000002001F0004170BDC4F10004203C35DA42
:100B10000C341BDC04F11404C4F1200500FA05F3C5
:100B200020FA04F001FA05F240EA020001F0004266
:100B300021F0004110EBD37021FA04F642EB0601DC
:100B40005EEA430E08BF20EAD37070BDC4F10C0406
:100B5000C4F1200500FA04F320FA05F001FA04F2CA
:100B600040EA020001F0004110EBD37041F10001B6
:100B70005EEA430E08BF20EAD37070BDC4F12005C1
:100B800000FA05F24EEA020E20FA04F301FA05F229
:100B900043EA020321FA04F001F0004121FA04F2D1
:100BA00020EA020000EBD3705EEA430E08BF20EAA1
:100BB000D37070BD94F0000F0FD101F000464000DB
:100BC00041EB010111F4801F08BF013CF7D041EA5D
:100BD000060195F0000F18BF704703F00046520061
:100BE00043EB030313F4801F08BF013DF7D043EA32
:100BF0000603704794EA0C0F0CEA135518BF95EAE8
:100C00000C0F0CD050EA410618BF52EA4306D1D16E
:100C100081EA030101F000414FF0000070BD50EA8D
:100C2000410606BF1046194652EA430619D094EA17
:100C30000C0F02D150EA013613D195EA0C0F05D101
:100C400052EA03361CBF104619460AD181EA030155
:100C500001F0004141F0FE4141F470014FF000000D
:100C600070BD41F0FE4141F4780170BD70B54FF0A8
:100C7000FF0C4CF4E06C1CEA11541DBF1CEA135528
:100C800094EA0C0F95EA0C0F00F0A7F8A4EB05040A
:100C900081EA030E52EA03354FEA013100F0888001
:100CA0004FEA03334FF0805545EA131343EA1263CA
:100CB0004FEA022245EA111545EA10654FEA00267F
:100CC0000EF000419D4208BF964244F1FD0404F538
:100CD000407402D25B084FEA3202B61A65EB030594
:100CE0005B084FEA32024FF480104FF4002CB6EB51
:100CF000020E75EB030E22BFB61A754640EA0C00D1
:100D00005B084FEA3202B6EB020E75EB030E22BF10
:100D1000B61A754640EA5C005B084FEA3202B6EB51
:100D2000020E75EB030E22BFB61A754640EA9C0010
:100D30005B084FEA3202B6EB020E75EB030E22BFE0
:100D4000B61A754640EADC0055EA060E18D04FEA9E
:100D5000051545EA16754FEA06164FEAC30343EA3E
:100D600052734FEAC2025FEA1C1CC0D111F4801F0B
:100D70000BD141EA00014FF000004FF0004CB6E704
:100D800011F4801F04BF01430020B4F1FD0C88BFA3
:100D9000BCF5E06F3FF6AFAEB5EB030C04BFB6EBAE
:100DA000020C5FEA500C50F1000041EB045170BDA1
:100DB0000EF0004E4EEA113114EB5C04C2BFD4EBCE
:100DC0000C0541EA045170BD41F480114FF0000E52
:100DD000013C90E645EA060E8DE60CEA135594EACE
:100DE0000C0F08BF95EA0C0F3FF43BAF94EA0C0FD1
:100DF0000AD150EA01347FF434AF95EA0C0F7FF446
:100E000025AF104619462CE795EA0C0F06D152EA99
:100E100003353FF4FDAE1046194622E750EA41067D
:100E200018BF52EA43067FF4C5AE50EA41047FF48E
:100E30000DAF52EA43057FF4EBAE12E74FF0FF3CF3
:100E400006E000BF4FF0010C02E000BF4FF0010CC4
:100E50004DF804CD4FEA410C7FEA6C5C4FEA430C3D
:100E600018BF7FEA6C5C1BD001B050EA410C0CBF8C
:100E700052EA430C91EA030F02BF90EA020F0020EE
:100E8000704710F1000F91EA030F58BF994208BF55
:100E900090422CBFD8176FEAE37040F00100704712
:100EA0004FEA410C7FEA6C5C02D150EA013C07D169
:100EB0004FEA430C7FEA6C5CD6D152EA033CD3D0B4
:100EC0005DF8040B704700BF8446104662468C46AE
:100ED0001946634600E000BF01B5FFF7B7FF0028E1
:100EE00048BF10F1000F01BD4DF808EDFFF7F4FF0A
:100EF0000CBF012000205DF808FB00BF4DF808ED95
:100F0000FFF7EAFF34BF012000205DF808FB00BFB7
:100F10004DF808EDFFF7E0FF94BF012000205DF8D9
:100F200008FB00BF4DF808EDFFF7CEFF94BF01208E
:100F300000205DF808FB00BF4DF808EDFFF7C4FF87
:100F400034BF012000205DF808FB00BF4FEA410CD0
:100F50007FEA6C5C02D150EA013C0AD14FEA430CB3
:100F60007FEA6C5C02D152EA033C02D14FF00000F0
:100F700070474FF0010070474FEA410212F500122E
:100F800015D211D56FF47873B3EB625212D94FEAD0
:100F9000C12343F0004343EA505311F0004F23FABA
:100FA00002F018BF404270474FF00000704750EA0F
:100FB000013005D111F0004008BF6FF000407047CC
:100FC0004FF00000704700BF4A0011D212F5001226
:100FD00011D20DD56FF47873B3EB62520ED44FEA91
:100FE000C12343F0004343EA505323FA02F0704711
:100FF0004FF00000704750EA013002D14FF0FF304F
:1010000070474FF0000070474FEA4102B2F1E043F1
:1010100024BFB3F5001CDCF1FE5C0DD901F0004CDF
:101020004FEAC0024CEA5070B2F1004F40EB83002F
:1010300008BF20F00100704711F0804F21D113F15B
:101040003872BCBF01F00040704741F480114FEA94
:101050005252C2F11802C2F1200C10FA0CF320FA1D
:1010600002F018BF40F001004FEAC1234FEAD3233A
:1010700003FA0CFC40EA0C0023FA02F34FEA4303A4
:10108000CCE77FEA625307D150EA01331EBF4FF02D
:10109000FE4040F44000704701F0004040F0FE4048
:1010A00040F40000704700BF53B94AB9002908BF97
:1010B00000281CBF4FF0FF314FF0FF3001F0F8B8AF
:1010C000ADF1080C6DE904CE00F006F8DDF804E09F
:1010D000DDE9022304B070472DE9F047089E04467D
:1010E0008846002B4BD18A42154667D9B2FA82F264
:1010F0004AB1C2F1200701FA02F320FA07F795403E
:1011000047EA030894404FEA154E230CB8FBFEF75C
:101110001FFA85FC0EFB178843EA084307FB0CF116
:10112000994209D9EB1807F1FF3080F01B819942F1
:1011300040F21881023F2B445B1AA4B2B3FBFEF0CD
:101140000EFB103344EA034400FB0CFCA44509D910
:101150002C1900F1FF3380F00781A44540F204818F
:1011600002382C4440EA0740A4EB0C0400271EB1CF
:10117000D4400023C6E900433946BDE8F0878B42DE
:1011800009D9002E00F0EB800027C6E9000138469F
:101190003946BDE8F087B3FA83F7002F47D18B4279
:1011A00002D3824200F2FA80841A61EB0303012029
:1011B0009846002EE0D0C6E90048DDE702B9FFDE20
:1011C000B2FA82F2002A40F08F80491B4FEA154E96
:1011D0001FFA85F80127B1FBFEFC230C0EFB1C1146
:1011E00043EA014308FB0CF1994207D9EB180CF1D3
:1011F000FF3002D2994200F2CD808446591AA3B240
:10120000B1FBFEF00EFB101443EA044408FB00F8A7
:10121000A04507D92C1900F1FF3302D2A04500F2F6
:10122000B6801846A4EB080440EA0C409FE7C7F1DB
:10123000200CBB4022FA0CFE4EEA030E01FA07F422
:1012400020FA0CF521FA0CF34FEA1E482543B3FBB4
:10125000F8F92C0C08FB19331FFA8EFA44EA034301
:1012600009FB0AF49C4202FA07F200FA07F10BD9D3
:101270001EEB030309F1FF3080F087809C4240F2AF
:101280008480A9F1020973441B1BADB2B3FBF8F0D3
:1012900008FB103345EA034400FB0AFAA24508D9CB
:1012A0001EEB040400F1FF336BD2A24569D902386A
:1012B000744440EA0940A0FB0289A4EB0A044C45AF
:1012C000C2464B4654D351D0002E69D0B1EB0A052B
:1012D00064EB030404FA0CFCFD40FC404CEA0505F9
:1012E000C6E90054002747E7C2F1200320FA03F7BC
:1012F000954001FA02F021FA03F34FEA154E384304
:10130000010CB3FBFEF71FFA85F80EFB173341EA19
:10131000034107FB08F38B4204FA02F407D969186A
:1013200007F1FF3C2FD28B422DD9023F2944CB1A23
:1013300081B2B3FBFEF00EFB103341EA034100FB28
:1013400008F38B4207D9691800F1FF3C17D28B4292
:1013500015D902382944C91A40EA07473BE73746FE
:10136000304609E70746E7E61846FBE64145ABD2BB
:10137000B8EB020A69EB0E0201381346A4E7604697
:10138000E9E7184695E76746D1E781467CE70238EA
:101390002C4447E7ACF1020C2B442FE7384608E712
:1013A0003746E9E603685A004CBF43F0004323F098
:1013B00000431844704700BF61B32DE9F84F01F1B5
:1013C000FF3A90460646D146002707EB090404EB96
:1013D000D4746410E50071190846FFF7E3FFA245D5
:1013E000834605F10800304409D0FFF7DBFFC34511
:1013F00000F1FF3005D8404509D2671CE5E7C34539
:1014000005D9A74202D004F1FF39DEE700210846E2
:10141000BDE8F88F08467047012807D0022807D09A
:10142000044B00280CBF1846002070470248704744
:1014300002487047051B0000091B00000D1B00003F
:1014400030B5254B83B004468D1E4BB301A9284609
:10145000AFF30080F0B101992A46FFF7ADFF0146D6
:10146000C0B1FFF79FFF4B68A064012B2ED0002B6B
:1014700001F1040026DBFFF795FF0023C4E9130305
:101480000368002B12DBFFF78DFF00232061184655
:1014900003B030BD002323610923184603B030BDDB
:1014A0000E490F48091AC9100191D5E7C3F303602B
:1014B000FFF7B2FF002814BF00230923206118465C
:1014C00003B030BD0123C4E91303D9E7002323612E
:1014D0000523184603B030BD00000000841501004C
:1014E000341101000368DA0710B5044606D49B07DF
:1014F00000F1480009D500F05FFC2368590709D5C1
:101500001A070ED5DB0613D510BD00F04DFC23687D
:101510005907F5D404F1D00000F056FC23681A07EF
:10152000F0D404F5A87000F057FC2368DB06EBD478
:1015300004F5E870BDE8104000F092BC036803B108
:1015400003441846704700BF09207047704700BF2A
:1015500070B504460D4608E02B6C63612A4623698A
:10156000214601209847082808D1296C2046FFF71A
:1015700067FF06460028EFD00BF00EFC0728FBD1D2
:101580003046296CFFF7E2FF281D00F001FC00BF88
:101590002DE9F0470C1D054617460FCCADF5727DC1
:1015A00003AE0FC60FCC0FC60FCC0FC694E80F00CA
:1015B00002ACD5F80C80D5F8189086E80F0000230F
:1015C000236021E0236C6B614FF4F07221467AA80E
:1015D00000F070FE2B697AAA294630469847889B0E
:1015E000CDE900498246636431462B462A460120F4
:1015F000C0470746F8B94FF4F0727AA9204600F0C8
:1016000059FEBAF1080F1CD1216C2846FFF718FFCC
:10161000002F08BF0926074618BF0A260028D1D088
:10162000A36B46F01001CDE900492A46636401200E
:101630002B46C04700B1092738460DF5727DBDE83D
:10164000F087BAF1070FF6D13846216CFFF77EFF1D
:1016500003A800F09DFB00BF406C7047F0B5CB6B5A
:101660000B640D1D0F4606460FCDF9B001AC0FC43B
:101670000FCD0FC40FCD0FC495E80F004FF0FF350D
:1016800084E80F00009506E033696A4631469847C2
:101690000828044608D110993046FFF7D1FE0028EB
:1016A000F2D0092079B0F0BD6846FFF71BFF062C89
:1016B000F7D139463046FFF74BFF00BF30B4DD6B42
:1016C000C160826119461D64002230BC60E700BF22
:1016D00070B5C66843690B64BEB903690A4604461F
:1016E0000D46014602209847072807D0082803D155
:1016F00029462046FFF72CFF0BF04EFB3046296CA5
:10170000FFF724FF281D00F043FB0122FFF740FFF5
:101710000BF042FBC2681AB1CA6B0A64002237E7B9
:101720009CE700BF704700BF836813B101460120EA
:1017300018477047042907D8DFE801F003080608B6
:1017400008000BB90F2A03D9022070470120704707
:1017500000EB820218465368009A1360704700BF7E
:1017600010B584B0002303AC0A4600941946FFF775
:10177000E1FF039804B010BD042907D8DFE801F0A9
:101780000308060808000BB90F2A03D90220704786
:101790000120704700EB8200009A126842601846F0
:1017A000704700BF10B584B004AC002344F8042D8A
:1017B0000A4600941946FFF7DFFF04B010BD00BFD2
:1017C000F0B5D36B1364151D07460E460FCDADF56E
:1017D0000F7D17AC0FC40FCD0FC40FCD0FC495E80C
:1017E0000F004FF0FF3584E80F00169510E016A8A3
:1017F000FFF7D8FF314616A8B84716AA694678B948
:10180000049B08209847052804460AD0092807D0D9
:1018100026996846FFF714FE6A460C210028E6D098
:10182000092416A8FFF75EFE20460DF50F7DF0BDDA
:101830002DE9F04F0D46C96C89B00C1D164600F01D
:10184000030B0A6806941F46002B68D0130CD9B20C
:1018500012048DF81D30022304EB810405928DF8EB
:101860001C302B6DBBF1020F08BFAC6B13F00103F2
:1018700046D1019300F008030093D4F80090B9F129
:10188000000F00F0F380022F45D0B4F80090B4F8B8
:1018900002800434AB6C28F0010A0F2130469A44D0
:1018A000FFF75EFF824534D829F001035344834299
:1018B00094BF002001204FEA480808F0020809F010
:1018C000010948EA0908B8F1010F3AD031D3B8F15B
:1018D000020F1AD1236823F0004ABBF1000F66D132
:1018E00030B1009A002A6CD0BAF1000F00F090805D
:1018F000002B00DA04340AF1010304EB8304BCE793
:10190000304605A900F046FB78B1092009B0BDE8D2
:10191000F08F0020CFE7D4F804800834BAE7120231
:1019200003230592ADF81C309BE7082009B0BDE801
:10193000F08FBBF1000F02D0002840F0B4800434D7
:101940009BE7BBF1000F18D1A8B1D4E90023991C83
:101950004FEAD272D9D005F158010133049100F059
:10196000B580201DFFF7EAFD04AB01462846AFF322
:101970000080002867D108347FE70D213046D5F874
:101980002080FFF7EDFE8045F5D1AB6A9C42F2D195
:101990002046FFF707FD0F2102463046FFF702FF02
:1019A00030462A460021FFF7FDFE0720AEE70D2155
:1019B0003046D5F82080FFF7D3FE804532D023682B
:1019C00096E7BAF1000F23D005F1580304F104089B
:1019D000CDF808B0DDF800900397A3461C4602E05E
:1019E0005745B94640D040460494FFF7A7FD04ABE5
:1019F000014600222846AFF3008009F1010708F1F3
:101A000004080028ECD0D1455C46DDE902B7D6D108
:101A100030460D21FFF7A4FE049B2862C5E9093476
:101A2000062073E7AB6A9C42C9D104224FF000083C
:101A3000A318C5E90AA8C5E90C23236843454DDB73
:101A40000123019357E780460D213046FFF788FEBA
:101A5000B8F1020F28623ED12B46049A43F82C2F8E
:101A60006B62AC62062051E75C46D1E705A93046BF
:101A700000F090FA00287FF448AF019B002B3FF460
:101A800054AF0F213046FFF76BFE0E210246304661
:101A9000FFF788FE30461A4A0F21FFF783FE072022
:101AA00009B0BDE8F08F2046FFF77CFC0434074600
:101AB000AC632846AFF3008000283FF426AF3046E1
:101AC0003A460F21FFF76EFE07201FE730460D2133
:101AD000FFF746FE2862049B6B62C2E70AF1010031
:101AE00004EB8000FFF75EFC0F2102463046FFF753
:101AF00059FE30462A464146FFF754FE072005E7C7
:101B000000000000002393E6012391E602238FE604
:101B10002DE9F0410546C4B0042906D8DFE801F0FC
:101B20004D2B05030900032B5FD0022044B0BDE814
:101B3000F081002BF9D1102AF7D82B68DC0600F1D0
:101B4000F48022AC2046019200F094F9A86B019A2F
:101B50000023012606FA03F1114203D0016844F87C
:101B6000231004300133042BF4D1A863204600F085
:101B700077F90020DAE7012B4FEA124697B252D0EC
:101B8000052BD2D106EB0708B8F1200FCDD80F2EC8
:101B900040F29980B846002F40F0DB80AA6BAA6320
:101BA0000F2E40F2BE80B8F1000F02D002A800F064
:101BB0000BF9002044B0BDE8F081002BB5D1AC6B2F
:101BC00097B2281D012606FA03F1394203F10103F9
:101BD00002D0216801600434102B00F10400F2D11E
:101BE00012F40050E5D1AC63A0E7160C97B2F319DC
:101BF000102B9AD82B681A075DD422AC204600F02F
:101C00000DF904EBC601AB6B3FB103EBC7021868DB
:101C100041F8040B04339342F9D12046AB6300F042
:101C2000DBF8002082E7F219102A3FF67EAF0F2E74
:101C30003FF67BAF2A68D10708D5284622F0030279
:101C400040F8482B019300F0B3F8019B019322ACBC
:101C5000204600F0ADF8A96B019B002F00F09580A5
:101C60007F0004EBC6044FF00008043C01EB870240
:101C700051F8040B44F8040F9142F9D1B8F1000F68
:101C80000FD002AC102E314638BF102104EBC10139
:101C9000843902EBC80452F8040B41F8040F944253
:101CA000F9D1012B7FF47BAF22AC0432AA6320462A
:101CB00000F07AF87DE723F008032B6005F5A870A3
:101CC00000F0ACF899E7B8F1100F2A6843D9D007B3
:101CD000A8F110080BD5284622F0010242F00202BA
:101CE00040F8482B019300F06BF82A68019B5107DC
:101CF00025D40F2E04D822A8019300F061F8019B8F
:101D0000019302AC204600F063F8C6F110010029EF
:101D1000AA6B019BB6DD22AC4F0004EBC604114652
:101D2000A3E722A800F048F83DE723F010032B605A
:101D300005F5E870019200F09DF8019A01E7284648
:101D400022F0040240F8D02B019300F041F8019BEF
:101D5000CFE72A68CBE7D0070AD5284622F0010250
:101D600042F0020240F8482B019300F029F8019B51
:101D7000019322AC204600F023F8B846A96B019BE2
:101D8000002F7FF46DAF0A4609E70A468DE700BFD2
:101D900000F1340191E838009C46A6464CF8045DF9
:101DA00090E8FF0FE54600BD90EC210B704700BFA7
:101DB00080EC210B704700BF90EC200B704700BFF8
:101DC00080EC200B704700BFD0EC200B704700BFA9
:101DD000C0EC200B704700BFF0EC0201F0EC0211E8
:101DE000F0EC0221F0EC0231F0EC0241F0EC025197
:101DF000F0EC0261F0EC0271F0EC0281F0EC029187
:101E0000F0EC02A1F0EC02B1F0EC02C1F0EC02D176
:101E1000F0EC02E1F0EC02F1704700BFE0EC0201EF
:101E2000E0EC0211E0EC0221E0EC0231E0EC0241D6
:101E3000E0EC0251E0EC0261E0EC0271E0EC0281C6
:101E4000E0EC0291E0EC02A1E0EC02B1E0EC02C1B6
:101E5000E0EC02D1E0EC02E1E0EC02F1704700BFFF
:101E6000B0FC0181B0FC0191B0FC01A1B0FC01B15A
:101E7000704700BFA0FC0181A0FC0191A0FC01A162
:101E8000A0FC01B1704700BFEC4600B52DE9005041
:101E90002DE9FF1F4FF000032DE90C0001A9FFF70A
:101EA000DDFBDDF840E012B0704700BFEC4600B546
:101EB0002DE900502DE9FF1F4FF000032DE90C0024
:101EC00001A9FFF705FCDDF840E012B0704700BF44
:101ED000EC4600B52DE900502DE9FF1F4FF000033F
:101EE0002DE90C0001A9FFF715FCDDF840E012B068
:101EF000704700BFEC4600B52DE900502DE9FF1FEB
:101F00004FF000032DE90C0001ABFFF7D7FBDDF824
:101F100040E012B0704700BFEC4600B52DE900501C
:101F20002DE9FF1F4FF000032DE90C0001AAFFF778
:101F300047FCDDF840E012B0704700BF027A82B97A
:101F4000437AABB14268013B10B44372136803217A
:101F5000141D01721A02446002605DF8044B180EF1
:101F600070470368013A02721A020260180E704745
:101F7000B020704700B585B003AA0023009219462F
:101F80000C22FFF7D7FB039805B05DF804FB00BFF8
:101F9000F0E700BF2DE9F043054685B00E464FF04F
:101FA00000083046FFF7CAFFB028044600F0B180B1
:101FB000070620D500F0F003802B65D0902B36D09B
:101FC000A02B78D0B02B47D0C02B00F08A8000F037
:101FD000F803D02B0BD100F00702013242F40022AB
:101FE000052301212846FFF793FD0028D9D00920B9
:101FF00005B0BDE8F0830DF10C09002319468700F8
:10200000CDF800900D222846FFF794FBFFB2039B0A
:10201000CDF80090043760064CBFDF1BFF1800238B
:1020200019460D2228460397FFF7A6FBB9E700F0F3
:102030000D030D2BDBD003AF002300F00F02194678
:1020400000972846FFF776FB0023009719460D22DC
:102050002846FFF791FBA4E7B1285FD0B22800F033
:10206000CC80B3287ED000F0FC03B42BBFD000F0AE
:1020700007020132012342F4002219462846FFF7E5
:1020800047FD00288DD0B2E73046FFF757FF240206
:102090000443B4F5004FAAD024010023A2B219468C
:1020A0002846FFF735FD0028A1D114F4004F18BFD2
:1020B0004FF0010875E7C24302F007034FF47F6257
:1020C0001A41010702F47F624FF0000348BF42F457
:1020D000804219462846FFF71BFD00283FF461AFF8
:1020E00085E7C62851D0C7285AD000F0F803C02B86
:1020F00069D0C82875D0C9287FF479AF3046FFF77A
:102100001DFF020300F00F0002F4702201300243B1
:1021100066E7B8F1000F14D0002069E73046FFF7FA
:102120000DFF00283FF463AF10F0F0037FF45FAFC2
:10213000024619462846FFF7EBFC00283FF431AF72
:1021400055E703AC43460E22414600942846FFF76C
:10215000F1FA0094284643460F224146FFF70CFB54
:10216000404645E73046FFF7E9FE010300F00F0067
:1021700001F47021421C01230A4328461946FFF747
:10218000C7FC00283FF40DAF31E73046FFF7D6FE1D
:10219000010300F00F0001F47021421C0323EBE760
:1021A0003046FFF7CBFE024600283FF420AF10F088
:1021B000F0037FF41CAF04212846FFF7A9FC002898
:1021C0003FF4EFAE13E700F00F020132032342F4B5
:1021D000202219462846FFF79BFC00283FF4E1AE79
:1021E00005E73046FFF7AAFE00F0F00200F00F030B
:1021F0001032013343EA0232F2E600230DF10C09FA
:102200000D221946CDF800902846FFF793FA304684
:10221000FFF794FE02064FF002070CD5039B00F077
:102220007F00B840034430460393FFF787FE030660
:1022300007F10707F2D4039BCDF8009000F07F046C
:1022400003F50172BC400023144419460D222846B0
:102250000394FFF791FAA4E610B5C36C84B05A68F2
:1022600003208DF80C00DC798DF80D401202083344
:10227000084601A901920293FFF78CFE04B010BD3D
:1022800008B5FFF785FE806C08BD00BF08B5FFF7F5
:102290007FFEC06CC37900EB8300083008BD00BF2F
:1022A00008B50AF079FD00BF08B5FFF7F9FF00BFD8
:1022B000704700BF844641EA000313F003036DD169
:1022C000403A41D351F8043B40F8043B51F8043BF9
:1022D00040F8043B51F8043B40F8043B51F8043B00
:1022E00040F8043B51F8043B40F8043B51F8043BF0
:1022F00040F8043B51F8043B40F8043B51F8043BE0
:1023000040F8043B51F8043B40F8043B51F8043BCF
:1023100040F8043B51F8043B40F8043B51F8043BBF
:1023200040F8043B51F8043B40F8043B51F8043BAF
:1023300040F8043B51F8043B40F8043B51F8043B9F
:1023400040F8043B403ABDD2303211D351F8043B3F
:1023500040F8043B51F8043B40F8043B51F8043B7F
:1023600040F8043B51F8043B40F8043B103AEDD2EE
:102370000C3205D351F8043B40F8043B043AF9D23F
:10238000043208D0D2071CBF11F8013B00F8013B12
:1023900001D30B8803806046704700BF082A13D31F
:1023A0008B078DD010F003038AD0C3F10403D21A37
:1023B000DB071CBF11F8013B00F8013B80D331F86B
:1023C000023B20F8023B7BE7043AD9D3013A11F8EB
:1023D000013B00F8013BF9D20B7803704B78437056
:1023E0008B7883706046704700000000000000009A
:1023F00001F0FF01102A2BDB10F0070F08D010F8B6
:10240000013B013A8B422DD010F0070F42B3F6D1B9
:10241000F0B441EA012141EA014122F007047FF0D2
:1024200000070023F0E80256083C85EA010586EA29
:10243000010685FA47F5A3FA87F586FA47F6A5FA65
:1024400087F68EB9EED1F0BC01F0FF0102F0070271
:1024500032B110F8013B013A83EA010313B1F8D11C
:102460000020704701387047002D06BF35460338FD
:10247000073815F0010F07D1013015F4807F02BF36
:10248000013015F4C03F0130F0BC0138704700BF87
:10249000000000000000000000000000000000003C
:1024A000000000000000000000000000000000002C
:1024B000000000000000000000000000000000001C
:1024C00090F800F06DE9024520F007016FF0000C74
:1024D00010F0070491F820F040F049804FF000041C
:1024E0006FF00700D1E9002391F840F000F10800F7
:1024F00082FA4CF2A4FA8CF283FA4CF3A2FA8CF32F
:102500004BBBD1E9022382FA4CF200F10800A4FA95
:102510008CF283FA4CF3A2FA8CF3E3B9D1E90423E9
:1025200082FA4CF200F10800A4FA8CF283FA4CF320
:10253000A2FA8CF37BB9D1E9062301F1200182FADA
:102540004CF200F10800A4FA8CF283FA4CF3A2FAE0
:102550008CF3002BC6D0002A04BF04301A4612BAEE
:10256000B2FA82F2FDE8024500EBD2007047D1E9F1
:10257000002304F00305C4F100004FEAC50514F080
:10258000040F91F840F00CFA05F562EA05021CBF51
:1025900063EA050362464FF00004A9E780B582B004
:1025A00000AF78607B685B68012B08D17B681B7A81
:1025B000002B04D07B681B69184602F00FFD00BF9A
:1025C0000837BD4680BD80B582B000AF78607868BE
:1025D000FFF7E4FF00BF0837BD4680BD80B582B07D
:1025E00000AF78607B681B78002B05D17B680122E7
:1025F0001A707868FFF7E7FF00BF0837BD4680BD57
:1026000080B582B000AF78607B685B68012B0DD12C
:102610007B681B7A002B09D07B681B69184602F087
:1026200045F87B681B69184602F04AF800BF083776
:10263000BD4680BD80B582B000AF78607868FFF796
:10264000DFFF00BF0837BD4680BD80B582B000AF58
:1026500078607B681B78002B05D17B6801221A709B
:102660007868FFF7E7FF00BF0837BD4680BD80B53B
:1026700082B000AF78607B685B68012B08D17B6813
:102680001B7A002B04D07B681B69184602F0A6FC5D
:1026900000BF0837BD4680BD80B582B000AF78600E
:1026A0007868FFF7E4FF00BF0837BD4680BD80B5FE
:1026B00082B000AF78607B681B78002B05D17B6807
:1026C00001221A707868FFF7E7FF00BF0837BD46A0
:1026D00080BD80B582B000AF78607B685B68012BFD
:1026E00008D17B681B7A002B04D07B689B6A184654
:1026F00002F093F800BF0837BD4680BD80B582B0B8
:1027000000AF78607868FFF7E4FF00BF0837BD4688
:1027100080BD80B582B000AF78607B681B78002BED
:1027200005D17B6801221A707868FFF7E7FF00BFC8
:102730000837BD4680BD80B483B000AF78607B6849
:102740005B68012B02D17B6802225A6000BF0C3704
:10275000BD465DF8047B704780B582B000AF7860FD
:102760007868FFF7E8FF00BF0837BD4680BD80B539
:1027700082B000AF78607B681B78002B05D17B6846
:1027800001221A707868FFF7E7FF00BF0837BD46DF
:1027900080BD80B485B000AF78607B685B68012B3A
:1027A00011D17B681B7A002B0DD07B68DB6AFB6044
:1027B000FB681B68012B02D1FB6802221A607B6850
:1027C0004FF0FF321A6300BF1437BD465DF8047B3B
:1027D000704780B582B000AF78607868FFF7D9FFA6
:1027E00000BF0837BD4680BD80B582B000AF7860BD
:1027F0007B681B78002B05D17B6801221A707868F2
:10280000FFF7E7FF00BF0837BD4680BD80B588B041
:1028100002AF78607B6800221A727B6801225A60DE
:10282000514B002283F8942000237B614E4B93F898
:1028300094301946786901F04DFF02467B689A6230
:102840007B684A4A5A627B689A6A7B685B6A194667
:10285000104601F063FF2B233B7440237B747B689D
:10286000986A07F1100200230193002300930223CA
:102870001D2101F09EFF4FF4FA7007F05BFD2A2343
:10288000FB737B68986A07F10F0200230193012311
:10289000009301231D2101F08CFF0346FB73FB7B9A
:1028A000002B14D17B68986A07F10F020123019372
:1028B0000023009301231D2101F047FF07F10F01C1
:1028C00007F1130301221846FFF7F4FC01E000238F
:1028D000FB742A233B74FB7C23F00103DBB27B7483
:1028E0007B68986A07F1100200230193002300938C
:1028F00002231D2101F05DFF0E233B7400237B7436
:102900007B68986A07F1100200230193002300936B
:1029100002231D2101F04DFF5B233B7400237B74D8
:102920007B68986A07F1100200230193002300934B
:1029300002231D2101F03DFF2A233B7401237B74F8
:102940007B68986A07F1100200230193002300932B
:1029500002231D2101F02DFF7B6801221A7200BFA6
:102960001837BD4680BD00BFE0100020A0860100E2
:1029700080B483B000AF786039607B6800221A723F
:102980007B6801225A607B6801221A633B6800223F
:102990001A607B683A68DA627B6801221A727B6887
:1029A00000225A7200BF0C37BD465DF8047B7047A9
:1029B00080B584B000AF78607B6800221A727B68B3
:1029C00001225A60164B4FF0FF32C3F88C20144B93
:1029D0000022C3F89020124BD3F88C300A22002139
:1029E000104801F073FF02467B681A617B681B691F
:1029F0004FF4E131184602F03FFA0123FB73002344
:102A0000BB737B681869FB7BBA7B082102F040FA34
:102A10007B6801221A7200BF1037BD4680BD00BF1F
:102A2000E01000207011002080B584B000AF786005
:102A30007B6800221A727B6801225A60164B4FF0A5
:102A4000FF32C3F88420144B0022C3F88820124BB5
:102A5000D3F884200A230021104801F037FF0246F2
:102A60007B681A617B681B694FF4E131184602F0FC
:102A700003FA0123FB730023BB737B681869FB7B9C
:102A8000BA7B082102F004FA7B6801221A7200BFA7
:102A90001037BD4680BD00BFE01000206811002047
:102AA0002DE9F0439FB014AF304BD3E95801304BC0
:102AB000D3E900341A462346FEF716FA0346002BE4
:102AC00005D12B4BD3E90034284AC2E95834274BAF
:102AD000D3F858311B222749184602F0EDF9034676
:102AE000FB771B2223492448FFF7E4FB1F4B93F895
:102AF000F331002B15D11D4B012283F8F3211B4B21
:102B0000022283F8F421194A4FF000034FF0804469
:102B1000C2E97234154A4FF00003184CC2E974340C
:102B20009DE2124B93F8F431022B09D0032B0CD009
:102B3000012B40F083820D4B032283F8F4218EE2B7
:102B40000A4B032283F8F42189E2FB7F002B40F03B
:102B50008582094B1B780A2B40F06A82064B5B7812
:102B6000142B0DD01E2B00F053825BE2D8110020F5
:102B700000000020FB100020E01000200000F03FCB
:102B8000AA4B042283F8F421A94B9A78A84B83F826
:102B9000E420A64BD3E974014FF00002A54BFDF7EA
:102BA00085FD03460C4618462146FEF7E5F9034627
:102BB000013B9F4AD25C9E4B83F8E5209B4BD3E9B7
:102BC00074014FF000029B4BFDF770FD03460C466D
:102BD00018462146954BD3E974341A462346FDF72F
:102BE00065FD03460C46924AC2E92634904BD3E970
:102BF000263418462146FEF7BFF90346013B8C4AAE
:102C0000D25C8B4B83F8E620894BD3E92601874BB6
:102C1000D3E974341A462346FDF748FD03460C46B3
:102C2000834AC2E92634824BD3E92634184621462A
:102C3000FEF7A2F90346013B7D4AD25C7C4B83F848
:102C4000E7207B4BD3E92601784BD3E974341A464D
:102C50002346FDF72BFD03460C46754AC2E9263490
:102C6000734BD3E9263418462146FEF785F903460F
:102C7000013B6F4AD25C6E4B83F8E8206C4BD3E982
:102C800026016A4BD3E974341A462346FDF70EFD3C
:102C900003460C46664AC2E92634654BD3E926341E
:102CA00018462146FEF768F90346013B604AD25CAC
:102CB0005F4B83F8E9205E4BD3E926015B4BD3E9F8
:102CC00074341A462346FDF7F1FC03460C46584A75
:102CD000C2E92634564BD3E9263418462146FEF77E
:102CE0004BF90346013B524AD25C514B83F8EA2030
:102CF0004F4BD3E926014D4BD3E974341A46234692
:102D0000FDF7D4FC03460C46494AC2E92634484B39
:102D1000D3E9263418462146FEF72EF90346013B37
:102D2000434AD25C424B83F8EB20414BD3E9260166
:102D30003E4BD3E974341A462346FDF7B7FC0346ED
:102D40000C463B4AC2E92634394BD3E926341846AF
:102D50002146FEF711F90346013B354AD25C344B5C
:102D600083F8EC20324BD3E92601304BD3E974349D
:102D70001A462346FDF79AFC03460C462C4AC2E944
:102D800026342B4BD3E9263418462146FEF7F4F8B7
:102D90000346013B264AD25C254B83F8ED20244BA9
:102DA000D3E92601214BD3E974341A462346FDF7B3
:102DB0007DFC03460C461E4AC2E926341C4BD3E96F
:102DC000263418462146FEF7D7F80346013B184A39
:102DD0001344022219461848FFF76CFA144BD3E942
:102DE0002601124BD3E972341A462346FDF75EFCE6
:102DF00003460C460E4AC2E926340D4BD3E926346D
:102E000018462146FEF7B8F80346013B084A13442A
:102E1000022219460948FFF74DFA054BD3E926016E
:102E2000024BD3E972341A460AE000BFD8110020E1
:102E3000E010002000000840AC110020AE1100207E
:102E40002346FDF733FC03460C467F4AC2E926348D
:102E50007D4BD3E9263418462146FEF78DF803460C
:102E6000013B794A1344022219467848FFF722FAB7
:102E7000754BD3E92601764BD3E972341A462346C3
:102E8000FDF714FC03460C466F4AC2E926346E4B2C
:102E9000D3E9263418462146FEF76EF80346013B77
:102EA000694A1344022219466A48FFF703FA664B3F
:102EB000D3E92601664BD3E972341A462346FDF75F
:102EC000F5FB03460C46604AC2E926345E4BD3E963
:102ED000263418462146FEF74FF80346013B5A4A6E
:102EE0001344022219465C48FFF7E4F9564BD3E934
:102EF0002601574BD3E972341A462346FDF7D6FB19
:102F000003460C46504AC2E926344F4BD3E92634D7
:102F100018462146FEF730F80346013B4A4AD25C88
:102F2000494B83F8EF20484BD3E92601484BD3E9BE
:102F300074341A462346FDF7B9FB03460C46424A51
:102F4000C2E92634404BD3E9263418462146FEF721
:102F500013F80346013B3C4AD25C3B4B83F8F0201C
:102F6000394BD3E926013A4BD3E974341A46234648
:102F7000FDF79CFB03460C46334AC2E92634324B2C
:102F8000D3E9263418462146FDF7F6FF0346013BF8
:102F90002D4AD25C2C4B83F8F1202B4BD3E9260130
:102FA0002B4BD3E974341A462346FDF77FFB0346C7
:102FB0000C46254AC2E92634234BD3E92634184669
:102FC0002146FDF7D9FF0346013B1F4AD25C1E4B49
:102FD00083F8F2201C4BD3E926011D4BD3E974344E
:102FE0001A462346FDF762FB03460C46164AC2E921
:102FF0002634154BD3E9263418462146FDF7BCFF8D
:103000000346013B104AD25C0F4B83F8F32014E0D7
:103010000F4B012283F8F4210B4B9A780A4B83F86B
:10302000EE200AE00A4B032283F8F42100BF04E0FB
:10303000074B032283F8F42110E00FE0044B032236
:1030400083F8F4210BE000BFE0100020B011002055
:10305000D8110020B2110020B411002000BF0222BC
:10306000C149C248FFF726F90222C149C148FFF70A
:1030700021F90222C049C148FFF71CF90222C049C8
:10308000C048FFF717F90222BF49C048FFF712F9FD
:10309000BF4BD3E96001BF4BD3E904341A46234642
:1030A000FDF722FF0346002B05D1BA4BD3E90434C8
:1030B000B74AC2E96034B64BD3F87831184601F00C
:1030C000EBFAB34BD3F878310722B349184601F035
:1030D00087FAB04BD3E90A01B04BD3E926341A463C
:1030E0002346FDF799FC03460C4644EC173BB0EE33
:1030F000470AF0EE670A09F013FBB0EE407AF0EEF3
:10310000607AA64B83ED267BA44B93ED267BB0EE35
:10311000470AF0EE670A05F08DFA0346002B0BD143
:103120009E4B93ED267BB0EE470AF0EE670A05F062
:1031300059FA0346002B07D0984A4FF000034FF08E
:103140000004C2E9263411E0944B93ED267B9FEDF9
:10315000841BB0EE470AF0EE670A09F069FBB0EE97
:10316000407AF0EE607A8D4B83ED267B8B4BD3E972
:1031700026014FF000024FF00003FDF7BFFE0346AB
:10318000002B0ED0854BD3E92634984684F00049B5
:1031900040464946FDF718FF03469BB25B429BB28F
:1031A00008E07E4BD3E9263418462146FDF70CFF94
:1031B00003469BB2794AA2F8C8300222784979487E
:1031C000FFF778F8724BD3E96801724BD3E9023408
:1031D0001A462346FDF788FE0346002B05D16D4BAA
:1031E000D3E902346A4AC2E96834694BD3F89831AA
:1031F000184601F051FA664BD3F898310722664918
:10320000184601F0EDF9634BD3E90C01634BD3E9A8
:1032100026341A462346FDF7FFFB03460C4644ECD2
:10322000173BB0EE470AF0EE670A09F079FAB0EE04
:10323000407AF0EE607A594B83ED267B574B93ED45
:10324000267BB0EE470AF0EE670A05F0F3F9034675
:10325000002B0BD1514B93ED267BB0EE470AF0EEDD
:10326000670A05F0BFF90346002B07D04B4A4FF021
:1032700000034FF00004C2E9263411E0474B93ED00
:10328000267B9FED371BB0EE470AF0EE670A09F088
:10329000CFFAB0EE407AF0EE607A404B83ED267BB9
:1032A0003E4BD3E926014FF000024FF00003FDF73B
:1032B00025FE0346002B0ED0384BD3E926341D469D
:1032C00084F0004628463146FDF77EFE03469BB259
:1032D0005B429BB208E0314BD3E9263418462146C5
:1032E000FDF772FE03469BB22C4AA2F8CA300222B6
:1032F0002D492E48FEF7DEFF284B93F8EE30013BB8
:10330000142B00F2128101A252F823F0B133000015
:10331000C3330000D5330000E7330000F933000069
:103320000B3400001D3400002F3400004134000035
:103330005334000065340000773400008934000005
:103340009B340000AD340000BF340000D1340000D5
:10335000E3340000F53400000735000019350000A3
:10336000000000000000F040AC110020B611002069
:10337000AE110020B8110020B0110020BA110020B9
:10338000B2110020BC110020B4110020BE11002099
:10339000D81100200000002078110020E01000204B
:1033A000A8110020C0110020AA110020C211002085
:1033B000684B93F8E4303B70664B93F8E4307B70D5
:1033C000BCE0644B93F8E5303B70624B93F8E5301A
:1033D0007B70B3E05F4B93F8E6303B705D4B93F846
:1033E000E6307B70AAE05B4B93F8E7303B70594BBB
:1033F00093F8E7307B70A1E0564B93F8E8303B70D0
:10340000544B93F8E8307B7098E0524B93F8E930D6
:103410003B70504B93F8E9307B708FE04D4B93F845
:10342000EA303B704B4B93F8EA307B7086E0494BB7
:1034300093F8EB303B70474B93F8EB307B707DE0BB
:10344000444B93F8EC303B70424B93F8EC307B707C
:1034500074E0404B93F8ED303B703E4B93F8ED3009
:103460007B706BE03B4B93F8D6303B70394B93F855
:10347000D7307B7062E0374B93F8D8303B70354BD8
:1034800093F8D9307B7059E0324B93F8DA303B70C7
:10349000304B93F8DB307B7050E02E4B93F8DC30F0
:1034A0003B702C4B93F8DD307B7047E0294B93F851
:1034B000DE303B70274B93F8DF307B703EE0254BCE
:1034C00093F8EF303B70234B93F8EF307B7035E08F
:1034D000204B93F8F0303B701E4B93F8F0307B702C
:1034E0002CE01C4B93F8F1303B701A4B93F8F13001
:1034F0007B7023E0174B93F8F2303B70154B93F839
:10350000F2307B701AE0134B93F8F3303B70114BA1
:1035100093F8F3307B7011E00E4B93F8E0303B7082
:103520000C4B93F8E1307B7008E00A4B93F8E230E3
:103530003B70084B93F8E3307B7000BF054B93F86A
:10354000EE303B713B787B717B78BB710123FB775D
:1035500014E000BFE0100020391D07F11C03032216
:103560001846FEF7A7FE684BD3F8B83107F11C01E7
:103570000322184601F0F2FC0346FB77FB7F002B89
:10358000EAD1624B1393624B1293624B1193624BDD
:103590001093624B0F93624B0E93624B0D93624BF1
:1035A0000C93624B0B93624B0A93624B0993624BF1
:1035B0000893624B0793624B0693624B0593624BF1
:1035C0000493624B0393624B0293624B0193624BF1
:1035D0000093624B624A6349634803F01DFF634BEB
:1035E00093F8E8309AB2484BA3F8E2215F4B93F886
:1035F000EB309AB2444BA3F8E4215C4B93F8F430DF
:10360000002B40F04A855A4B1B78002B00F0458573
:103610003D4BD3E94A01574BD3E906341A462346BA
:10362000FDF762FC0346002B05D1524BD3E906346B
:10363000354AC2E94A340123FB77334BD3F84001C2
:1036400007F11F02002301930123009301231D2191
:1036500001F0AFF80346FB77FB7F002B40F08C8036
:10366000294BD3F8400107F10C02012301930023F9
:10367000009306231D2101F068F807F10C0107F102
:10368000140306221846FEF715FE07F114013B4607
:1036900002221846FEF70EFE7B783B723B787B7267
:1036A00007F1080107F1140302221846FEF702FE93
:1036B00007F11403991C3B4602221846FEF7FAFD57
:1036C0007B783B723B787B7207F1080107F11403AA
:1036D000023302221846FEF7EDFD07F11403191D0F
:1036E0003B4602221846FEF7E5FD7B783B723B78AD
:1036F0007B7207F1080107F1140304330222184614
:10370000FEF7D8FD3EE000BFD8110020F0130020E6
:10371000D8130020D411002098130020C2130020D9
:10372000C1130020C0130020BF130020BE130020CF
:10373000B8130020B6130020B4130020B2130020E9
:10374000B0130020CA130020C9130020BC130020AE
:10375000C8130020C7130020BA130020C61300208E
:10376000C5130020C4130020C3130020E010002064
:1037700080150020000000200023BB820023FB8274
:1037800000233B83B7F914309B101BB21846FDF79A
:10379000D9F8B9A3D3E90023FDF73EF903460C4657
:1037A000184621464FF00002B54BFDF75FFA03467D
:1037B0000C46B44AC2E92634B7F916309B101BB246
:1037C0001846FDF7BFF8ACA3D3E90023FDF724F9B1
:1037D00003460C46184621464FF00002A84BFDF761
:1037E00045FA03460C46A74AC2E93034B7F9183007
:1037F0009B101BB21846FDF7A5F89FA3D3E9002341
:10380000FDF70AF903460C46184621464FF0000220
:103810009B4BFDF72BFA03460C469A4AC2E9283423
:10382000984BD3E92601974BD3E926341A46234611
:10383000FDF7F2F803460C461D462646914BD3E9A8
:103840003001904BD3E930341A462346FDF7E4F8B3
:1038500003460C461A46234628463146FCF726FF07
:1038600003460C461D462646864BD3E92801854B68
:10387000D3E928341A462346FDF7CEF803460C4612
:103880001A46234628463146FCF710FF03460C46ED
:1038900044EC173BB0EE470AF0EE670A09F030F847
:1038A000B0EE407AF0EE607A764B83ED307B764B6B
:1038B00093F8E930002B03D0734B002283F8E92002
:1038C000714BD3F80C317B627B6A1B68012B00F0D3
:1038D000BE807B6A00221A717B6A01221A607A6AB2
:1038E0004FF000034FF00004C2E902347A6A4FF04F
:1038F00000034FF00004C2E904347A6A4FF0000379
:103900004FF00004C2E906347A6A4FF000034FF02A
:103910000004C2E908347A6A4FF000034FF0000453
:10392000C2E90A347A6A4FF000034FF00004C2E99A
:103930000C347A6A4FF000034FF00004C2E90E34F1
:103940007A6A4FF000034FF00004C2E910347A6A3B
:103950004FF000034FF00004C2E912347A6A4FF0CE
:1039600000034FF00004C2E914347A6A4FF00003F8
:103970004FF00004C2E916347A6A4FF000034FF0AA
:103980000004C2E918347A6A4FF000034FF00004D3
:10399000C2E91A347B6A01221A717A6A4FF0000375
:1039A0004FF00004C2E902347A6A4FF000034FF08E
:1039B0000004C2E904347A6A4FF000034FF00004B7
:1039C000C2E906347A6A4FF000034FF00004C2E9FE
:1039D00008347A6A4FF000034FF00004C2E90A3459
:1039E0007A6A4FF000034FF00004C2E90C347A6A9F
:1039F0004FF000034FF00004C2E90E347A6A4FF032
:103A000000034FF00004C2E910347A6A4FF000035B
:103A10004FF00004C2E912347A6A4FF000034FF00D
:103A20000004C2E914347A6A4FF000034FF0000436
:103A3000C2E916347A6A4FF000034FF00004C2E97D
:103A400018347A6A4FF00003104CC2E91A347B6ACA
:103A5000D3E902340B4AC2E91A347B6AD3E904344D
:103A6000084AC2E91C347B6AD3E90634054AC2E934
:103A70001E347B6A0CE000BF08AC1C5A643BCF3F8D
:103A800000408F40E0100020D81100200000F03FDF
:103A9000D3E90834AA4AC2E90E347B6AD3E90A346E
:103AA000A74AC2E910347B6AD3E90C34A44AC2E9BC
:103AB00012347B6AD3E90E34A14AC2E914347B6A1A
:103AC000D3E910349E4AC2E916347B6AD3E9123432
:103AD0009B4AC2E918347B6AD3E91434984AC2E994
:103AE00028347B6AD3E91634954AC2E92A347B6AC2
:103AF000D3E91834924AC2E92C347B6AD3E91A34E8
:103B00008F4AC2E926348E4BD3E928018C4BD3E986
:103B100030341A462346FCF7C9FD03460C46884A52
:103B2000C2E92834864BD3E92C34854AC2E92E34C5
:103B3000834BD3E92C45824BD3E926234FF0000079
:103B40008049FDF793F802460B46904699467C4B18
:103B5000D3E930017A4BD3E92C23FCF7A5FD0246CB
:103B60000B4640464946FCF757FF02460B462046A7
:103B70002946FCF79BFD03460C46714AC2E92C34EA
:103B80006F4BD3E930016E4BD3E92E341A462346EE
:103B9000FCF78AFD03460C46694AC2E92E34684B9D
:103BA000D3E92A45664BD3E926014FF00002654B65
:103BB000FCF77AFD02460B4610461946604BD3E9E6
:103BC0002E23FCF729FF02460B46104619465C4B94
:103BD000D3E92E23FCF720FF02460B461046194678
:103BE000574BD3E92623FDF741F802460B46204602
:103BF0002946FCF75BFD03460C46514AC2E92A34CC
:103C00004F4BD3E926341A4623464FF000004E4965
:103C1000FCF74AFD03460C4618462146FDF7ACF971
:103C20000346013B3B62464BD3E926341A46234602
:103C30004FF000004449FCF737FD03460C46184698
:103C400021463F4BD3E926341A462346FDF70EF8AA
:103C500003460C4618462146394BD3E928341A4608
:103C60002346FCF7D9FE03460C4618462146344A43
:103C70003B6A0733DB001344D3E900341A4623467A
:103C8000FCF712FD03460C462D4AC2E92E342C4B9C
:103C9000D3E926452A4BD3E926234FF000002A49D1
:103CA000FCF702FD02460B4610461946244BD3E9A9
:103CB0002623FCF7FBFC02460B4690469946204B18
:103CC000D3E926234FF000001F49FCF7EDFC024624
:103CD0000B4640464946FCF79FFE02460B462046EF
:103CE0002946FCF7C3FF03460C461D462646144BE7
:103CF000D3E92E01124BD3E92E341A462346FCF7A2
:103D00008BFE03460C461A46234628463146FCF7EE
:103D100083FE03460C461D462646094A3B6A0A3383
:103D2000DB001344D3E90001054BD3E92A341A46DA
:103D30002346FCF7BBFC03460C461A46234605E027
:103D4000E01000200000F03F000008402846314607
:103D5000FCF7ACFC03460C46184621464FF0000227
:103D60004FF08043FCF782FF03460C46134AC2E93A
:103D70002E34124BD3E9303410493A6A0D32D20056
:103D80000A44C2E900340D4BD3E926014FF000028A
:103D90004FF08043FDF7B2F80346002B12D0074BDB
:103DA000D3E926014FF00002054BFCF77FFC0346E8
:103DB0000C46024AC2E9263495E000BFE01000201C
:103DC0000000F03FA04A4FF00003A04CC2E92634A7
:103DD0009D4BD3E91A349C4AC2E90E349A4BD3E97D
:103DE0001A01994BD3E91C341A462346FCF75EFCB2
:103DF00003460C46944AC2E91034934BD3E91A01A6
:103E00004FF000024FF00003FCF706FE03460C469D
:103E1000184621468C4BD3E91A341A462346FCF740
:103E2000FBFD03460C46884AC2E93034864BD3E991
:103E30003034854AC2E91434834BD3E91001824BF4
:103E4000D3E91E341A462346FCF730FC03460C46E1
:103E50007D4AC2E912347C4BD3E91C017A4BD3E989
:103E60001A341A462346FCF71FFC03460C46764AD2
:103E7000C2E92834744BD3E92801734BD3E92834C1
:103E80001A462346FCF7C8FD03460C461846214651
:103E90004FF000024FF08043FCF7E8FE03460C466B
:103EA00018462146684BD3E930341A462346FCF7BE
:103EB000FDFB03460C46644AC2E91634624A4FF0E1
:103EC00000034FF00004C2E928345F4A4FF00003BA
:103ED0004FF00004C2E92A345B4A4FF000034FF070
:103EE0000004C2E92C34584BD3E91A347A6AC2E987
:103EF0000234554BD3E91C347A6AC2E90434524B7C
:103F0000D3E91E347A6AC2E906344F4BD3E90E3442
:103F10007A6AC2E908344C4BD3E910347A6AC2E9B0
:103F20000A34494BD3E912347A6AC2E90C34464B5D
:103F3000D3E914347A6AC2E90E34434BD3E9163418
:103F40007A6AC2E91034404BD3E918347A6AC2E97C
:103F500012343D4BD3E928347A6AC2E914343A4B1F
:103F6000D3E92A347A6AC2E91634374BD3E92C34C0
:103F70007A6AC2E91834344BD3E926347A6AC2E942
:103F80001A34334BD3E908452F4B93ED2E7BB0EE1B
:103F9000470AF0EE670A08F0B3FC53EC102B2046FA
:103FA0002946FCF739FD03460C462A4AC2E970341B
:103FB000254BB3F8CC20274BA3F8D821224B93F8FC
:103FC000E420244B83F8EB211F4B93F8E520214B91
:103FD00083F8EC211C4B93F8E6201E4B83F8ED216F
:103FE000194B93F8E7201B4B83F8EE21164B93F8FF
:103FF000E920184B83F8EF21134B93F8EA20154B77
:1040000083F8F021104B93F8EC20124B83F8F12148
:104010000D4B93F8ED200F4B83F8F2210A4BB3F8C8
:10402000CE200C4BA3F8DA21074BB3F8D020094B74
:10403000A3F8DC21044BB3F8D220064BA3F8DE2111
:10404000014BB3F8D42007E0E01000200000F03F5F
:1040500000000020D8110020154BA3F8E021154BDB
:1040600093F8EF20124B83F8E621124B93F8F020DF
:104070000F4B83F8E7210F4B93F8F1200C4B83F89B
:10408000E8210C4B93F8F220094B83F8E921094B06
:1040900093F8F320064B83F8EA21064B93F8F420BB
:1040A000054B1A7000BF2C37BD46BDE8F08300BF3A
:1040B000D8110020E01000208015002090B585B0B8
:1040C00000AF082004F04AFAB34BB449184603F095
:1040D000D2FFB34BD3E90E34B24AC2E97034B04BCD
:1040E00093F84E20AF4B83F8E621AD4B93F84F2069
:1040F000AC4B83F8E721AA4B93F85020A94B83F8E7
:10410000E821A74B93F85120A64B83F8E921A44B53
:1041100093F85220A34B83F8EA21A14B93F8532044
:10412000A04B83F8EB219E4B93F854209D4B83F8D2
:10413000EC219B4BB3F840209A4BA3F8D821984B25
:10414000B3F84220974BA3F8DA21954BB3F84420FB
:10415000944BA3F8DC21924BB3F84620914BA3F883
:10416000DE218F4BB3F848208E4BA3F8E0218C4B17
:1041700093F855208B4B83F8ED21894B93F856200B
:10418000884B83F8EE21864BB3F84A20854BA3F881
:10419000E221834B93F85720824B83F8EF21804B29
:1041A00093F858207F4B83F8F0217D4BB3F84C20D7
:1041B0007C4BA3F8E4217A4B93F85920794B83F890
:1041C000F121774B93F85A20764B83F8F221764B06
:1041D00000221A70754802F073FE724B012283F8B8
:1041E0003021704B012283F81821714BFB606D4B1D
:1041F0000022C3F81C216B4A4FF000036D4CC2E94A
:104200004A34FB680022DA61FB6800221A76654BAB
:10421000002283F81821634B012283F8F521604BBB
:10422000D3E906345F4AC2E94A346148FEF7EEFA40
:104230005C4B012283F8E0205A4B0022C3F8E420B3
:10424000584B4FF0FF32C3F81021564B002283F831
:10425000E020544B012283F8F62157495748FEF7D6
:1042600087FB504BD3F80C31BB60BB681B68012B3C
:1042700059D1BA684FF000034FF00004C2E902348C
:10428000BA684FF000034FF00004C2E90434BA6882
:104290004FF000034FF00004C2E90634BA684FF053
:1042A00000034FF00004C2E90834BA684FF000037D
:1042B0004FF00004C2E90A34BA684FF000034FF02F
:1042C0000004C2E90C34BA684FF000034FF0000458
:1042D000C2E90E34BA684FF000034FF00004C2E99F
:1042E0001034BA684FF000034FF00004C2E91234F2
:1042F000BA684FF000034FF00004C2E91434BA6802
:104300004FF000034FF00004C2E91634BA684FF0D2
:1043100000034FF00004C2E91834BA684FF00003FC
:10432000274CC2E91A341F4B0022C3F84C211D4B05
:10433000002283F848211B4B012283F8FA21184BF5
:10434000D3E90034174AC2E958341E48FEF730FB5F
:10435000144B012283F86821124B0022C3F86C2110
:10436000104A4FF00003134CC2E960340D4B002299
:1043700083F868210B4B012283F8F721084BD3E91E
:104380000434084AC2E960340F4B7B60054B0022BD
:1043900083F870211AE000BF8415002078150020F2
:1043A00000000020D811002080150020F01300200C
:1043B000F01200200000F0BF48120020B8120020C8
:1043C0000000F03F2013002040130020364B012254
:1043D000C3F86C21102000F09FF802467B681A6138
:1043E000324B002283F880202F4BD3F878012F4BDB
:1043F00093F880300022194600F0E2F82A4B01229F
:1044000083F87021284B012283F88821264B002253
:10441000C3F88C21244A4FF00003254CC2E96834CC
:10442000214B002283F888211F4B012283F8F821B9
:10443000204BD3E902341C4AC2E968341E4B7B602E
:10444000194B002283F89021174B0122C3F88C21CD
:10445000112000F061F802467B681A61134B0022BC
:1044600083F88020104BD3F89801104B93F88030DC
:104470000022194600F0A4F80B4B012283F890218A
:10448000094B0022C3F8AC21074B002283F8A82176
:10449000054B012283F8F9210848FEF7C5FA00BF51
:1044A0001437BD4690BD00BFD8110020E010002099
:1044B0000000F0BF000000206013002080130020E7
:1044C00080B500AF0C48FEF789F80C48FEF7BDF840
:1044D0000B48FEF7BAF80B48FEF7E9F80A4803F074
:1044E0006FFD0A48FEF715F90948FEF740F909483B
:1044F000FEF77AF900BF80BD201300204013002092
:104500006013002080130020F0130020F012002020
:1045100008130020B812002080B586B000AF786084
:1045200026497A6813465B0013449B000B44093309
:104530001B78002B27D107F10803184606F08CF9E9
:104540000323FB721D497A6813465B0013449B00EA
:104550000B441B6807F108021146184606F08EF955
:1045600016497A6813465B0013449B000B440933D9
:1045700003221A707A6813465B0013449B000F4AAB
:1045800013447B6115E00D497A6813465B001344C0
:104590009B000B4409331B78032B08D17A68134620
:1045A0005B0013449B00054A13447B6101E0002338
:1045B0007B617B6918461837BD4680BDA00400208A
:1045C00080B485B000AFF8600B467A60FB7200BF24
:1045D0001437BD465DF8047B704700000000000002
:1045E00090B58BB000AFF860B9601346FB71FB6803
:1045F000FB61FB69002B3AD0FB691B7A3B750023FA
:10460000BB7500237B75FB691B680121184606F00A
:104610007DF9FB691868FB695B6807F114021946AC
:1046200006F094F9FB691A68FB695B681946104645
:1046300006F0A8F9FB691A68FB695B681946104621
:1046400006F0C4F903467B837B8B07EE903AF8EEC5
:10465000677A17EE900AFCF787F90DA3D3E90023D8
:10466000FCF7DAF903460C46C7E9083405E04FF0D9
:1046700000034FF00004C7E90834BA68D7E90834EA
:10468000C2E9003400BF2C37BD4690BDAFF30080B7
:10469000100010001000F03E80B483B000AF7860CE
:1046A00000BF0C37BD465DF8047B704780B483B013
:1046B00000AF786000BF0C37BD465DF8047B7047E3
:1046C00080B483B000AF786000BF0C37BD465DF8A2
:1046D000047B704780B584B000AF78600B46FB70F8
:1046E0007B68012B11D80C497B687A6841F823203C
:1046F0007B689B00084A1344184601F0E7F87B6882
:104700009B00054A1344FB6001E00023FB60FB684B
:1047100018461037BD4680BD8815002080B584B08E
:1047200000AF786039607B68002B07D03B68194682
:10473000786801F0E7F90023FB7301E00823FB73BD
:10474000FB7B18461037BD4680BD80B588B002AFF0
:10475000F8607A603B600B467B8100237B6197F8B1
:104760002030002B0CBF01230023DBB23B61FB6830
:10477000002B19D07B8959003A683B690093134696
:104780007A68F86801F0E6F903467B617B6913F10A
:10479000020F01D1012308E07B69B3F1FF3F01D192
:1047A000042302E0002300E0082318461837BD4622
:1047B00080BD80B588B002AFF8607A603B600B4680
:1047C0007B8100237B6197F82030002B0CBF0123F5
:1047D0000023DBB23B61FB68002B19D07B895900B9
:1047E0003A683B69009313467A68F86801F022FA48
:1047F00003467B617B6913F1020F01D1012308E0BD
:104800007B69B3F1FF3F01D1042302E0002300E004
:10481000082318461837BD4680BD80B483B000AF6A
:10482000786000BF0C37BD465DF8047B7047000020
:1048300080B584B000AFF860B9607A60BB680F2BB8
:1048400006D90A4B0A4A40F2E2210A4808F0ACFABB
:10485000FA68BB685B01134403F5805310337A6830
:104860001A6000BF1037BD4680BD00BFE4F70000EE
:1048700014FA000010F8000080B584B000AFF860B2
:10488000B9601346FB71BB680F2B06D90C4B0D4A60
:104890004FF460710C4808F087FABB685B0103F5C0
:1048A00080531833FA681344043303F104735B0133
:1048B0000433FA7992B21A8000BF1037BD4680BD2A
:1048C000E4F7000030FA000010F8000090B587B05F
:1048D00000AFF8607A603B600B46FB7200237B619F
:1048E000FB681B68022B00F04D81032B00F0DF8179
:1048F000012B00F09580954B00221A60934B1B68AA
:10490000934A52F82330002B41D1904B1B68914AB7
:10491000DB00134400229A718C4B1B688D4ADB002C
:10492000134400221A71894B1B688A4ADB00134426
:1049300000225A71854B1B68864A4FF4E13142F8D8
:104940003310824B1B68184601F0EAFB7F4B1B6853
:104950009B01814A13448149184606F021FA7B4B9A
:1049600018687A4B1A6813461B019B1A9B007C4AF5
:104970009918764B1B68DB00764A13441A4607F0F9
:10498000C7FA724B1B68724A012142F823107B68F8
:10499000B3F1FF3F20D06D4B1A68724913469B005C
:1049A00013449B000B441B221A60684B1A686D4924
:1049B00013469B0013449B000B4408336A4A1A6059
:1049C000624B1A68674913469B0013449B000B44D3
:1049D0000C33664A1A6015E05C4B1A68614913464D
:1049E0009B0013449B000B44043303221A60574B73
:1049F0001A685C4913469B0013449B000B44103318
:104A00005B4A1A60514B1B68504A1268594941F879
:104A100023204E4B1B689B00564A13447B61DBE10D
:104A20004A4B01221A60494B1B68494A52F823300D
:104A3000002B41D1454B1B68464ADB001344002242
:104A40009A71424B1B68434ADB00134400221A71DF
:104A50003E4B1B683F4ADB00134400225A713B4B1C
:104A60001B683C4A4FF4E13142F83310374B1B6866
:104A7000184601F055FB354B1B689B01364A134421
:104A80003649184606F08CF9304B18682F4B1A68D7
:104A900013461B019B1A9B00314A99182B4B1B682C
:104AA000DB002C4A13441A4607F032FA274B1B68E6
:104AB000274A012142F823107B68B3F1FF3F20D041
:104AC000224B1A68274913469B0013449B000B4452
:104AD00000221A601D4B1A68224913469B0013449A
:104AE0009B000B440833244A1A60184B1A681D496E
:104AF00013469B0013449B000B440C331F4A1A605F
:104B000015E0124B1A68174913469B0013449B008B
:104B10000B44043300221A600C4B1A6811491346E7
:104B20009B0013449B000B441033154A1A60074B3B
:104B30001B68064A12680F4941F82320034B1B6883
:104B40009B000C4A13447B6146E100BF941900208E
:104B500098190020B4180020CC1500206000002017
:104B60004C170020EC18002090150020AC150020F8
:104B7000C81500207C190020C8150020C815002089
:104B8000CC150020AD4B02221A60AC4B1B68AC4A1E
:104B900052F82330002B41D1A84B1B68A94ADB00F7
:104BA000134400229A71A54B1B68A64ADB001344EC
:104BB00000221A71A14B1B68A24ADB001344002299
:104BC0005A719E4B1B689F4A4FF4E13142F83310F3
:104BD0009A4B1B68184601F0A3FA984B1B689B017F
:104BE000994A13449949184606F0DAF8934B186825
:104BF000924B1A6813461B019B1A9B00944A991802
:104C00008E4B1B68DB008F4A13441A4607F080F96D
:104C10008A4B1B688A4A012142F823107B68B3F152
:104C2000FF3F20D0854B1A688A4913469B001344E6
:104C30009B000B4400221A60804B1A68854913467A
:104C40009B0013449B000B440833834A1A607B4B40
:104C50001A68804913469B0013449B000B440C3395
:104C60007E4A1A6015E0754B1A687A4913469B0014
:104C700013449B000B44043300221A606F4B1A68E4
:104C8000744913469B0013449B000B441033744A31
:104C90001A606A4B1B68694A1268724941F82320FE
:104CA000664B1B689B006F4A13447B6194E0634B27
:104CB00003221A60614B1B68614A52F82330002BB3
:104CC00041D15E4B1B685F4ADB00134400229A719E
:104CD0005A4B1B685B4ADB00134400221A71574B86
:104CE0001B68584ADB00134400225A71534B1B685F
:104CF000544A4FF4E13142F83310504B1B681846C8
:104D000001F00EFA4D4B1B689B014F4A13444F496B
:104D1000184606F045F8494B1868484B1A68134680
:104D20001B019B1A9B004A4A9918444B1B68DB00E5
:104D3000444A13441A4607F0EBF8404B1B68404ABC
:104D4000012142F823107B68B3F1FF3F20D03B4B99
:104D50001A68404913469B0013449B000B440022F1
:104D60001A60364B1A683B4913469B0013449B005C
:104D70000B4408333C4A1A60304B1A6835491346D5
:104D80009B0013449B000B440C33384A1A6015E017
:104D90002A4B1A682F4913469B0013449B000B446F
:104DA000043300221A60254B1A682A4913469B00D7
:104DB00013449B000B4410332D4A1A601F4B1B6891
:104DC0001E4A1268274941F823201C4B1B689B0090
:104DD000244A13447B6100BF7B68B3F1FF3F28D0B6
:104DE000164B1A6813461B019B1A9B002833184A5E
:104DF0001344181D114B1B681A461E4906F00EF885
:104E00000E4B18680D4B1A68124913469B00134449
:104E10009B000B4408331C68084B1A680D49134665
:104E20009B0013449B000B441B681A46214600F06C
:104E3000DFF87B6918461C37BD4690BD94190020E9
:104E400098190020B4180020CC1500206000002024
:104E50004C170020EC180020C8150020C8150020B1
:104E6000CC1500207C190020C8150020C815002092
:104E7000CC1500209D50000080B483B000AF786056
:104E80003960002318460C37BD465DF8047B704737
:104E900080B483B000AF7860084611461A460346D6
:104EA000FB700B46BB7013467B70002318460C3713
:104EB000BD465DF8047B704780B586B000AFF860F2
:104EC000B9607A60FB683B613B69002B33D03B697A
:104ED0001B681F4AD35C012B2DD13B691B681D4AFF
:104EE00052F82330012B0FD13B691A681A49134637
:104EF0009B0013449B000B4408331B687A681946D7
:104F0000B868FDF7D7F90EE03B691A6812491346F5
:104F10009B0013449B000B440C331B687A681946B2
:104F2000B868FDF7C7F93B691B68094A0021D154ED
:104F30000023FB7506E07A680021B86808F074FA6F
:104F40002023FB75FB7D18461837BD4680BD00BF8A
:104F5000E418002064190020EC18002080B586B009
:104F600000AFF860B9607A60FB683B613B69002B79
:104F70002AD03B691B680021184607F00BF903464D
:104F8000082B21D03B691A68134913469B00134430
:104F90009B000B4410331B687A68B9681846FDF70C
:104FA00089F93B6918683B691A680B4913469B00ED
:104FB00013449B000B4410331B687A68194607F0B2
:104FC000C5F80346FB7501E02023FB75FB7D184601
:104FD0001837BD4680BD00BFEC18002080B483B0F8
:104FE00000AF786000BF0C37BD465DF8047B7047AA
:104FF00080B588B000AFF860B9607A60FB68052BB7
:1050000006D9214B214A40F28911214807F0CCFEF4
:10501000204AFB6852F82330FB61FB6993F82C307F
:105020001B09DBB21A461C4B53F82230BB61FB69EB
:1050300093F82C3003F00F037B61FB695B78DBB2E4
:10504000002B01D009231AE0FB6901225A70BB68CA
:105050001A467969B869FFF7EBFB7A687969B8692C
:1050600005F0E6FD01227969B869FFF705FC7B6967
:10507000DBB201221946B86905F0D5FC00231846B9
:105080002037BD4680BD00BF48F80000F0F90000A1
:1050900068F8000074490020E401010080B582B086
:1050A00000AF78600B46FB707B68184600F004F890
:1050B00000BF0837BD4680BD80B586B000AF7860C0
:1050C0007B68052B06D93D4B3D4A40F2AD113D486A
:1050D00007F06AFE3C4A7B6852F823307B617B69AB
:1050E00093F82C301B09DBB21A46384B53F82230A8
:1050F0003B617B6993F82C3003F00F03FB600022C7
:10510000F9683869FFF7B8FBFB68DBB20022194683
:10511000386905F088FC7B69DB78DBB2002B04D0B2
:105120007B691033184605F0C5F87B6900225A7078
:10513000274A7B68134401221A70264A7B6852F87A
:105140002330002B1BD124497A6813469B0013445B
:105150009B000B440C3318681F497A6813469B0068
:1051600013449B000B441B681A4601467868FFF7FE
:105170003FFF184A7B68012142F823101AE01649C4
:105180007A6813469B0013449B000B44083318684D
:1051900011497A6813469B0013449B000B441B681B
:1051A0001A4601467868FFF723FF0A4A7B68002108
:1051B00042F8231000BF1837BD4680BD48F80000F4
:1051C00048FA000068F8000074490020E40101007A
:1051D000E418002064190020EC18002080B400AF0F
:1051E000FEE7000080B483B000AF78607B68013BCD
:1051F000032B0BD801A252F823F000BF0D52000080
:105200000D5200000D5200000D52000000BFFEE7DD
:10521000704770470020002104460D46084807F0FB
:10522000E1FD07F029FE2046294603F0CDFB0548A5
:10523000002103F0FDFC03F057FC07F0DFFD000048
:105240001DCE0000ACFA000080B584B000AFF8605D
:10525000B9601346FB71BB681F2B05D90D4B0E4A75
:10526000FF210E4807F0A0FDFB68BA6853F8223012
:1052700023F0807323F4E063FA79120202F4E0620F
:1052800043EA0201FB68BA6843F8221000BF1037F6
:10529000BD4680BDD0F80000D4FA0000DCF8000064
:1052A00080B483B000AF78600B46FB707B68FA78FF
:1052B0001A7000BF0C37BD465DF8047B70470000D4
:1052C00080B584B000AF3B4600221A605A609A60F5
:1052D000DA60064B3B6002237B723B461946002096
:1052E00005F0F8F800BF1037BD4680BD80F0FA0227
:1052F00080B584B000AF074A3B1D07CA83E80700AA
:105300003B1D1946002005F033F900BF1037BD469C
:1053100080BD00BF14F9000080B500AF2A21084805
:10532000FFF7BEFF002212210648FFF78DFFFFF7AF
:10533000C7FFFFF7DDFF044805F06EF900BF80BD31
:1053400000E0074000900440BCFA000080B582B045
:1053500000AF7860034800F0EFFD00BF0837BD469E
:1053600080BD00BFA848002098B500AF094B0A4A8D
:105370001A600A4B0A4A1C1D13460FCB84E80F0023
:1053800000F030FE0246054B1A60064B034A1A60D5
:1053900000BF98BDA8480020B048002088480020E1
:1053A000ACFA0000A048002080B586B002AF87EDBF
:1053B000010A38600223FB60FFF7D6FF164800F0B1
:1053C000ABFD0346BB60154800F0A6FD0346BB607D
:1053D000002300930023FA681149124800F0D9FD18
:1053E0000346BB600023104A0121104800F012FE62
:1053F0000346BB60D7ED017A9FED0D7A67EE877AA1
:10540000FCEEE77A17EE901A084800F02AFE00BF7B
:105410001037BD4680BD00BFA8480020A04800202E
:1054200035540000B04800204D530000644800206F
:1054300000007A4480B586B000AF7861184B1B68D5
:105440001B68002B0CBF01230023DBB21A46154B4F
:105450001A7011E03B461449184600F080FDFDF734
:105460001FFB0F4B1B681B68002B14BF012300237D
:10547000DBB21A460D4B1A700A4B1B78DBB2002BBD
:10548000E8D1084B00221A70786900F011F800206A
:1054900000F0AFFD002318461837BD4680BD00BFA1
:1054A000ECF9000062000020A84800209C48002081
:1054B00080B582B000AF7860074B01221A60074BBD
:1054C00000221A70FEF7FCFF054800F035FD0023AE
:1054D00018460837BD4680BDC44800206200002041
:1054E000A048002080B586B000AF7861396101F036
:1054F00063F800F0BCF80A4B1B6800221A60FEF744
:10550000DDFD00209FED070AFFF74EFF3B460649F1
:10551000184600F024FD002318461837BD4680BD0C
:10552000ECF900006F12833AA048002080B500AF6C
:10553000002005F0AFFC00BF80BD80B500AF0120AA
:1055400005F0A8FC00BF80BD80B500AF022005F0CB
:10555000A1FC00BF80BD80B500AF032005F09AFC20
:1055600000BF80BD80B500AF042005F093FC00BFF4
:1055700080BD80B500AF052005F08CFC00BF80BD6C
:1055800080B500AF062005F085FC00BF80BD80B56A
:1055900000AF072005F07EFC00BF80BD80B500AFE6
:1055A000082005F077FC00BF80BD80B500AF092062
:1055B00005F070FC00BF80BD80B500AF0A2005F08B
:1055C00069FC00BF80BD80B500AF0B2005F062FC18
:1055D00000BF80BD80B500AF0C2005F05BFC00BFB4
:1055E00080BD80B500AF0D2005F054FC00BF80BD2C
:1055F00080B500AF0E2005F04DFC00BF80BD80B52A
:1056000000AF0F2005F046FC00BF80BD80B500AFA5
:10561000002005F057FC00BF80BD80B500AF002022
:1056200006F060FB00BF80BD80B500AF012006F032
:1056300059FB00BF80BD80B500AF022006F052FBD1
:1056400000BF80BD80B500AF032006F04BFB00BF5C
:1056500080BD80B500AF042006F044FB00BF80BDD4
:1056600080B500AF052006F03DFB00BF80BD80B5D2
:1056700082B000AF04F06CFE0023FB7106E0FB7902
:10568000184605F051F8FB790133FB71FB79042BC7
:10569000F5D9FFF741FE00BF0837BD4680BD80B594
:1056A00082B000AF786005F00FF80346184608375F
:1056B000BD4680BD80B483B000AF78607B680233A4
:1056C00003F104735B011C3301221A7000BF0C3715
:1056D000BD465DF8047B704780B483B000AF78604E
:1056E0007B68023303F104735B010C3300221A70F0
:1056F00000BF0C37BD465DF8047B704780B483B0B3
:1057000000AF78607B68023303F104735B010C33F4
:1057100001221A7000BF0C37BD465DF8047B70474C
:1057200080B483B000AF78600B46FB707B680233B7
:1057300003F104735B0110331A46FB78137000BF4A
:105740000C37BD465DF8047B704780B483B000AF72
:1057500078607B681B79DBB218460C37BD465DF874
:10576000047B704780B483B000AF78600B46FB7059
:105770007B68FA781A7100BF0C37BD465DF8047B70
:10578000704780B483B000AF78600B46FB707B68D5
:10579000DB78DBB21A46FB7842FA03F303F001032D
:1057A000002B14BF01230023DBB218460C37BD4683
:1057B0005DF8047B704780B483B000AF78607B688D
:1057C000023303F104735B0114331B78DBB2002B4B
:1057D00014BF01230023DBB218460C37BD465DF829
:1057E000047B704780B483B000AF78600B46FB70D9
:1057F0007B68023303F104735B011833FA781A7083
:1058000000BF0C37BD465DF8047B704780B483B0A1
:1058100000AF78607B680222DA7000BF0C37BD46AB
:105820005DF8047B7047000080B584B000AFF8607D
:10583000B9601346FB71BB681F2B05D90A4B0B4A95
:10584000D9210B4807F0B0FABB689B00FA681344F3
:1058500003F104735B0114331A46FB79136000BF34
:105860001037BD4680BD00BF20F9000008FB0000D6
:105870002CF9000080B584B000AFF860B960134621
:10588000FB71BB681F2B05D90D4B0E4AFF210E483B
:1058900007F08AFAFB68BA6853F8223023F0807365
:1058A00023F4E063FA79120202F4E06243EA0201AF
:1058B000FB68BA6843F8221000BF1037BD4680BDB0
:1058C00020F90000F4FA00002CF9000080B584B043
:1058D00000AF78607B681B680F4A52F82330FB608A
:1058E0007B681B68184600F0EDF97B681B6818465A
:1058F00004F062FFF86805F0E9FDF868FFF7DAFEEA
:105900000121F868FFF76EFF0449786800F0FAF8A3
:1059100000BF1037BD4680BDE8FA0000A086010038
:1059200080B584B000AF78607B681B68054A52F888
:105930002330FB60F86805F00FFE0023184610378F
:10594000BD4680BDE8FA000080B584B000AF786045
:105950000023BB607B681B680D4A52F82330FB6054
:10596000F868FFF728FF0346002B02D0F86805F01F
:1059700001FE0023BB6003E000BFBB680133BB60D6
:10598000BB68C72BF8D9002318461037BD4680BD29
:10599000E8FA000080B586B000AF78600B46FB7077
:1059A000104B3B617B681B680F4A52F82330FB6049
:1059B00000237B610CE0FB781946F868FFF7E1FEF5
:1059C0000346002B01D0002307E07B6901337B6194
:1059D0007A693B699A42EED3012318461837BD46CF
:1059E00080BD00BFA0860100E8FA000080B584B049
:1059F00000AF78607B681B68104A52F82330FB6068
:105A000001217868FFF7C6FF0346002B01D002236F
:105A100010E0F868FFF7FAFE07217868FFF7BAFF91
:105A20000346002B01D0022304E00021F868FFF7B1
:105A3000A8FE034618461037BD4680BDE8FA0000B0
:105A400080B584B000AF78607B681B680A4A52F862
:105A50002330FB6001217868FFF79CFF0346002B91
:105A600001D0012303E0F868FFF7D0FE00231846B9
:105A70001037BD4680BD00BFE8FA000080B584B095
:105A800000AF786039607B681B68094A52F82330A0
:105A9000FB603B68DBB21946F868FFF763FE786885
:105AA000FFF7A4FF034618461037BD4680BD00BF70
:105AB000E8FA000080B586B000AFF860B9607A609F
:105AC000FB681B680E4A52F823307B617B68002B11
:105AD00003D07869FFF712FE02E07869FFF7FCFD5A
:105AE0007869FFF732FE03461A46BB681A70F868F9
:105AF000FFF7A6FF034618461837BD4680BD00BF16
:105B0000E8FA000080B584B000AF786039607B6847
:105B10001B680E4A52F82330FB607B681B681846EE
:105B2000FFF7BDFD0346BB603B68094A82FB0312D9
:105B30009211DB17D31A1A460023B968F86805F0EA
:105B4000D3FC00BF1037BD4680BD00BFE8FA00009F
:105B5000D34D621090B589B000AFF860B9607A603B
:105B60003B60F868FFF7DCFE0346002B05D0F868C1
:105B7000FFF7EAFE6FF0010355E0BB6843F0010355
:105B80001946F868FFF77AFF0346002B05D0F8683E
:105B9000FFF7DAFE4FF0FF3345E0FB681B68244A4D
:105BA00052F82330BB610021B869FFF7B9FD00232B
:105BB000FB6124E0FB69002B02D107F1120303E033
:105BC000FB69013B7A6813447B613B68013BFA69DE
:105BD0009A420CBF01230023DBB2FB74FB7C1A4604
:105BE0007969F868FFF766FF0346002B04D0F86870
:105BF000FFF7AAFEFB6916E0FB690133FB61FA6956
:105C00003B689A42D6DB3B6B002B02D0F868FFF76B
:105C10009BFEFB69013B7A68D418B869FFF795FDD4
:105C2000034623703B6818462437BD4690BD00BF2D
:105C3000E8FA000080B586B000AFF860B9607A601D
:105C40003B60F868FFF76CFE0346002B05D0F86850
:105C5000FFF77AFE6FF0010330E0BB6803F0FE034C
:105C60001946F868FFF70AFF0346002B05D0F868CD
:105C7000FFF76AFE4FF0FF3320E000237B6112E064
:105C80007B697A6813441B781946F868FFF7F6FEBB
:105C90000346002B04D0F868FFF756FE7B690DE041
:105CA0007B6901337B617A693B689A42E8DB3B6A36
:105CB000002B02D0F868FFF747FE3B6818461837FC
:105CC000BD4680BD80B582B000AF78607B68002B98
:105CD00002D0012B15D029E0052218211548FFF725
:105CE000C9FD012218211348FFF79EFD0522192145
:105CF0001048FFF7BFFD012219210E48FFF794FD60
:105D000014E002220A210C48FFF7B4FD01220A2107
:105D10000948FFF789FD02220B210748FFF7AAFD7A
:105D200001220B210448FFF77FFD00BF00BF0837A9
